{
  "abi": [
    {
      "inputs": [
        {
          "internalType": "address",
          "name": "_publisher",
          "type": "address"
        },
        {
          "internalType": "address",
          "name": "_sfPublisher",
          "type": "address"
        },
        {
          "internalType": "address",
          "name": "_admin",
          "type": "address"
        }
      ],
      "stateMutability": "nonpayable",
      "type": "constructor"
    },
    {
      "anonymous": false,
      "inputs": [
        {
          "indexed": true,
          "internalType": "address",
          "name": "account",
          "type": "address"
        },
        {
          "indexed": false,
          "internalType": "uint256",
          "name": "queueId",
          "type": "uint256"
        },
        {
          "indexed": false,
          "internalType": "string",
          "name": "reason",
          "type": "string"
        }
      ],
      "name": "CancelTrade",
      "type": "event"
    },
    {
      "anonymous": false,
      "inputs": [
        {
          "indexed": false,
          "internalType": "address",
          "name": "targetContract",
          "type": "address"
        },
        {
          "indexed": false,
          "internalType": "bool",
          "name": "register",
          "type": "bool"
        }
      ],
      "name": "ContractRegistryUpdated",
      "type": "event"
    },
    {
      "anonymous": false,
      "inputs": [
        {
          "indexed": true,
          "internalType": "address",
          "name": "account",
          "type": "address"
        }
      ],
      "name": "DeregisterAccount",
      "type": "event"
    },
    {
      "anonymous": false,
      "inputs": [
        {
          "indexed": false,
          "internalType": "uint256",
          "name": "queueId",
          "type": "uint256"
        },
        {
          "indexed": false,
          "internalType": "string",
          "name": "reason",
          "type": "string"
        }
      ],
      "name": "FailResolve",
      "type": "event"
    },
    {
      "anonymous": false,
      "inputs": [
        {
          "indexed": false,
          "internalType": "uint256",
          "name": "optionId",
          "type": "uint256"
        },
        {
          "indexed": false,
          "internalType": "string",
          "name": "reason",
          "type": "string"
        }
      ],
      "name": "FailUnlock",
      "type": "event"
    },
    {
      "anonymous": false,
      "inputs": [
        {
          "indexed": true,
          "internalType": "address",
          "name": "account",
          "type": "address"
        },
        {
          "indexed": false,
          "internalType": "uint256",
          "name": "queueId",
          "type": "uint256"
        },
        {
          "indexed": false,
          "internalType": "uint256",
          "name": "optionId",
          "type": "uint256"
        }
      ],
      "name": "OpenTrade",
      "type": "event"
    },
    {
      "anonymous": false,
      "inputs": [
        {
          "indexed": true,
          "internalType": "address",
          "name": "account",
          "type": "address"
        },
        {
          "indexed": true,
          "internalType": "address",
          "name": "oneCT",
          "type": "address"
        }
      ],
      "name": "RegisterAccount",
      "type": "event"
    },
    {
      "anonymous": false,
      "inputs": [
        {
          "indexed": true,
          "internalType": "bytes32",
          "name": "role",
          "type": "bytes32"
        },
        {
          "indexed": true,
          "internalType": "bytes32",
          "name": "previousAdminRole",
          "type": "bytes32"
        },
        {
          "indexed": true,
          "internalType": "bytes32",
          "name": "newAdminRole",
          "type": "bytes32"
        }
      ],
      "name": "RoleAdminChanged",
      "type": "event"
    },
    {
      "anonymous": false,
      "inputs": [
        {
          "indexed": true,
          "internalType": "bytes32",
          "name": "role",
          "type": "bytes32"
        },
        {
          "indexed": true,
          "internalType": "address",
          "name": "account",
          "type": "address"
        },
        {
          "indexed": true,
          "internalType": "address",
          "name": "sender",
          "type": "address"
        }
      ],
      "name": "RoleGranted",
      "type": "event"
    },
    {
      "anonymous": false,
      "inputs": [
        {
          "indexed": true,
          "internalType": "bytes32",
          "name": "role",
          "type": "bytes32"
        },
        {
          "indexed": true,
          "internalType": "address",
          "name": "account",
          "type": "address"
        },
        {
          "indexed": true,
          "internalType": "address",
          "name": "sender",
          "type": "address"
        }
      ],
      "name": "RoleRevoked",
      "type": "event"
    },
    {
      "inputs": [],
      "name": "DEFAULT_ADMIN_ROLE",
      "outputs": [
        {
          "internalType": "bytes32",
          "name": "",
          "type": "bytes32"
        }
      ],
      "stateMutability": "view",
      "type": "function"
    },
    {
      "inputs": [
        {
          "internalType": "address",
          "name": "",
          "type": "address"
        }
      ],
      "name": "accountMapping",
      "outputs": [
        {
          "internalType": "address",
          "name": "oneCT",
          "type": "address"
        },
        {
          "internalType": "uint256",
          "name": "nonce",
          "type": "uint256"
        }
      ],
      "stateMutability": "view",
      "type": "function"
    },
    {
      "inputs": [],
      "name": "admin",
      "outputs": [
        {
          "internalType": "address",
          "name": "",
          "type": "address"
        }
      ],
      "stateMutability": "view",
      "type": "function"
    },
    {
      "inputs": [
        {
          "components": [
            {
              "components": [
                {
                  "internalType": "uint256",
                  "name": "queueId",
                  "type": "uint256"
                },
                {
                  "internalType": "uint256",
                  "name": "optionId",
                  "type": "uint256"
                },
                {
                  "internalType": "address",
                  "name": "targetContract",
                  "type": "address"
                },
                {
                  "internalType": "uint256",
                  "name": "closingPrice",
                  "type": "uint256"
                },
                {
                  "internalType": "bool",
                  "name": "isAbove",
                  "type": "bool"
                },
                {
                  "components": [
                    {
                      "internalType": "bytes",
                      "name": "signature",
                      "type": "bytes"
                    },
                    {
                      "internalType": "uint256",
                      "name": "timestamp",
                      "type": "uint256"
                    }
                  ],
                  "internalType": "struct IBufferRouter.SignInfo",
                  "name": "marketDirectionSignInfo",
                  "type": "tuple"
                },
                {
                  "components": [
                    {
                      "internalType": "bytes",
                      "name": "signature",
                      "type": "bytes"
                    },
                    {
                      "internalType": "uint256",
                      "name": "timestamp",
                      "type": "uint256"
                    }
                  ],
                  "internalType": "struct IBufferRouter.SignInfo",
                  "name": "publisherSignInfo",
                  "type": "tuple"
                }
              ],
              "internalType": "struct IBufferRouter.CloseTradeParams",
              "name": "closeTradeParams",
              "type": "tuple"
            },
            {
              "components": [
                {
                  "internalType": "bytes",
                  "name": "signature",
                  "type": "bytes"
                },
                {
                  "internalType": "uint256",
                  "name": "timestamp",
                  "type": "uint256"
                }
              ],
              "internalType": "struct IBufferRouter.SignInfo",
              "name": "userSignInfo",
              "type": "tuple"
            }
          ],
          "internalType": "struct IBufferRouter.CloseAnytimeParams[]",
          "name": "closeParams",
          "type": "tuple[]"
        }
      ],
      "name": "closeAnytime",
      "outputs": [],
      "stateMutability": "nonpayable",
      "type": "function"
    },
    {
      "inputs": [
        {
          "internalType": "address",
          "name": "",
          "type": "address"
        }
      ],
      "name": "contractRegistry",
      "outputs": [
        {
          "internalType": "bool",
          "name": "",
          "type": "bool"
        }
      ],
      "stateMutability": "view",
      "type": "function"
    },
    {
      "inputs": [],
      "name": "deregisterAccount",
      "outputs": [],
      "stateMutability": "nonpayable",
      "type": "function"
    },
    {
      "inputs": [
        {
          "components": [
            {
              "internalType": "uint256",
              "name": "queueId",
              "type": "uint256"
            },
            {
              "internalType": "uint256",
              "name": "optionId",
              "type": "uint256"
            },
            {
              "internalType": "address",
              "name": "targetContract",
              "type": "address"
            },
            {
              "internalType": "uint256",
              "name": "closingPrice",
              "type": "uint256"
            },
            {
              "internalType": "bool",
              "name": "isAbove",
              "type": "bool"
            },
            {
              "components": [
                {
                  "internalType": "bytes",
                  "name": "signature",
                  "type": "bytes"
                },
                {
                  "internalType": "uint256",
                  "name": "timestamp",
                  "type": "uint256"
                }
              ],
              "internalType": "struct IBufferRouter.SignInfo",
              "name": "marketDirectionSignInfo",
              "type": "tuple"
            },
            {
              "components": [
                {
                  "internalType": "bytes",
                  "name": "signature",
                  "type": "bytes"
                },
                {
                  "internalType": "uint256",
                  "name": "timestamp",
                  "type": "uint256"
                }
              ],
              "internalType": "struct IBufferRouter.SignInfo",
              "name": "publisherSignInfo",
              "type": "tuple"
            }
          ],
          "internalType": "struct IBufferRouter.CloseTradeParams[]",
          "name": "optionData",
          "type": "tuple[]"
        }
      ],
      "name": "executeOptions",
      "outputs": [],
      "stateMutability": "nonpayable",
      "type": "function"
    },
    {
      "inputs": [
        {
          "internalType": "bytes32",
          "name": "role",
          "type": "bytes32"
        }
      ],
      "name": "getRoleAdmin",
      "outputs": [
        {
          "internalType": "bytes32",
          "name": "",
          "type": "bytes32"
        }
      ],
      "stateMutability": "view",
      "type": "function"
    },
    {
      "inputs": [
        {
          "internalType": "bytes32",
          "name": "role",
          "type": "bytes32"
        },
        {
          "internalType": "address",
          "name": "account",
          "type": "address"
        }
      ],
      "name": "grantRole",
      "outputs": [],
      "stateMutability": "nonpayable",
      "type": "function"
    },
    {
      "inputs": [
        {
          "internalType": "bytes32",
          "name": "role",
          "type": "bytes32"
        },
        {
          "internalType": "address",
          "name": "account",
          "type": "address"
        }
      ],
      "name": "hasRole",
      "outputs": [
        {
          "internalType": "bool",
          "name": "",
          "type": "bool"
        }
      ],
      "stateMutability": "view",
      "type": "function"
    },
    {
      "inputs": [],
      "name": "isInPrivateKeeperMode",
      "outputs": [
        {
          "internalType": "bool",
          "name": "",
          "type": "bool"
        }
      ],
      "stateMutability": "view",
      "type": "function"
    },
    {
      "inputs": [
        {
          "internalType": "address",
          "name": "",
          "type": "address"
        }
      ],
      "name": "isKeeper",
      "outputs": [
        {
          "internalType": "bool",
          "name": "",
          "type": "bool"
        }
      ],
      "stateMutability": "view",
      "type": "function"
    },
    {
      "inputs": [
        {
          "components": [
            {
              "internalType": "uint256",
              "name": "queueId",
              "type": "uint256"
            },
            {
              "internalType": "address",
              "name": "user",
              "type": "address"
            },
            {
              "internalType": "uint256",
              "name": "totalFee",
              "type": "uint256"
            },
            {
              "internalType": "uint256",
              "name": "period",
              "type": "uint256"
            },
            {
              "internalType": "address",
              "name": "targetContract",
              "type": "address"
            },
            {
              "internalType": "uint256",
              "name": "strike",
              "type": "uint256"
            },
            {
              "internalType": "uint256",
              "name": "slippage",
              "type": "uint256"
            },
            {
              "internalType": "bool",
              "name": "allowPartialFill",
              "type": "bool"
            },
            {
              "internalType": "string",
              "name": "referralCode",
              "type": "string"
            },
            {
              "internalType": "uint256",
              "name": "traderNFTId",
              "type": "uint256"
            },
            {
              "internalType": "uint256",
              "name": "price",
              "type": "uint256"
            },
            {
              "internalType": "uint256",
              "name": "settlementFee",
              "type": "uint256"
            },
            {
              "internalType": "bool",
              "name": "isLimitOrder",
              "type": "bool"
            },
            {
              "internalType": "uint256",
              "name": "limitOrderExpiry",
              "type": "uint256"
            },
            {
              "components": [
                {
                  "internalType": "bytes",
                  "name": "signature",
                  "type": "bytes"
                },
                {
                  "internalType": "uint256",
                  "name": "timestamp",
                  "type": "uint256"
                }
              ],
              "internalType": "struct IBufferRouter.SignInfo",
              "name": "settlementFeeSignInfo",
              "type": "tuple"
            },
            {
              "components": [
                {
                  "internalType": "bytes",
                  "name": "signature",
                  "type": "bytes"
                },
                {
                  "internalType": "uint256",
                  "name": "timestamp",
                  "type": "uint256"
                }
              ],
              "internalType": "struct IBufferRouter.SignInfo",
              "name": "userSignInfo",
              "type": "tuple"
            },
            {
              "components": [
                {
                  "internalType": "bytes",
                  "name": "signature",
                  "type": "bytes"
                },
                {
                  "internalType": "uint256",
                  "name": "timestamp",
                  "type": "uint256"
                }
              ],
              "internalType": "struct IBufferRouter.SignInfo",
              "name": "publisherSignInfo",
              "type": "tuple"
            }
          ],
          "internalType": "struct IBufferRouter.TradeParams[]",
          "name": "params",
          "type": "tuple[]"
        }
      ],
      "name": "openTrades",
      "outputs": [],
      "stateMutability": "nonpayable",
      "type": "function"
    },
    {
      "inputs": [
        {
          "internalType": "bytes",
          "name": "",
          "type": "bytes"
        }
      ],
      "name": "prevSignature",
      "outputs": [
        {
          "internalType": "bool",
          "name": "",
          "type": "bool"
        }
      ],
      "stateMutability": "view",
      "type": "function"
    },
    {
      "inputs": [],
      "name": "publisher",
      "outputs": [
        {
          "internalType": "address",
          "name": "",
          "type": "address"
        }
      ],
      "stateMutability": "view",
      "type": "function"
    },
    {
      "inputs": [
        {
          "internalType": "uint256",
          "name": "",
          "type": "uint256"
        }
      ],
      "name": "queuedTrades",
      "outputs": [
        {
          "internalType": "address",
          "name": "user",
          "type": "address"
        },
        {
          "internalType": "uint256",
          "name": "totalFee",
          "type": "uint256"
        },
        {
          "internalType": "uint256",
          "name": "period",
          "type": "uint256"
        },
        {
          "internalType": "address",
          "name": "targetContract",
          "type": "address"
        },
        {
          "internalType": "uint256",
          "name": "strike",
          "type": "uint256"
        },
        {
          "internalType": "uint256",
          "name": "slippage",
          "type": "uint256"
        },
        {
          "internalType": "bool",
          "name": "allowPartialFill",
          "type": "bool"
        },
        {
          "internalType": "string",
          "name": "referralCode",
          "type": "string"
        },
        {
          "internalType": "uint256",
          "name": "traderNFTId",
          "type": "uint256"
        },
        {
          "internalType": "uint256",
          "name": "settlementFee",
          "type": "uint256"
        },
        {
          "internalType": "bool",
          "name": "isLimitOrder",
          "type": "bool"
        },
        {
          "internalType": "bool",
          "name": "isTradeResolved",
          "type": "bool"
        }
      ],
      "stateMutability": "view",
      "type": "function"
    },
    {
      "inputs": [
        {
          "internalType": "address",
          "name": "oneCT",
          "type": "address"
        }
      ],
      "name": "registerAccount",
      "outputs": [],
      "stateMutability": "nonpayable",
      "type": "function"
    },
    {
      "inputs": [
        {
          "internalType": "bytes32",
          "name": "role",
          "type": "bytes32"
        },
        {
          "internalType": "address",
          "name": "account",
          "type": "address"
        }
      ],
      "name": "renounceRole",
      "outputs": [],
      "stateMutability": "nonpayable",
      "type": "function"
    },
    {
      "inputs": [
        {
          "internalType": "bytes32",
          "name": "role",
          "type": "bytes32"
        },
        {
          "internalType": "address",
          "name": "account",
          "type": "address"
        }
      ],
      "name": "revokeRole",
      "outputs": [],
      "stateMutability": "nonpayable",
      "type": "function"
    },
    {
      "inputs": [
        {
          "internalType": "address",
          "name": "targetContract",
          "type": "address"
        },
        {
          "internalType": "bool",
          "name": "register",
          "type": "bool"
        }
      ],
      "name": "setContractRegistry",
      "outputs": [],
      "stateMutability": "nonpayable",
      "type": "function"
    },
    {
      "inputs": [],
      "name": "setInPrivateKeeperMode",
      "outputs": [],
      "stateMutability": "nonpayable",
      "type": "function"
    },
    {
      "inputs": [
        {
          "internalType": "address",
          "name": "_keeper",
          "type": "address"
        },
        {
          "internalType": "bool",
          "name": "_isActive",
          "type": "bool"
        }
      ],
      "name": "setKeeper",
      "outputs": [],
      "stateMutability": "nonpayable",
      "type": "function"
    },
    {
      "inputs": [],
      "name": "sfPublisher",
      "outputs": [
        {
          "internalType": "address",
          "name": "",
          "type": "address"
        }
      ],
      "stateMutability": "view",
      "type": "function"
    },
    {
      "inputs": [
        {
          "internalType": "bytes4",
          "name": "interfaceId",
          "type": "bytes4"
        }
      ],
      "name": "supportsInterface",
      "outputs": [
        {
          "internalType": "bool",
          "name": "",
          "type": "bool"
        }
      ],
      "stateMutability": "view",
      "type": "function"
    }
  ],
  "bytecode": "608060405260018054623c003c63ffffffff199091161790556003805460ff60a01b1916600160a01b1790553480156200003857600080fd5b5060405162003b9c38038062003b9c8339810160408190526200005b9162000192565b600180546001600160a01b0380861664010000000002600160201b600160c01b031990921691909117909155600280548483166001600160a01b0319918216179091556003805492841692909116919091179055620000bc600033620000c5565b505050620001db565b620000d18282620000d5565b5050565b6000828152602081815260408083206001600160a01b038516845290915290205460ff16620000d1576000828152602081815260408083206001600160a01b03851684529091529020805460ff19166001179055620001313390565b6001600160a01b0316816001600160a01b0316837f2f8788117e7eff1d82e926ec794901d17c78024a50270940304540a733656f0d60405160405180910390a45050565b80516001600160a01b03811681146200018d57600080fd5b919050565b600080600060608486031215620001a7578283fd5b620001b28462000175565b9250620001c26020850162000175565b9150620001d26040850162000175565b90509250925092565b6139b180620001eb6000396000f3fe608060405234801561001057600080fd5b50600436106101285760003560e01c806301ffc9a71461012d578063248a9ca3146101555780632661ffb6146101765780632f2ff15d1461018b57806336568abe1461019e5780634e0e1148146101b157806356d87ebb146101c457806358f8025c146101cc5780636ba42aaa146101d45780637323a1fd146101f75780637b830fff1461020a5780638c72c54e1461023857806391d148541461026a57806397c414df1461027d578063a217fddf14610290578063ae56c6cd14610298578063b96477a1146102c3578063c02d4b83146102d6578063d1b9e853146102ea578063d547741f146102fd578063e0b28d2214610310578063e4855c7314610362578063ed111b0614610375578063f851a44014610398575b600080fd5b61014061013b366004612c6a565b6103ab565b60405190151581526020015b60405180910390f35b610168610163366004612c2e565b6103e2565b60405190815260200161014c565b610189610184366004612ada565b6103f7565b005b610189610199366004612c46565b610466565b6101896101ac366004612c46565b610487565b6101896101bf366004612bd3565b61050a565b6101896105de565b610189610648565b6101406101e2366004612abe565b60066020526000908152604090205460ff1681565b610189610205366004612bd3565b610675565b610140610218366004612c92565b805160208183018101805160088252928201919093012091525460ff1681565b60015461025290600160201b90046001600160a01b031681565b6040516001600160a01b03909116815260200161014c565b610140610278366004612c46565b610cac565b61018961028b366004612abe565b610cd5565b610168600081565b6102ab6102a6366004612c2e565b610d2c565b60405161014c9c9b9a99989796959493929190613036565b600254610252906001600160a01b031681565b60035461014090600160a01b900460ff1681565b6101896102f8366004612ada565b610e2d565b61018961030b366004612c46565b610e64565b61034361031e366004612abe565b600760205260009081526040902080546001909101546001600160a01b039091169082565b604080516001600160a01b03909316835260208301919091520161014c565b610189610370366004612b12565b610e80565b610140610383366004612abe565b60056020526000908152604090205460ff1681565b600354610252906001600160a01b031681565b60006001600160e01b03198216637965db0b60e01b14806103dc57506301ffc9a760e01b6001600160e01b03198316145b92915050565b60009081526020819052604090206001015490565b6000610402816114af565b6001600160a01b038316600081815260056020908152604091829020805460ff19168615159081179091558251938452908301527ff6fc89e1145fe908049b09637f4f4ce148a3fbf26f03585bca63fb6a2a8557f8910160405180910390a1505050565b61046f826103e2565b610478816114af565b61048283836114bc565b505050565b6001600160a01b03811633146104fc5760405162461bcd60e51b815260206004820152602f60248201527f416363657373436f6e74726f6c3a2063616e206f6e6c792072656e6f756e636560448201526e103937b632b9903337b91039b2b63360891b60648201526084015b60405180910390fd5b6105068282611540565b5050565b6105126115a5565b60005b63ffffffff811682111561048257600083838363ffffffff1681811061054b57634e487b7160e01b600052603260045260246000fd5b905060200281019061055d9190613413565b61056690613502565b90506000806105748361160f565b91509150816105bf5782516040517f540144f033b0c98241d6b8c9481755c9fdca47ee01d3ab4e4b14c6aeda805be5916105af91849061334c565b60405180910390a15050506105cc565b6105c883611ce3565b5050505b806105d681613739565b915050610515565b604080518082018252600080825233815260076020908152929020600190810154919283019161060d916134a8565b9052336000908152600760209081526040909120825181546001600160a01b0319166001600160a01b03909116178155910151600190910155565b6000610653816114af565b506003805460ff60a01b198116600160a01b9182900460ff1615909102179055565b61067d6115a5565b8060005b8163ffffffff168163ffffffff161015610ca657600084848363ffffffff168181106106bd57634e487b7160e01b600052603260045260246000fd5b90506020028101906106cf91906133fe565b6106d8906134f6565b6040818101516020830151915163409e220560e01b815260048101929092529192506000906001600160a01b0383169063409e2205906024016101006040518083038186803b15801561072a57600080fd5b505afa15801561073e573d6000803e3d6000fd5b505050506040513d601f19601f820116820180604052508101906107629190612ce0565b50509550505050505060008360c001519050600073__Validator_____________________________637731b992856001600160a01b03166310082c756040518163ffffffff1660e01b815260040160006040518083038186803b1580156107c957600080fd5b505afa1580156107dd573d6000803e3d6000fd5b505050506040513d6000823e601f3d908101601f191682016040526108059190810190612d4c565b60208501516060890151865160015460405160e087901b6001600160e01b03191681526108499594939291600160201b90046001600160a01b0316906004016130c7565b60206040518083038186803b15801561086157600080fd5b505af4158015610875573d6000803e3d6000fd5b505050506040513d601f19601f820116820180604052508101906108999190612c12565b9050806108d3576000805160206138e983398151915285602001516040516108c191906133a3565b60405180910390a15050505050610c94565b8451600090815260046020818152604080842081516101808101835281546001600160a01b03908116825260018301549482019490945260028201549281019290925260038101549092166060820152918101546080830152600581015460a0830152600681015460ff16151560c083015260078101805460e08401919061095a906136ad565b80601f0160208091040260200160405190810160405280929190818152602001828054610986906136ad565b80156109d35780601f106109a8576101008083540402835291602001916109d3565b820191906000526020600020905b8154815290600101906020018083116109b657829003601f168201915b505050918352505060088201546020808301919091526009830154604080840191909152600a9093015460ff8082161515606085015261010090910416151560809092019190915282516001600160a01b039081166000908152600790925290829020549151633de4c18160e21b815292935073__Validator_____________________________9263f793060492610a76928b92879290911690600401613113565b60206040518083038186803b158015610a8e57600080fd5b505af4158015610aa2573d6000803e3d6000fd5b505050506040513d601f19601f82011682018060405250810190610ac69190612c12565b610afe576000805160206138e98339815191528660200151604051610aeb9190613365565b60405180910390a1505050505050610c94565b82602001518414610b57576000805160206138e98339815191528660200151604051610aeb91815260406020820181905260139082015272526f757465723a2057726f6e6720707269636560681b606082015260800190565b42841115610bb4576000805160206138e98339815191528660200151604051610aeb918152604060208201819052601a9082015279526f757465723a2057726f6e6720636c6f73696e672074696d6560301b606082015260800190565b602086015160608701516080880151604051635a36709360e01b81526001600160a01b03891693635a36709393610bf393919290918a916004016133e1565b600060405180830381600087803b158015610c0d57600080fd5b505af1925050508015610c1e575060015b610c8d57610c2a613789565b806308c379a01415610c815750610c3f6137a1565b80610c4a5750610c83565b6000805160206138e9833981519152876020015182604051610c6d92919061334c565b60405180910390a150505050505050610c94565b505b3d6000803e3d6000fd5b5050505050505b80610c9e81613739565b915050610681565b50505050565b6000918252602082815260408084206001600160a01b0393909316845291905290205460ff1690565b3360008181526007602052604080822080546001600160a01b0319166001600160a01b03861690811790915590519092917f98e2a4eaf073755fda5aabd67be853a3c5e5bf5b7fb5569b28342ce7eb69a4b991a350565b6004602081905260009182526040909120805460018201546002830154600384015494840154600585015460068601546007870180546001600160a01b039788169996989597909616959394929360ff9092169291610d8a906136ad565b80601f0160208091040260200160405190810160405280929190818152602001828054610db6906136ad565b8015610e035780601f10610dd857610100808354040283529160200191610e03565b820191906000526020600020905b815481529060010190602001808311610de657829003601f168201915b5050505060088301546009840154600a909401549293909290915060ff808216916101009004168c565b6000610e38816114af565b506001600160a01b03919091166000908152600660205260409020805460ff1916911515919091179055565b610e6d826103e2565b610e76816114af565b6104828383611540565b610e886115a5565b60005b81518163ffffffff161015610506576000828263ffffffff1681518110610ec257634e487b7160e01b600052603260045260246000fd5b60200260200101516020015190506000838363ffffffff1681518110610ef857634e487b7160e01b600052603260045260246000fd5b6020908102919091018101515160408082015160c08084015184516000908152600480885285822086516101808101885281546001600160a01b03908116825260018301549a82019a909a52600282015497810197909752600381015490981660608701528701546080860152600587015460a0860152600687015460ff1615159285019290925260078601805495975092959094919392909160e084019190610fa1906136ad565b80601f0160208091040260200160405190810160405280929190818152602001828054610fcd906136ad565b801561101a5780601f10610fef5761010080835404028352916020019161101a565b820191906000526020600020905b815481529060010190602001808311610ffd57829003601f168201915b5050509183525050600882015460208201526009820154604080830191909152600a9092015460ff8082161515606084015261010090910416151560809091015280516310082c7560e01b8152905191925060009173__Validator_____________________________91632a51ff38916001600160a01b038816916310082c759160048083019288929190829003018186803b1580156110ba57600080fd5b505afa1580156110ce573d6000803e3d6000fd5b505050506040513d6000823e601f3d908101601f191682016040526110f69190810190612d4c565b602080870151898201518b5188516001600160a01b03908116600090815260079095526040948590205494516001600160e01b031960e089901b1681526111449695909116906004016130c7565b60206040518083038186803b15801561115c57600080fd5b505af4158015611170573d6000803e3d6000fd5b505050506040513d601f19601f820116820180604052508101906111949190612c12565b9050600073__Validator_____________________________637731b992866001600160a01b03166310082c756040518163ffffffff1660e01b815260040160006040518083038186803b1580156111eb57600080fd5b505afa1580156111ff573d6000803e3d6000fd5b505050506040513d6000823e601f3d908101601f191682016040526112279190810190612d4c565b602087015160608a0151885160015460405160e087901b6001600160e01b031916815261126b9594939291600160201b90046001600160a01b0316906004016130c7565b60206040518083038186803b15801561128357600080fd5b505af4158015611297573d6000803e3d6000fd5b505050506040513d601f19601f820116820180604052508101906112bb9190612c12565b9050806112f7576000805160206138e983398151915286602001516040516112e391906133a3565b60405180910390a15050505050505061149d565b82516001600160a01b0390811660009081526007602052604090819020549051633de4c18160e21b815273__Validator_____________________________9263f79306049261134f928b9289921690600401613113565b60206040518083038186803b15801561136757600080fd5b505af415801561137b573d6000803e3d6000fd5b505050506040513d601f19601f8201168201806040525081019061139f9190612c12565b6113c4576000805160206138e983398151915286602001516040516112e39190613365565b846001600160a01b0316635a3670938760200151886060015187602001518a608001516040518563ffffffff1660e01b815260040161140694939291906133e1565b600060405180830381600087803b15801561142057600080fd5b505af1925050508015611431575060015b6114955761143d613789565b806308c379a01415610c8157506114526137a1565b8061145d5750610c83565b6000805160206138e983398151915287602001518260405161148092919061334c565b60405180910390a1505050505050505061149d565b505050505050505b806114a781613739565b915050610e8b565b6114b981336122fb565b50565b6114c68282610cac565b610506576000828152602081815260408083206001600160a01b03851684529091529020805460ff191660011790556114fc3390565b6001600160a01b0316816001600160a01b0316837f2f8788117e7eff1d82e926ec794901d17c78024a50270940304540a733656f0d60405160405180910390a45050565b61154a8282610cac565b15610506576000828152602081815260408083206001600160a01b0385168085529252808320805460ff1916905551339285917ff6391f5c32d9c69d2a47ea670b442974b53935d1edc7fd64eb21e047a839171b9190a45050565b600354600160a01b900460ff1615806115cd57503360009081526006602052604090205460ff165b61160d5760405162461bcd60e51b815260206004820152601160248201527025b2b2b832b91d103337b93134b23232b760791b60448201526064016104f3565b565b60808101516101c08201516102008301516101e08401516001600160a01b038416600090815260056020526040812054909460609490939092909160ff166116965760006040518060400160405280601d81526020017f526f757465723a20556e617574686f72697a656420636f6e74726163740000008152509550955050505050915091565b86516000908152600460205260409020600a0154610100900460ff16156116df5760006040518060600160405280602581526020016138c4602591399550955050505050915091565b80516040516008916116f091612fab565b9081526040519081900360200190205460ff161561174d5760006040518060400160405280601e81526020017f526f757465723a205369676e617475726520616c7265616479207573656400008152509550955050505050915091565b6020808801516001600160a01b03908116600090815260079092526040918290205491516325ff529760e11b815273__Validator_____________________________92634bfea52e926117a9928c92909116906004016131f7565b60206040518083038186803b1580156117c157600080fd5b505af41580156117d5573d6000803e3d6000fd5b505050506040513d601f19601f820116820180604052508101906117f99190612c12565b611825576000604051806060016040528060238152602001613909602391399550955050505050915091565b73__Validator_____________________________63b371d25d856001600160a01b03166310082c756040518163ffffffff1660e01b815260040160006040518083038186803b15801561187857600080fd5b505afa15801561188c573d6000803e3d6000fd5b505050506040513d6000823e601f3d908101601f191682016040526118b49190810190612d4c565b6101608a0151602087015187516002546040516001600160e01b031960e088901b1681526118f295949392916001600160a01b0316906004016130c7565b60206040518083038186803b15801561190a57600080fd5b505af415801561191e573d6000803e3d6000fd5b505050506040513d601f19601f820116820180604052508101906119429190612c12565b61198a5760006040518060400160405280601c81526020017b526f757465723a2057726f6e6720736574746c656d656e742066656560201b8152509550955050505050915091565b73__Validator_____________________________637731b992856001600160a01b03166310082c756040518163ffffffff1660e01b815260040160006040518083038186803b1580156119dd57600080fd5b505afa1580156119f1573d6000803e3d6000fd5b505050506040513d6000823e601f3d908101601f19168201604052611a199190810190612d4c565b60208501516101408b0151865160015460405160e087901b6001600160e01b0319168152611a5e9594939291600160201b90046001600160a01b0316906004016130c7565b60206040518083038186803b158015611a7657600080fd5b505af4158015611a8a573d6000803e3d6000fd5b505050506040513d601f19601f82011682018060405250810190611aae9190612c12565b611ada57600060405180606001604052806028815260200161392c602891399550955050505050915091565b4283602001511015611b0e576000604051806060016040528060228152602001613875602291399550955050505050915091565b866101800151611b6457600154602082015161ffff90911690611b3190426134df565b1115611b5f576000604051806060016040528060288152602001613954602891399550955050505050915091565b611b99565b866101a00151421115611b9957600060405180606001604052806027815260200161384e602791399550955050505050915091565b60015460208301516201000090910461ffff1690611bb790426134df565b1115611be55760006040518060600160405280602d8152602001613897602d91399550955050505050915091565b60c087015161014088015160a0890151604051631e4c9f7760e11b81526004810193909352602483019190915260448201526001600160a01b03851690633c993eee9060640160206040518083038186803b158015611c4357600080fd5b505afa158015611c57573d6000803e3d6000fd5b505050506040513d601f19601f82011682018060405250810190611c7b9190612c12565b611cc45760006040518060400160405280601e81526020017f526f757465723a20536c697070616765206c696d6974206578636565647300008152509550955050505050915091565b6001604051806020016040528060008152509550955050505050915091565b60808101516102008201516101e0830151604080516379502c5560e01b815290516000916001600160a01b038616916379502c5591600480820192602092909190829003018186803b158015611d3857600080fd5b505afa158015611d4c573d6000803e3d6000fd5b505050506040513d601f19601f82011682018060405250810190611d709190612cc4565b6001600160a01b03166326232a2e6040518163ffffffff1660e01b815260040160206040518083038186803b158015611da857600080fd5b505afa158015611dbc573d6000803e3d6000fd5b505050506040513d601f19601f82011682018060405250810190611de09190612dc9565b90506000806000806040518061012001604052808a60a001518152602001600081526020018a6060015181526020018a60e0015115158152602001868b60400151611e2b91906134df565b81526020018a602001516001600160a01b031681526020018a610100015181526020018a610120015181526020018a61016001518152509050876001600160a01b0316630fb11147828b60c001516040518363ffffffff1660e01b8152600401611e969291906131d5565b606060405180830381600087803b158015611eb057600080fd5b505af1925050508015611ee0575060408051601f3d908101601f19168201909252611edd91810190612de1565b60015b611f6357611eec613789565b806308c379a01415610c815750611f016137a1565b80611f0c5750610c83565b89602001516001600160a01b03167fc804e178cb25d48cffff5de67dd01d385e72784ce35bbc52affad3e13dfa269a8b6000015183604051611f4f92919061334c565b60405180910390a250505050505050505050565b919550935091506000886001600160a01b03166316dc165b6040518163ffffffff1660e01b815260040160206040518083038186803b158015611fa557600080fd5b505afa158015611fb9573d6000803e3d6000fd5b505050506040513d601f19601f82011682018060405250810190611fdd9190612cc4565b60208b0151600354919250612000916001600160a01b038085169291168961235f565b60208a015160808b015161201f916001600160a01b038416918761235f565b6101408a01518252602080830186905288015160405163450aacab60e11b81526000916001600160a01b038c1691638a1559569161206391879189916004016131b0565b602060405180830381600087803b15801561207d57600080fd5b505af1158015612091573d6000803e3d6000fd5b505050506040513d601f19601f820116820180604052508101906120b59190612dc9565b90506040518061018001604052808c602001516001600160a01b031681526020018c6040015181526020018c6060015181526020018c608001516001600160a01b031681526020018c60a0015181526020018c60c0015181526020018c60e00151151581526020018c610100015181526020018c610120015181526020018c610160015181526020018c61018001511515815260200160011515815250600460008d60000151815260200190815260200160002060008201518160000160006101000a8154816001600160a01b0302191690836001600160a01b03160217905550602082015181600101556040820151816002015560608201518160030160006101000a8154816001600160a01b0302191690836001600160a01b031602179055506080820151816004015560a0820151816005015560c08201518160060160006101000a81548160ff02191690831515021790555060e08201518160070190805190602001906122279291906127f4565b50610100828101516008838101919091556101208401516009840155610140840151600a90930180546101609095015161ffff1990951693151561ff0019169390931793151590910292909217905588516040516001929161228891612fab565b9081526040805160209281900383018120805460ff1916941515949094179093558d8201518e5184529183018490526001600160a01b03909116917f46961a5320eafc3fb71b3051774237104d4cec1687a31eed0c32262f0be47902910160405180910390a25050505050505050505050565b6123058282610cac565b6105065761231d816001600160a01b031660146123b9565b6123288360206123b9565b604051602001612339929190612fc7565b60408051601f198184030181529082905262461bcd60e51b82526104f3916004016130b4565b604080516001600160a01b0385811660248301528416604482015260648082018490528251808303909101815260849091019091526020810180516001600160e01b03166323b872dd60e01b179052610ca69085906125a1565b606060006123c88360026134c0565b6123d39060026134a8565b6001600160401b038111156123f857634e487b7160e01b600052604160045260246000fd5b6040519080825280601f01601f191660200182016040528015612422576020820181803683370190505b509050600360fc1b8160008151811061244b57634e487b7160e01b600052603260045260246000fd5b60200101906001600160f81b031916908160001a905350600f60fb1b8160018151811061248857634e487b7160e01b600052603260045260246000fd5b60200101906001600160f81b031916908160001a90535060006124ac8460026134c0565b6124b79060016134a8565b90505b600181111561254b576f181899199a1a9b1b9c1cb0b131b232b360811b85600f16601081106124f957634e487b7160e01b600052603260045260246000fd5b1a60f81b82828151811061251d57634e487b7160e01b600052603260045260246000fd5b60200101906001600160f81b031916908160001a90535060049490941c9361254481613696565b90506124ba565b50831561259a5760405162461bcd60e51b815260206004820181905260248201527f537472696e67733a20686578206c656e67746820696e73756666696369656e7460448201526064016104f3565b9392505050565b60006125f6826040518060400160405280602081526020017f5361666545524332303a206c6f772d6c6576656c2063616c6c206661696c6564815250856001600160a01b03166126739092919063ffffffff16565b80519091501561048257808060200190518101906126149190612c12565b6104825760405162461bcd60e51b815260206004820152602a60248201527f5361666545524332303a204552433230206f7065726174696f6e20646964206e6044820152691bdd081cdd58d8d9595960b21b60648201526084016104f3565b6060612682848460008561268a565b949350505050565b6060824710156126eb5760405162461bcd60e51b815260206004820152602660248201527f416464726573733a20696e73756666696369656e742062616c616e636520666f6044820152651c8818d85b1b60d21b60648201526084016104f3565b6001600160a01b0385163b6127425760405162461bcd60e51b815260206004820152601d60248201527f416464726573733a2063616c6c20746f206e6f6e2d636f6e747261637400000060448201526064016104f3565b600080866001600160a01b0316858760405161275e9190612fab565b60006040518083038185875af1925050503d806000811461279b576040519150601f19603f3d011682016040523d82523d6000602084013e6127a0565b606091505b50915091506127b08282866127bb565b979650505050505050565b606083156127ca57508161259a565b8251156127da5782518084602001fd5b8160405162461bcd60e51b81526004016104f391906130b4565b828054612800906136ad565b90600052602060002090601f0160209004810192826128225760008555612868565b82601f1061283b57805160ff1916838001178555612868565b82800160010185558215612868579182015b8281111561286857825182559160200191906001019061284d565b50612874929150612878565b5090565b5b808211156128745760008155600101612879565b80356128988161382a565b919050565b60008083601f8401126128ae578182fd5b5081356001600160401b038111156128c4578182fd5b6020830191508360208260051b85010111156128df57600080fd5b9250929050565b80356128988161383f565b600082601f830112612901578081fd5b813561290c81613481565b604051612919828261370d565b82815285602084870101111561292d578384fd5b82602086016020830137918201602001929092529392505050565b600060408284031215612959578081fd5b604051612965816136e8565b90508082356001600160401b038082111561297f57600080fd5b61298b868387016129bb565b835260208501359150808211156129a157600080fd5b506129ae85828601612a68565b6020830152505092915050565b600060e082840312156129cc578081fd5b6129d4613429565b905081358152602082013560208201526129f06040830161288d565b604082015260608201356060820152612a0b608083016128e6565b608082015260a08201356001600160401b0380821115612a2a57600080fd5b612a3685838601612a68565b60a084015260c0840135915080821115612a4f57600080fd5b50612a5c84828501612a68565b60c08301525092915050565b600060408284031215612a79578081fd5b604051612a85816136e8565b90508082356001600160401b03811115612a9e57600080fd5b612aaa858286016128f1565b825250602083013560208201525092915050565b600060208284031215612acf578081fd5b813561259a8161382a565b60008060408385031215612aec578081fd5b8235612af78161382a565b91506020830135612b078161383f565b809150509250929050565b60006020808385031215612b24578182fd5b82356001600160401b0380821115612b3a578384fd5b818501915085601f830112612b4d578384fd5b813581811115612b5f57612b5f613773565b8060051b612b6e858201613474565b8281528581019085870183870188018b1015612b88578889fd5b8893505b84841015612bc557803586811115612ba257898afd5b612bb08c8a838b0101612948565b84525060019390930192918701918701612b8c565b509998505050505050505050565b60008060208385031215612be5578182fd5b82356001600160401b03811115612bfa578283fd5b612c068582860161289d565b90969095509350505050565b600060208284031215612c23578081fd5b815161259a8161383f565b600060208284031215612c3f578081fd5b5035919050565b60008060408385031215612c58578182fd5b823591506020830135612b078161382a565b600060208284031215612c7b578081fd5b81356001600160e01b03198116811461259a578182fd5b600060208284031215612ca3578081fd5b81356001600160401b03811115612cb8578182fd5b612682848285016128f1565b600060208284031215612cd5578081fd5b815161259a8161382a565b600080600080600080600080610100898b031215612cfc578384fd5b885160048110612d0a578485fd5b809850506020890151965060408901519550606089015194506080890151935060a0890151925060c0890151915060e089015190509295985092959890939650565b600060208284031215612d5d578081fd5b81516001600160401b03811115612d72578182fd5b8201601f81018413612d82578182fd5b8051612d8d81613481565b604051612d9a828261370d565b828152866020848601011115612dae578485fd5b612dbf83602083016020870161366a565b9695505050505050565b600060208284031215612dda578081fd5b5051919050565b600080600060608486031215612df5578081fd5b83519250602084015191506040840151612e0e8161383f565b809150509250925092565b6001600160a01b03169052565b60008151808452612e3e81602086016020860161366a565b601f01601f19169290920160200192915050565b60006101208251845260208301516020850152604083015160408501526060830151151560608501526080830151608085015260a0830151612e9760a0860182612e19565b5060c08301518160c0860152612eaf82860182612e26565b60e08581015190870152610100948501519490950193909352509192915050565b6000610180612ee0848451612e19565b60208301516020850152604083015160408501526060830151612f066060860182612e19565b506080830151608085015260a083015160a085015260c0830151612f2e60c086018215159052565b5060e08301518160e0860152612f4682860182612e26565b61010085810151908701526101208086015190870152610140808601511515908701526101609485015115159490950193909352509192915050565b6000815160408452612f976040850182612e26565b602093840151949093019390935250919050565b60008251612fbd81846020870161366a565b9190910192915050565b76020b1b1b2b9b9a1b7b73a3937b61d1030b1b1b7bab73a1604d1b815260008351612ff981601785016020880161366a565b7001034b99036b4b9b9b4b733903937b6329607d1b601791840191820152835161302a81602884016020880161366a565b01602801949350505050565b600060018060a01b03808f1683528d60208401528c6040840152808c166060840152508960808301528860a083015287151560c083015261018060e0830152613083610180830188612e26565b6101008301969096525061012081019390935290151561014083015215156101609091015298975050505050505050565b60208152600061259a6020830184612e26565b60a0815260006130da60a0830188612e26565b86602084015285604084015282810360608401526130f88186612e26565b91505060018060a01b03831660808301529695505050505050565b60608152835160608201526020840151608082015260018060a01b0360408501511660a0820152606084015160c08201526080840151151560e0820152600060a085015160e061010084015261316d610140840182612f82565b905060c0860151605f198483030161012085015261318b8282612f82565b91505082810360208401526131a08186612ed0565b9150506126826040830184612e19565b6060815260006131c36060830186612e52565b93151560208301525060400152919050565b6040815260006131e86040830185612e52565b90508260208301529392505050565b6040815282516040820152600060208401516132166060840182612e19565b5060408401516080830152606084015160a0830152608084015161323d60c0840182612e19565b5060a084015160e083015260c0840151610100818185015260e0860151915061012061326c8186018415159052565b8187015192506102209150610140828187015261328d610260870185612e26565b91880151610160878101919091529088015161018080880191909152908801516101a080880191909152908801519193506101c0906132cf8288018415159052565b808901519250506101e08281880152818901519250603f1991506102008288870301818901526132ff8685612f82565b9550818a0151935082888703018589015261331a8685612f82565b9550808a0151945050508086850301610240870152505061333b8282612f82565b9250505061259a6020830184612e19565b8281526040602082015260006126826040830184612e26565b908152604060208201819052601e908201527f526f757465723a2057726f6e67206d61726b657420646972656374696f6e0000606082015260800190565b908152604060208201819052601e908201527f526f757465723a205369676e6174757265206469646e2774206d617463680000606082015260800190565b938452602084019290925260408301521515606082015260800190565b6000823560de19833603018112612fbd578182fd5b6000823561021e19833603018112612fbd578182fd5b60405160e081016001600160401b038111828210171561344b5761344b613773565b60405290565b60405161022081016001600160401b038111828210171561344b5761344b613773565b604051612898828261370d565b60006001600160401b0382111561349a5761349a613773565b50601f01601f191660200190565b600082198211156134bb576134bb61375d565b500190565b60008160001904831182151516156134da576134da61375d565b500290565b6000828210156134f1576134f161375d565b500390565b60006103dc36836129bb565b60006102208236031215613514578081fd5b61351c613451565b8235815261352c6020840161288d565b602082015260408301356040820152606083013560608201526135516080840161288d565b608082015260a083013560a082015260c083013560c082015261357660e084016128e6565b60e0820152610100838101356001600160401b0380821115613596578485fd5b6135a2368388016128f1565b92840192909252610120858101359084015261014080860135908401526101608086013590840152610180916135d98387016128e6565b838501526101a0925082860135838501526101c0925082860135915080821115613601578485fd5b61360d36838801612a68565b838501526101e0925082860135915080821115613628578485fd5b61363436838801612a68565b8385015261020092508286013591508082111561364f578485fd5b5061365c36828701612a68565b918301919091525092915050565b60005b8381101561368557818101518382015260200161366d565b83811115610ca65750506000910152565b6000816136a5576136a561375d565b506000190190565b600181811c908216806136c157607f821691505b602082108114156136e257634e487b7160e01b600052602260045260246000fd5b50919050565b604081016001600160401b038111828210171561370757613707613773565b60405250565b601f8201601f191681016001600160401b038111828210171561373257613732613773565b6040525050565b600063ffffffff808316818114156137535761375361375d565b6001019392505050565b634e487b7160e01b600052601160045260246000fd5b634e487b7160e01b600052604160045260246000fd5b600060033d111561379e57600481823e5160e01c5b90565b600060443d10156137af5790565b6040516003193d81016004833e81513d6001600160401b0380831160248401831017156137de57505050505090565b82850191508151818111156137f65750505050505090565b843d87010160208285010111156138105750505050505090565b61381f6020828601018761370d565b509095945050505050565b6001600160a01b03811681146114b957600080fd5b80151581146114b957600080fdfe526f757465723a204c696d6974206f726465722068617320616c72656164792065787069726564526f757465723a20536574746c656d656e7420666565206861732065787069726564526f757465723a20496e76616c6964207075626c6973686572207369676e61747572652074696d657374616d70526f757465723a2054726164652068617320616c7265616479206265656e206f70656e6564312ffa36dda8ceca985bf8d5ca545c4fb764ddca604f4ba5088109da0b9465f3526f757465723a2055736572207369676e6174757265206469646e2774206d61746368526f757465723a205075626c6973686572207369676e6174757265206469646e2774206d61746368526f757465723a20496e76616c69642075736572207369676e61747572652074696d657374616d70a26469706673582212208881b8cd32d25b58d0de9dbba4fed286c3f3628cec01f10704cd6780fb709e5f64736f6c63430008040033",
  "bytecodeSha1": "da140d4eece3dbd3f8ce5ab639c8455460cff771",
  "compiler": {
    "evm_version": "istanbul",
    "optimizer": {
      "enabled": true,
      "runs": 1
    },
    "version": "0.8.4+commit.c7e474f2"
  },
  "contractName": "BufferRouter",
  "deployedBytecode": "608060405234801561001057600080fd5b50600436106101285760003560e01c806301ffc9a71461012d578063248a9ca3146101555780632661ffb6146101765780632f2ff15d1461018b57806336568abe1461019e5780634e0e1148146101b157806356d87ebb146101c457806358f8025c146101cc5780636ba42aaa146101d45780637323a1fd146101f75780637b830fff1461020a5780638c72c54e1461023857806391d148541461026a57806397c414df1461027d578063a217fddf14610290578063ae56c6cd14610298578063b96477a1146102c3578063c02d4b83146102d6578063d1b9e853146102ea578063d547741f146102fd578063e0b28d2214610310578063e4855c7314610362578063ed111b0614610375578063f851a44014610398575b600080fd5b61014061013b366004612c6a565b6103ab565b60405190151581526020015b60405180910390f35b610168610163366004612c2e565b6103e2565b60405190815260200161014c565b610189610184366004612ada565b6103f7565b005b610189610199366004612c46565b610466565b6101896101ac366004612c46565b610487565b6101896101bf366004612bd3565b61050a565b6101896105de565b610189610648565b6101406101e2366004612abe565b60066020526000908152604090205460ff1681565b610189610205366004612bd3565b610675565b610140610218366004612c92565b805160208183018101805160088252928201919093012091525460ff1681565b60015461025290600160201b90046001600160a01b031681565b6040516001600160a01b03909116815260200161014c565b610140610278366004612c46565b610cac565b61018961028b366004612abe565b610cd5565b610168600081565b6102ab6102a6366004612c2e565b610d2c565b60405161014c9c9b9a99989796959493929190613036565b600254610252906001600160a01b031681565b60035461014090600160a01b900460ff1681565b6101896102f8366004612ada565b610e2d565b61018961030b366004612c46565b610e64565b61034361031e366004612abe565b600760205260009081526040902080546001909101546001600160a01b039091169082565b604080516001600160a01b03909316835260208301919091520161014c565b610189610370366004612b12565b610e80565b610140610383366004612abe565b60056020526000908152604090205460ff1681565b600354610252906001600160a01b031681565b60006001600160e01b03198216637965db0b60e01b14806103dc57506301ffc9a760e01b6001600160e01b03198316145b92915050565b60009081526020819052604090206001015490565b6000610402816114af565b6001600160a01b038316600081815260056020908152604091829020805460ff19168615159081179091558251938452908301527ff6fc89e1145fe908049b09637f4f4ce148a3fbf26f03585bca63fb6a2a8557f8910160405180910390a1505050565b61046f826103e2565b610478816114af565b61048283836114bc565b505050565b6001600160a01b03811633146104fc5760405162461bcd60e51b815260206004820152602f60248201527f416363657373436f6e74726f6c3a2063616e206f6e6c792072656e6f756e636560448201526e103937b632b9903337b91039b2b63360891b60648201526084015b60405180910390fd5b6105068282611540565b5050565b6105126115a5565b60005b63ffffffff811682111561048257600083838363ffffffff1681811061054b57634e487b7160e01b600052603260045260246000fd5b905060200281019061055d9190613413565b61056690613502565b90506000806105748361160f565b91509150816105bf5782516040517f540144f033b0c98241d6b8c9481755c9fdca47ee01d3ab4e4b14c6aeda805be5916105af91849061334c565b60405180910390a15050506105cc565b6105c883611ce3565b5050505b806105d681613739565b915050610515565b604080518082018252600080825233815260076020908152929020600190810154919283019161060d916134a8565b9052336000908152600760209081526040909120825181546001600160a01b0319166001600160a01b03909116178155910151600190910155565b6000610653816114af565b506003805460ff60a01b198116600160a01b9182900460ff1615909102179055565b61067d6115a5565b8060005b8163ffffffff168163ffffffff161015610ca657600084848363ffffffff168181106106bd57634e487b7160e01b600052603260045260246000fd5b90506020028101906106cf91906133fe565b6106d8906134f6565b6040818101516020830151915163409e220560e01b815260048101929092529192506000906001600160a01b0383169063409e2205906024016101006040518083038186803b15801561072a57600080fd5b505afa15801561073e573d6000803e3d6000fd5b505050506040513d601f19601f820116820180604052508101906107629190612ce0565b50509550505050505060008360c001519050600073__$f384646973a2e28eb9c0309e741f83a2d9$__637731b992856001600160a01b03166310082c756040518163ffffffff1660e01b815260040160006040518083038186803b1580156107c957600080fd5b505afa1580156107dd573d6000803e3d6000fd5b505050506040513d6000823e601f3d908101601f191682016040526108059190810190612d4c565b60208501516060890151865160015460405160e087901b6001600160e01b03191681526108499594939291600160201b90046001600160a01b0316906004016130c7565b60206040518083038186803b15801561086157600080fd5b505af4158015610875573d6000803e3d6000fd5b505050506040513d601f19601f820116820180604052508101906108999190612c12565b9050806108d3576000805160206138e983398151915285602001516040516108c191906133a3565b60405180910390a15050505050610c94565b8451600090815260046020818152604080842081516101808101835281546001600160a01b03908116825260018301549482019490945260028201549281019290925260038101549092166060820152918101546080830152600581015460a0830152600681015460ff16151560c083015260078101805460e08401919061095a906136ad565b80601f0160208091040260200160405190810160405280929190818152602001828054610986906136ad565b80156109d35780601f106109a8576101008083540402835291602001916109d3565b820191906000526020600020905b8154815290600101906020018083116109b657829003601f168201915b505050918352505060088201546020808301919091526009830154604080840191909152600a9093015460ff8082161515606085015261010090910416151560809092019190915282516001600160a01b039081166000908152600790925290829020549151633de4c18160e21b815292935073__$f384646973a2e28eb9c0309e741f83a2d9$__9263f793060492610a76928b92879290911690600401613113565b60206040518083038186803b158015610a8e57600080fd5b505af4158015610aa2573d6000803e3d6000fd5b505050506040513d601f19601f82011682018060405250810190610ac69190612c12565b610afe576000805160206138e98339815191528660200151604051610aeb9190613365565b60405180910390a1505050505050610c94565b82602001518414610b57576000805160206138e98339815191528660200151604051610aeb91815260406020820181905260139082015272526f757465723a2057726f6e6720707269636560681b606082015260800190565b42841115610bb4576000805160206138e98339815191528660200151604051610aeb918152604060208201819052601a9082015279526f757465723a2057726f6e6720636c6f73696e672074696d6560301b606082015260800190565b602086015160608701516080880151604051635a36709360e01b81526001600160a01b03891693635a36709393610bf393919290918a916004016133e1565b600060405180830381600087803b158015610c0d57600080fd5b505af1925050508015610c1e575060015b610c8d57610c2a613789565b806308c379a01415610c815750610c3f6137a1565b80610c4a5750610c83565b6000805160206138e9833981519152876020015182604051610c6d92919061334c565b60405180910390a150505050505050610c94565b505b3d6000803e3d6000fd5b5050505050505b80610c9e81613739565b915050610681565b50505050565b6000918252602082815260408084206001600160a01b0393909316845291905290205460ff1690565b3360008181526007602052604080822080546001600160a01b0319166001600160a01b03861690811790915590519092917f98e2a4eaf073755fda5aabd67be853a3c5e5bf5b7fb5569b28342ce7eb69a4b991a350565b6004602081905260009182526040909120805460018201546002830154600384015494840154600585015460068601546007870180546001600160a01b039788169996989597909616959394929360ff9092169291610d8a906136ad565b80601f0160208091040260200160405190810160405280929190818152602001828054610db6906136ad565b8015610e035780601f10610dd857610100808354040283529160200191610e03565b820191906000526020600020905b815481529060010190602001808311610de657829003601f168201915b5050505060088301546009840154600a909401549293909290915060ff808216916101009004168c565b6000610e38816114af565b506001600160a01b03919091166000908152600660205260409020805460ff1916911515919091179055565b610e6d826103e2565b610e76816114af565b6104828383611540565b610e886115a5565b60005b81518163ffffffff161015610506576000828263ffffffff1681518110610ec257634e487b7160e01b600052603260045260246000fd5b60200260200101516020015190506000838363ffffffff1681518110610ef857634e487b7160e01b600052603260045260246000fd5b6020908102919091018101515160408082015160c08084015184516000908152600480885285822086516101808101885281546001600160a01b03908116825260018301549a82019a909a52600282015497810197909752600381015490981660608701528701546080860152600587015460a0860152600687015460ff1615159285019290925260078601805495975092959094919392909160e084019190610fa1906136ad565b80601f0160208091040260200160405190810160405280929190818152602001828054610fcd906136ad565b801561101a5780601f10610fef5761010080835404028352916020019161101a565b820191906000526020600020905b815481529060010190602001808311610ffd57829003601f168201915b5050509183525050600882015460208201526009820154604080830191909152600a9092015460ff8082161515606084015261010090910416151560809091015280516310082c7560e01b8152905191925060009173__$f384646973a2e28eb9c0309e741f83a2d9$__91632a51ff38916001600160a01b038816916310082c759160048083019288929190829003018186803b1580156110ba57600080fd5b505afa1580156110ce573d6000803e3d6000fd5b505050506040513d6000823e601f3d908101601f191682016040526110f69190810190612d4c565b602080870151898201518b5188516001600160a01b03908116600090815260079095526040948590205494516001600160e01b031960e089901b1681526111449695909116906004016130c7565b60206040518083038186803b15801561115c57600080fd5b505af4158015611170573d6000803e3d6000fd5b505050506040513d601f19601f820116820180604052508101906111949190612c12565b9050600073__$f384646973a2e28eb9c0309e741f83a2d9$__637731b992866001600160a01b03166310082c756040518163ffffffff1660e01b815260040160006040518083038186803b1580156111eb57600080fd5b505afa1580156111ff573d6000803e3d6000fd5b505050506040513d6000823e601f3d908101601f191682016040526112279190810190612d4c565b602087015160608a0151885160015460405160e087901b6001600160e01b031916815261126b9594939291600160201b90046001600160a01b0316906004016130c7565b60206040518083038186803b15801561128357600080fd5b505af4158015611297573d6000803e3d6000fd5b505050506040513d601f19601f820116820180604052508101906112bb9190612c12565b9050806112f7576000805160206138e983398151915286602001516040516112e391906133a3565b60405180910390a15050505050505061149d565b82516001600160a01b0390811660009081526007602052604090819020549051633de4c18160e21b815273__$f384646973a2e28eb9c0309e741f83a2d9$__9263f79306049261134f928b9289921690600401613113565b60206040518083038186803b15801561136757600080fd5b505af415801561137b573d6000803e3d6000fd5b505050506040513d601f19601f8201168201806040525081019061139f9190612c12565b6113c4576000805160206138e983398151915286602001516040516112e39190613365565b846001600160a01b0316635a3670938760200151886060015187602001518a608001516040518563ffffffff1660e01b815260040161140694939291906133e1565b600060405180830381600087803b15801561142057600080fd5b505af1925050508015611431575060015b6114955761143d613789565b806308c379a01415610c8157506114526137a1565b8061145d5750610c83565b6000805160206138e983398151915287602001518260405161148092919061334c565b60405180910390a1505050505050505061149d565b505050505050505b806114a781613739565b915050610e8b565b6114b981336122fb565b50565b6114c68282610cac565b610506576000828152602081815260408083206001600160a01b03851684529091529020805460ff191660011790556114fc3390565b6001600160a01b0316816001600160a01b0316837f2f8788117e7eff1d82e926ec794901d17c78024a50270940304540a733656f0d60405160405180910390a45050565b61154a8282610cac565b15610506576000828152602081815260408083206001600160a01b0385168085529252808320805460ff1916905551339285917ff6391f5c32d9c69d2a47ea670b442974b53935d1edc7fd64eb21e047a839171b9190a45050565b600354600160a01b900460ff1615806115cd57503360009081526006602052604090205460ff165b61160d5760405162461bcd60e51b815260206004820152601160248201527025b2b2b832b91d103337b93134b23232b760791b60448201526064016104f3565b565b60808101516101c08201516102008301516101e08401516001600160a01b038416600090815260056020526040812054909460609490939092909160ff166116965760006040518060400160405280601d81526020017f526f757465723a20556e617574686f72697a656420636f6e74726163740000008152509550955050505050915091565b86516000908152600460205260409020600a0154610100900460ff16156116df5760006040518060600160405280602581526020016138c4602591399550955050505050915091565b80516040516008916116f091612fab565b9081526040519081900360200190205460ff161561174d5760006040518060400160405280601e81526020017f526f757465723a205369676e617475726520616c7265616479207573656400008152509550955050505050915091565b6020808801516001600160a01b03908116600090815260079092526040918290205491516325ff529760e11b815273__$f384646973a2e28eb9c0309e741f83a2d9$__92634bfea52e926117a9928c92909116906004016131f7565b60206040518083038186803b1580156117c157600080fd5b505af41580156117d5573d6000803e3d6000fd5b505050506040513d601f19601f820116820180604052508101906117f99190612c12565b611825576000604051806060016040528060238152602001613909602391399550955050505050915091565b73__$f384646973a2e28eb9c0309e741f83a2d9$__63b371d25d856001600160a01b03166310082c756040518163ffffffff1660e01b815260040160006040518083038186803b15801561187857600080fd5b505afa15801561188c573d6000803e3d6000fd5b505050506040513d6000823e601f3d908101601f191682016040526118b49190810190612d4c565b6101608a0151602087015187516002546040516001600160e01b031960e088901b1681526118f295949392916001600160a01b0316906004016130c7565b60206040518083038186803b15801561190a57600080fd5b505af415801561191e573d6000803e3d6000fd5b505050506040513d601f19601f820116820180604052508101906119429190612c12565b61198a5760006040518060400160405280601c81526020017b526f757465723a2057726f6e6720736574746c656d656e742066656560201b8152509550955050505050915091565b73__$f384646973a2e28eb9c0309e741f83a2d9$__637731b992856001600160a01b03166310082c756040518163ffffffff1660e01b815260040160006040518083038186803b1580156119dd57600080fd5b505afa1580156119f1573d6000803e3d6000fd5b505050506040513d6000823e601f3d908101601f19168201604052611a199190810190612d4c565b60208501516101408b0151865160015460405160e087901b6001600160e01b0319168152611a5e9594939291600160201b90046001600160a01b0316906004016130c7565b60206040518083038186803b158015611a7657600080fd5b505af4158015611a8a573d6000803e3d6000fd5b505050506040513d601f19601f82011682018060405250810190611aae9190612c12565b611ada57600060405180606001604052806028815260200161392c602891399550955050505050915091565b4283602001511015611b0e576000604051806060016040528060228152602001613875602291399550955050505050915091565b866101800151611b6457600154602082015161ffff90911690611b3190426134df565b1115611b5f576000604051806060016040528060288152602001613954602891399550955050505050915091565b611b99565b866101a00151421115611b9957600060405180606001604052806027815260200161384e602791399550955050505050915091565b60015460208301516201000090910461ffff1690611bb790426134df565b1115611be55760006040518060600160405280602d8152602001613897602d91399550955050505050915091565b60c087015161014088015160a0890151604051631e4c9f7760e11b81526004810193909352602483019190915260448201526001600160a01b03851690633c993eee9060640160206040518083038186803b158015611c4357600080fd5b505afa158015611c57573d6000803e3d6000fd5b505050506040513d601f19601f82011682018060405250810190611c7b9190612c12565b611cc45760006040518060400160405280601e81526020017f526f757465723a20536c697070616765206c696d6974206578636565647300008152509550955050505050915091565b6001604051806020016040528060008152509550955050505050915091565b60808101516102008201516101e0830151604080516379502c5560e01b815290516000916001600160a01b038616916379502c5591600480820192602092909190829003018186803b158015611d3857600080fd5b505afa158015611d4c573d6000803e3d6000fd5b505050506040513d601f19601f82011682018060405250810190611d709190612cc4565b6001600160a01b03166326232a2e6040518163ffffffff1660e01b815260040160206040518083038186803b158015611da857600080fd5b505afa158015611dbc573d6000803e3d6000fd5b505050506040513d601f19601f82011682018060405250810190611de09190612dc9565b90506000806000806040518061012001604052808a60a001518152602001600081526020018a6060015181526020018a60e0015115158152602001868b60400151611e2b91906134df565b81526020018a602001516001600160a01b031681526020018a610100015181526020018a610120015181526020018a61016001518152509050876001600160a01b0316630fb11147828b60c001516040518363ffffffff1660e01b8152600401611e969291906131d5565b606060405180830381600087803b158015611eb057600080fd5b505af1925050508015611ee0575060408051601f3d908101601f19168201909252611edd91810190612de1565b60015b611f6357611eec613789565b806308c379a01415610c815750611f016137a1565b80611f0c5750610c83565b89602001516001600160a01b03167fc804e178cb25d48cffff5de67dd01d385e72784ce35bbc52affad3e13dfa269a8b6000015183604051611f4f92919061334c565b60405180910390a250505050505050505050565b919550935091506000886001600160a01b03166316dc165b6040518163ffffffff1660e01b815260040160206040518083038186803b158015611fa557600080fd5b505afa158015611fb9573d6000803e3d6000fd5b505050506040513d601f19601f82011682018060405250810190611fdd9190612cc4565b60208b0151600354919250612000916001600160a01b038085169291168961235f565b60208a015160808b015161201f916001600160a01b038416918761235f565b6101408a01518252602080830186905288015160405163450aacab60e11b81526000916001600160a01b038c1691638a1559569161206391879189916004016131b0565b602060405180830381600087803b15801561207d57600080fd5b505af1158015612091573d6000803e3d6000fd5b505050506040513d601f19601f820116820180604052508101906120b59190612dc9565b90506040518061018001604052808c602001516001600160a01b031681526020018c6040015181526020018c6060015181526020018c608001516001600160a01b031681526020018c60a0015181526020018c60c0015181526020018c60e00151151581526020018c610100015181526020018c610120015181526020018c610160015181526020018c61018001511515815260200160011515815250600460008d60000151815260200190815260200160002060008201518160000160006101000a8154816001600160a01b0302191690836001600160a01b03160217905550602082015181600101556040820151816002015560608201518160030160006101000a8154816001600160a01b0302191690836001600160a01b031602179055506080820151816004015560a0820151816005015560c08201518160060160006101000a81548160ff02191690831515021790555060e08201518160070190805190602001906122279291906127f4565b50610100828101516008838101919091556101208401516009840155610140840151600a90930180546101609095015161ffff1990951693151561ff0019169390931793151590910292909217905588516040516001929161228891612fab565b9081526040805160209281900383018120805460ff1916941515949094179093558d8201518e5184529183018490526001600160a01b03909116917f46961a5320eafc3fb71b3051774237104d4cec1687a31eed0c32262f0be47902910160405180910390a25050505050505050505050565b6123058282610cac565b6105065761231d816001600160a01b031660146123b9565b6123288360206123b9565b604051602001612339929190612fc7565b60408051601f198184030181529082905262461bcd60e51b82526104f3916004016130b4565b604080516001600160a01b0385811660248301528416604482015260648082018490528251808303909101815260849091019091526020810180516001600160e01b03166323b872dd60e01b179052610ca69085906125a1565b606060006123c88360026134c0565b6123d39060026134a8565b6001600160401b038111156123f857634e487b7160e01b600052604160045260246000fd5b6040519080825280601f01601f191660200182016040528015612422576020820181803683370190505b509050600360fc1b8160008151811061244b57634e487b7160e01b600052603260045260246000fd5b60200101906001600160f81b031916908160001a905350600f60fb1b8160018151811061248857634e487b7160e01b600052603260045260246000fd5b60200101906001600160f81b031916908160001a90535060006124ac8460026134c0565b6124b79060016134a8565b90505b600181111561254b576f181899199a1a9b1b9c1cb0b131b232b360811b85600f16601081106124f957634e487b7160e01b600052603260045260246000fd5b1a60f81b82828151811061251d57634e487b7160e01b600052603260045260246000fd5b60200101906001600160f81b031916908160001a90535060049490941c9361254481613696565b90506124ba565b50831561259a5760405162461bcd60e51b815260206004820181905260248201527f537472696e67733a20686578206c656e67746820696e73756666696369656e7460448201526064016104f3565b9392505050565b60006125f6826040518060400160405280602081526020017f5361666545524332303a206c6f772d6c6576656c2063616c6c206661696c6564815250856001600160a01b03166126739092919063ffffffff16565b80519091501561048257808060200190518101906126149190612c12565b6104825760405162461bcd60e51b815260206004820152602a60248201527f5361666545524332303a204552433230206f7065726174696f6e20646964206e6044820152691bdd081cdd58d8d9595960b21b60648201526084016104f3565b6060612682848460008561268a565b949350505050565b6060824710156126eb5760405162461bcd60e51b815260206004820152602660248201527f416464726573733a20696e73756666696369656e742062616c616e636520666f6044820152651c8818d85b1b60d21b60648201526084016104f3565b6001600160a01b0385163b6127425760405162461bcd60e51b815260206004820152601d60248201527f416464726573733a2063616c6c20746f206e6f6e2d636f6e747261637400000060448201526064016104f3565b600080866001600160a01b0316858760405161275e9190612fab565b60006040518083038185875af1925050503d806000811461279b576040519150601f19603f3d011682016040523d82523d6000602084013e6127a0565b606091505b50915091506127b08282866127bb565b979650505050505050565b606083156127ca57508161259a565b8251156127da5782518084602001fd5b8160405162461bcd60e51b81526004016104f391906130b4565b828054612800906136ad565b90600052602060002090601f0160209004810192826128225760008555612868565b82601f1061283b57805160ff1916838001178555612868565b82800160010185558215612868579182015b8281111561286857825182559160200191906001019061284d565b50612874929150612878565b5090565b5b808211156128745760008155600101612879565b80356128988161382a565b919050565b60008083601f8401126128ae578182fd5b5081356001600160401b038111156128c4578182fd5b6020830191508360208260051b85010111156128df57600080fd5b9250929050565b80356128988161383f565b600082601f830112612901578081fd5b813561290c81613481565b604051612919828261370d565b82815285602084870101111561292d578384fd5b82602086016020830137918201602001929092529392505050565b600060408284031215612959578081fd5b604051612965816136e8565b90508082356001600160401b038082111561297f57600080fd5b61298b868387016129bb565b835260208501359150808211156129a157600080fd5b506129ae85828601612a68565b6020830152505092915050565b600060e082840312156129cc578081fd5b6129d4613429565b905081358152602082013560208201526129f06040830161288d565b604082015260608201356060820152612a0b608083016128e6565b608082015260a08201356001600160401b0380821115612a2a57600080fd5b612a3685838601612a68565b60a084015260c0840135915080821115612a4f57600080fd5b50612a5c84828501612a68565b60c08301525092915050565b600060408284031215612a79578081fd5b604051612a85816136e8565b90508082356001600160401b03811115612a9e57600080fd5b612aaa858286016128f1565b825250602083013560208201525092915050565b600060208284031215612acf578081fd5b813561259a8161382a565b60008060408385031215612aec578081fd5b8235612af78161382a565b91506020830135612b078161383f565b809150509250929050565b60006020808385031215612b24578182fd5b82356001600160401b0380821115612b3a578384fd5b818501915085601f830112612b4d578384fd5b813581811115612b5f57612b5f613773565b8060051b612b6e858201613474565b8281528581019085870183870188018b1015612b88578889fd5b8893505b84841015612bc557803586811115612ba257898afd5b612bb08c8a838b0101612948565b84525060019390930192918701918701612b8c565b509998505050505050505050565b60008060208385031215612be5578182fd5b82356001600160401b03811115612bfa578283fd5b612c068582860161289d565b90969095509350505050565b600060208284031215612c23578081fd5b815161259a8161383f565b600060208284031215612c3f578081fd5b5035919050565b60008060408385031215612c58578182fd5b823591506020830135612b078161382a565b600060208284031215612c7b578081fd5b81356001600160e01b03198116811461259a578182fd5b600060208284031215612ca3578081fd5b81356001600160401b03811115612cb8578182fd5b612682848285016128f1565b600060208284031215612cd5578081fd5b815161259a8161382a565b600080600080600080600080610100898b031215612cfc578384fd5b885160048110612d0a578485fd5b809850506020890151965060408901519550606089015194506080890151935060a0890151925060c0890151915060e089015190509295985092959890939650565b600060208284031215612d5d578081fd5b81516001600160401b03811115612d72578182fd5b8201601f81018413612d82578182fd5b8051612d8d81613481565b604051612d9a828261370d565b828152866020848601011115612dae578485fd5b612dbf83602083016020870161366a565b9695505050505050565b600060208284031215612dda578081fd5b5051919050565b600080600060608486031215612df5578081fd5b83519250602084015191506040840151612e0e8161383f565b809150509250925092565b6001600160a01b03169052565b60008151808452612e3e81602086016020860161366a565b601f01601f19169290920160200192915050565b60006101208251845260208301516020850152604083015160408501526060830151151560608501526080830151608085015260a0830151612e9760a0860182612e19565b5060c08301518160c0860152612eaf82860182612e26565b60e08581015190870152610100948501519490950193909352509192915050565b6000610180612ee0848451612e19565b60208301516020850152604083015160408501526060830151612f066060860182612e19565b506080830151608085015260a083015160a085015260c0830151612f2e60c086018215159052565b5060e08301518160e0860152612f4682860182612e26565b61010085810151908701526101208086015190870152610140808601511515908701526101609485015115159490950193909352509192915050565b6000815160408452612f976040850182612e26565b602093840151949093019390935250919050565b60008251612fbd81846020870161366a565b9190910192915050565b76020b1b1b2b9b9a1b7b73a3937b61d1030b1b1b7bab73a1604d1b815260008351612ff981601785016020880161366a565b7001034b99036b4b9b9b4b733903937b6329607d1b601791840191820152835161302a81602884016020880161366a565b01602801949350505050565b600060018060a01b03808f1683528d60208401528c6040840152808c166060840152508960808301528860a083015287151560c083015261018060e0830152613083610180830188612e26565b6101008301969096525061012081019390935290151561014083015215156101609091015298975050505050505050565b60208152600061259a6020830184612e26565b60a0815260006130da60a0830188612e26565b86602084015285604084015282810360608401526130f88186612e26565b91505060018060a01b03831660808301529695505050505050565b60608152835160608201526020840151608082015260018060a01b0360408501511660a0820152606084015160c08201526080840151151560e0820152600060a085015160e061010084015261316d610140840182612f82565b905060c0860151605f198483030161012085015261318b8282612f82565b91505082810360208401526131a08186612ed0565b9150506126826040830184612e19565b6060815260006131c36060830186612e52565b93151560208301525060400152919050565b6040815260006131e86040830185612e52565b90508260208301529392505050565b6040815282516040820152600060208401516132166060840182612e19565b5060408401516080830152606084015160a0830152608084015161323d60c0840182612e19565b5060a084015160e083015260c0840151610100818185015260e0860151915061012061326c8186018415159052565b8187015192506102209150610140828187015261328d610260870185612e26565b91880151610160878101919091529088015161018080880191909152908801516101a080880191909152908801519193506101c0906132cf8288018415159052565b808901519250506101e08281880152818901519250603f1991506102008288870301818901526132ff8685612f82565b9550818a0151935082888703018589015261331a8685612f82565b9550808a0151945050508086850301610240870152505061333b8282612f82565b9250505061259a6020830184612e19565b8281526040602082015260006126826040830184612e26565b908152604060208201819052601e908201527f526f757465723a2057726f6e67206d61726b657420646972656374696f6e0000606082015260800190565b908152604060208201819052601e908201527f526f757465723a205369676e6174757265206469646e2774206d617463680000606082015260800190565b938452602084019290925260408301521515606082015260800190565b6000823560de19833603018112612fbd578182fd5b6000823561021e19833603018112612fbd578182fd5b60405160e081016001600160401b038111828210171561344b5761344b613773565b60405290565b60405161022081016001600160401b038111828210171561344b5761344b613773565b604051612898828261370d565b60006001600160401b0382111561349a5761349a613773565b50601f01601f191660200190565b600082198211156134bb576134bb61375d565b500190565b60008160001904831182151516156134da576134da61375d565b500290565b6000828210156134f1576134f161375d565b500390565b60006103dc36836129bb565b60006102208236031215613514578081fd5b61351c613451565b8235815261352c6020840161288d565b602082015260408301356040820152606083013560608201526135516080840161288d565b608082015260a083013560a082015260c083013560c082015261357660e084016128e6565b60e0820152610100838101356001600160401b0380821115613596578485fd5b6135a2368388016128f1565b92840192909252610120858101359084015261014080860135908401526101608086013590840152610180916135d98387016128e6565b838501526101a0925082860135838501526101c0925082860135915080821115613601578485fd5b61360d36838801612a68565b838501526101e0925082860135915080821115613628578485fd5b61363436838801612a68565b8385015261020092508286013591508082111561364f578485fd5b5061365c36828701612a68565b918301919091525092915050565b60005b8381101561368557818101518382015260200161366d565b83811115610ca65750506000910152565b6000816136a5576136a561375d565b506000190190565b600181811c908216806136c157607f821691505b602082108114156136e257634e487b7160e01b600052602260045260246000fd5b50919050565b604081016001600160401b038111828210171561370757613707613773565b60405250565b601f8201601f191681016001600160401b038111828210171561373257613732613773565b6040525050565b600063ffffffff808316818114156137535761375361375d565b6001019392505050565b634e487b7160e01b600052601160045260246000fd5b634e487b7160e01b600052604160045260246000fd5b600060033d111561379e57600481823e5160e01c5b90565b600060443d10156137af5790565b6040516003193d81016004833e81513d6001600160401b0380831160248401831017156137de57505050505090565b82850191508151818111156137f65750505050505090565b843d87010160208285010111156138105750505050505090565b61381f6020828601018761370d565b509095945050505050565b6001600160a01b03811681146114b957600080fd5b80151581146114b957600080fdfe526f757465723a204c696d6974206f726465722068617320616c72656164792065787069726564526f757465723a20536574746c656d656e7420666565206861732065787069726564526f757465723a20496e76616c6964207075626c6973686572207369676e61747572652074696d657374616d70526f757465723a2054726164652068617320616c7265616479206265656e206f70656e6564312ffa36dda8ceca985bf8d5ca545c4fb764ddca604f4ba5088109da0b9465f3526f757465723a2055736572207369676e6174757265206469646e2774206d61746368526f757465723a205075626c6973686572207369676e6174757265206469646e2774206d61746368526f757465723a20496e76616c69642075736572207369676e61747572652074696d657374616d70a26469706673582212208881b8cd32d25b58d0de9dbba4fed286c3f3628cec01f10704cd6780fb709e5f64736f6c63430008040033",
  "language": "Solidity",
  "natspec": {
    "author": "Heisenberg",
    "kind": "dev",
    "methods": {
      "getRoleAdmin(bytes32)": {
        "details": "Returns the admin role that controls `role`. See {grantRole} and {revokeRole}. To change a role's admin, use {_setRoleAdmin}."
      },
      "grantRole(bytes32,address)": {
        "details": "Grants `role` to `account`. If `account` had not been already granted `role`, emits a {RoleGranted} event. Requirements: - the caller must have ``role``'s admin role. May emit a {RoleGranted} event."
      },
      "hasRole(bytes32,address)": {
        "details": "Returns `true` if `account` has been granted `role`."
      },
      "renounceRole(bytes32,address)": {
        "details": "Revokes `role` from the calling account. Roles are often managed via {grantRole} and {revokeRole}: this function's purpose is to provide a mechanism for accounts to lose their privileges if they are compromised (such as when a trusted device is misplaced). If the calling account had been revoked `role`, emits a {RoleRevoked} event. Requirements: - the caller must be `account`. May emit a {RoleRevoked} event."
      },
      "revokeRole(bytes32,address)": {
        "details": "Revokes `role` from `account`. If `account` had been granted `role`, emits a {RoleRevoked} event. Requirements: - the caller must have ``role``'s admin role. May emit a {RoleRevoked} event."
      },
      "supportsInterface(bytes4)": {
        "details": "See {IERC165-supportsInterface}."
      }
    },
    "notice": "Buffer Options Router Contract",
    "version": 1
  },
  "opcodes": "PUSH1 0x80 PUSH1 0x40 MSTORE CALLVALUE DUP1 ISZERO PUSH2 0x10 JUMPI PUSH1 0x0 DUP1 REVERT JUMPDEST POP PUSH1 0x4 CALLDATASIZE LT PUSH2 0x128 JUMPI PUSH1 0x0 CALLDATALOAD PUSH1 0xE0 SHR DUP1 PUSH4 0x1FFC9A7 EQ PUSH2 0x12D JUMPI DUP1 PUSH4 0x248A9CA3 EQ PUSH2 0x155 JUMPI DUP1 PUSH4 0x2661FFB6 EQ PUSH2 0x176 JUMPI DUP1 PUSH4 0x2F2FF15D EQ PUSH2 0x18B JUMPI DUP1 PUSH4 0x36568ABE EQ PUSH2 0x19E JUMPI DUP1 PUSH4 0x4E0E1148 EQ PUSH2 0x1B1 JUMPI DUP1 PUSH4 0x56D87EBB EQ PUSH2 0x1C4 JUMPI DUP1 PUSH4 0x58F8025C EQ PUSH2 0x1CC JUMPI DUP1 PUSH4 0x6BA42AAA EQ PUSH2 0x1D4 JUMPI DUP1 PUSH4 0x7323A1FD EQ PUSH2 0x1F7 JUMPI DUP1 PUSH4 0x7B830FFF EQ PUSH2 0x20A JUMPI DUP1 PUSH4 0x8C72C54E EQ PUSH2 0x238 JUMPI DUP1 PUSH4 0x91D14854 EQ PUSH2 0x26A JUMPI DUP1 PUSH4 0x97C414DF EQ PUSH2 0x27D JUMPI DUP1 PUSH4 0xA217FDDF EQ PUSH2 0x290 JUMPI DUP1 PUSH4 0xAE56C6CD EQ PUSH2 0x298 JUMPI DUP1 PUSH4 0xB96477A1 EQ PUSH2 0x2C3 JUMPI DUP1 PUSH4 0xC02D4B83 EQ PUSH2 0x2D6 JUMPI DUP1 PUSH4 0xD1B9E853 EQ PUSH2 0x2EA JUMPI DUP1 PUSH4 0xD547741F EQ PUSH2 0x2FD JUMPI DUP1 PUSH4 0xE0B28D22 EQ PUSH2 0x310 JUMPI DUP1 PUSH4 0xE4855C73 EQ PUSH2 0x362 JUMPI DUP1 PUSH4 0xED111B06 EQ PUSH2 0x375 JUMPI DUP1 PUSH4 0xF851A440 EQ PUSH2 0x398 JUMPI JUMPDEST PUSH1 0x0 DUP1 REVERT JUMPDEST PUSH2 0x140 PUSH2 0x13B CALLDATASIZE PUSH1 0x4 PUSH2 0x2C6A JUMP JUMPDEST PUSH2 0x3AB JUMP JUMPDEST PUSH1 0x40 MLOAD SWAP1 ISZERO ISZERO DUP2 MSTORE PUSH1 0x20 ADD JUMPDEST PUSH1 0x40 MLOAD DUP1 SWAP2 SUB SWAP1 RETURN JUMPDEST PUSH2 0x168 PUSH2 0x163 CALLDATASIZE PUSH1 0x4 PUSH2 0x2C2E JUMP JUMPDEST PUSH2 0x3E2 JUMP JUMPDEST PUSH1 0x40 MLOAD SWAP1 DUP2 MSTORE PUSH1 0x20 ADD PUSH2 0x14C JUMP JUMPDEST PUSH2 0x189 PUSH2 0x184 CALLDATASIZE PUSH1 0x4 PUSH2 0x2ADA JUMP JUMPDEST PUSH2 0x3F7 JUMP JUMPDEST STOP JUMPDEST PUSH2 0x189 PUSH2 0x199 CALLDATASIZE PUSH1 0x4 PUSH2 0x2C46 JUMP JUMPDEST PUSH2 0x466 JUMP JUMPDEST PUSH2 0x189 PUSH2 0x1AC CALLDATASIZE PUSH1 0x4 PUSH2 0x2C46 JUMP JUMPDEST PUSH2 0x487 JUMP JUMPDEST PUSH2 0x189 PUSH2 0x1BF CALLDATASIZE PUSH1 0x4 PUSH2 0x2BD3 JUMP JUMPDEST PUSH2 0x50A JUMP JUMPDEST PUSH2 0x189 PUSH2 0x5DE JUMP JUMPDEST PUSH2 0x189 PUSH2 0x648 JUMP JUMPDEST PUSH2 0x140 PUSH2 0x1E2 CALLDATASIZE PUSH1 0x4 PUSH2 0x2ABE JUMP JUMPDEST PUSH1 0x6 PUSH1 0x20 MSTORE PUSH1 0x0 SWAP1 DUP2 MSTORE PUSH1 0x40 SWAP1 KECCAK256 SLOAD PUSH1 0xFF AND DUP2 JUMP JUMPDEST PUSH2 0x189 PUSH2 0x205 CALLDATASIZE PUSH1 0x4 PUSH2 0x2BD3 JUMP JUMPDEST PUSH2 0x675 JUMP JUMPDEST PUSH2 0x140 PUSH2 0x218 CALLDATASIZE PUSH1 0x4 PUSH2 0x2C92 JUMP JUMPDEST DUP1 MLOAD PUSH1 0x20 DUP2 DUP4 ADD DUP2 ADD DUP1 MLOAD PUSH1 0x8 DUP3 MSTORE SWAP3 DUP3 ADD SWAP2 SWAP1 SWAP4 ADD KECCAK256 SWAP2 MSTORE SLOAD PUSH1 0xFF AND DUP2 JUMP JUMPDEST PUSH1 0x1 SLOAD PUSH2 0x252 SWAP1 PUSH1 0x1 PUSH1 0x20 SHL SWAP1 DIV PUSH1 0x1 PUSH1 0x1 PUSH1 0xA0 SHL SUB AND DUP2 JUMP JUMPDEST PUSH1 0x40 MLOAD PUSH1 0x1 PUSH1 0x1 PUSH1 0xA0 SHL SUB SWAP1 SWAP2 AND DUP2 MSTORE PUSH1 0x20 ADD PUSH2 0x14C JUMP JUMPDEST PUSH2 0x140 PUSH2 0x278 CALLDATASIZE PUSH1 0x4 PUSH2 0x2C46 JUMP JUMPDEST PUSH2 0xCAC JUMP JUMPDEST PUSH2 0x189 PUSH2 0x28B CALLDATASIZE PUSH1 0x4 PUSH2 0x2ABE JUMP JUMPDEST PUSH2 0xCD5 JUMP JUMPDEST PUSH2 0x168 PUSH1 0x0 DUP2 JUMP JUMPDEST PUSH2 0x2AB PUSH2 0x2A6 CALLDATASIZE PUSH1 0x4 PUSH2 0x2C2E JUMP JUMPDEST PUSH2 0xD2C JUMP JUMPDEST PUSH1 0x40 MLOAD PUSH2 0x14C SWAP13 SWAP12 SWAP11 SWAP10 SWAP9 SWAP8 SWAP7 SWAP6 SWAP5 SWAP4 SWAP3 SWAP2 SWAP1 PUSH2 0x3036 JUMP JUMPDEST PUSH1 0x2 SLOAD PUSH2 0x252 SWAP1 PUSH1 0x1 PUSH1 0x1 PUSH1 0xA0 SHL SUB AND DUP2 JUMP JUMPDEST PUSH1 0x3 SLOAD PUSH2 0x140 SWAP1 PUSH1 0x1 PUSH1 0xA0 SHL SWAP1 DIV PUSH1 0xFF AND DUP2 JUMP JUMPDEST PUSH2 0x189 PUSH2 0x2F8 CALLDATASIZE PUSH1 0x4 PUSH2 0x2ADA JUMP JUMPDEST PUSH2 0xE2D JUMP JUMPDEST PUSH2 0x189 PUSH2 0x30B CALLDATASIZE PUSH1 0x4 PUSH2 0x2C46 JUMP JUMPDEST PUSH2 0xE64 JUMP JUMPDEST PUSH2 0x343 PUSH2 0x31E CALLDATASIZE PUSH1 0x4 PUSH2 0x2ABE JUMP JUMPDEST PUSH1 0x7 PUSH1 0x20 MSTORE PUSH1 0x0 SWAP1 DUP2 MSTORE PUSH1 0x40 SWAP1 KECCAK256 DUP1 SLOAD PUSH1 0x1 SWAP1 SWAP2 ADD SLOAD PUSH1 0x1 PUSH1 0x1 PUSH1 0xA0 SHL SUB SWAP1 SWAP2 AND SWAP1 DUP3 JUMP JUMPDEST PUSH1 0x40 DUP1 MLOAD PUSH1 0x1 PUSH1 0x1 PUSH1 0xA0 SHL SUB SWAP1 SWAP4 AND DUP4 MSTORE PUSH1 0x20 DUP4 ADD SWAP2 SWAP1 SWAP2 MSTORE ADD PUSH2 0x14C JUMP JUMPDEST PUSH2 0x189 PUSH2 0x370 CALLDATASIZE PUSH1 0x4 PUSH2 0x2B12 JUMP JUMPDEST PUSH2 0xE80 JUMP JUMPDEST PUSH2 0x140 PUSH2 0x383 CALLDATASIZE PUSH1 0x4 PUSH2 0x2ABE JUMP JUMPDEST PUSH1 0x5 PUSH1 0x20 MSTORE PUSH1 0x0 SWAP1 DUP2 MSTORE PUSH1 0x40 SWAP1 KECCAK256 SLOAD PUSH1 0xFF AND DUP2 JUMP JUMPDEST PUSH1 0x3 SLOAD PUSH2 0x252 SWAP1 PUSH1 0x1 PUSH1 0x1 PUSH1 0xA0 SHL SUB AND DUP2 JUMP JUMPDEST PUSH1 0x0 PUSH1 0x1 PUSH1 0x1 PUSH1 0xE0 SHL SUB NOT DUP3 AND PUSH4 0x7965DB0B PUSH1 0xE0 SHL EQ DUP1 PUSH2 0x3DC JUMPI POP PUSH4 0x1FFC9A7 PUSH1 0xE0 SHL PUSH1 0x1 PUSH1 0x1 PUSH1 0xE0 SHL SUB NOT DUP4 AND EQ JUMPDEST SWAP3 SWAP2 POP POP JUMP JUMPDEST PUSH1 0x0 SWAP1 DUP2 MSTORE PUSH1 0x20 DUP2 SWAP1 MSTORE PUSH1 0x40 SWAP1 KECCAK256 PUSH1 0x1 ADD SLOAD SWAP1 JUMP JUMPDEST PUSH1 0x0 PUSH2 0x402 DUP2 PUSH2 0x14AF JUMP JUMPDEST PUSH1 0x1 PUSH1 0x1 PUSH1 0xA0 SHL SUB DUP4 AND PUSH1 0x0 DUP2 DUP2 MSTORE PUSH1 0x5 PUSH1 0x20 SWAP1 DUP2 MSTORE PUSH1 0x40 SWAP2 DUP3 SWAP1 KECCAK256 DUP1 SLOAD PUSH1 0xFF NOT AND DUP7 ISZERO ISZERO SWAP1 DUP2 OR SWAP1 SWAP2 SSTORE DUP3 MLOAD SWAP4 DUP5 MSTORE SWAP1 DUP4 ADD MSTORE PUSH32 0xF6FC89E1145FE908049B09637F4F4CE148A3FBF26F03585BCA63FB6A2A8557F8 SWAP2 ADD PUSH1 0x40 MLOAD DUP1 SWAP2 SUB SWAP1 LOG1 POP POP POP JUMP JUMPDEST PUSH2 0x46F DUP3 PUSH2 0x3E2 JUMP JUMPDEST PUSH2 0x478 DUP2 PUSH2 0x14AF JUMP JUMPDEST PUSH2 0x482 DUP4 DUP4 PUSH2 0x14BC JUMP JUMPDEST POP POP POP JUMP JUMPDEST PUSH1 0x1 PUSH1 0x1 PUSH1 0xA0 SHL SUB DUP2 AND CALLER EQ PUSH2 0x4FC JUMPI PUSH1 0x40 MLOAD PUSH3 0x461BCD PUSH1 0xE5 SHL DUP2 MSTORE PUSH1 0x20 PUSH1 0x4 DUP3 ADD MSTORE PUSH1 0x2F PUSH1 0x24 DUP3 ADD MSTORE PUSH32 0x416363657373436F6E74726F6C3A2063616E206F6E6C792072656E6F756E6365 PUSH1 0x44 DUP3 ADD MSTORE PUSH15 0x103937B632B9903337B91039B2B633 PUSH1 0x89 SHL PUSH1 0x64 DUP3 ADD MSTORE PUSH1 0x84 ADD JUMPDEST PUSH1 0x40 MLOAD DUP1 SWAP2 SUB SWAP1 REVERT JUMPDEST PUSH2 0x506 DUP3 DUP3 PUSH2 0x1540 JUMP JUMPDEST POP POP JUMP JUMPDEST PUSH2 0x512 PUSH2 0x15A5 JUMP JUMPDEST PUSH1 0x0 JUMPDEST PUSH4 0xFFFFFFFF DUP2 AND DUP3 GT ISZERO PUSH2 0x482 JUMPI PUSH1 0x0 DUP4 DUP4 DUP4 PUSH4 0xFFFFFFFF AND DUP2 DUP2 LT PUSH2 0x54B JUMPI PUSH4 0x4E487B71 PUSH1 0xE0 SHL PUSH1 0x0 MSTORE PUSH1 0x32 PUSH1 0x4 MSTORE PUSH1 0x24 PUSH1 0x0 REVERT JUMPDEST SWAP1 POP PUSH1 0x20 MUL DUP2 ADD SWAP1 PUSH2 0x55D SWAP2 SWAP1 PUSH2 0x3413 JUMP JUMPDEST PUSH2 0x566 SWAP1 PUSH2 0x3502 JUMP JUMPDEST SWAP1 POP PUSH1 0x0 DUP1 PUSH2 0x574 DUP4 PUSH2 0x160F JUMP JUMPDEST SWAP2 POP SWAP2 POP DUP2 PUSH2 0x5BF JUMPI DUP3 MLOAD PUSH1 0x40 MLOAD PUSH32 0x540144F033B0C98241D6B8C9481755C9FDCA47EE01D3AB4E4B14C6AEDA805BE5 SWAP2 PUSH2 0x5AF SWAP2 DUP5 SWAP1 PUSH2 0x334C JUMP JUMPDEST PUSH1 0x40 MLOAD DUP1 SWAP2 SUB SWAP1 LOG1 POP POP POP PUSH2 0x5CC JUMP JUMPDEST PUSH2 0x5C8 DUP4 PUSH2 0x1CE3 JUMP JUMPDEST POP POP POP JUMPDEST DUP1 PUSH2 0x5D6 DUP2 PUSH2 0x3739 JUMP JUMPDEST SWAP2 POP POP PUSH2 0x515 JUMP JUMPDEST PUSH1 0x40 DUP1 MLOAD DUP1 DUP3 ADD DUP3 MSTORE PUSH1 0x0 DUP1 DUP3 MSTORE CALLER DUP2 MSTORE PUSH1 0x7 PUSH1 0x20 SWAP1 DUP2 MSTORE SWAP3 SWAP1 KECCAK256 PUSH1 0x1 SWAP1 DUP2 ADD SLOAD SWAP2 SWAP3 DUP4 ADD SWAP2 PUSH2 0x60D SWAP2 PUSH2 0x34A8 JUMP JUMPDEST SWAP1 MSTORE CALLER PUSH1 0x0 SWAP1 DUP2 MSTORE PUSH1 0x7 PUSH1 0x20 SWAP1 DUP2 MSTORE PUSH1 0x40 SWAP1 SWAP2 KECCAK256 DUP3 MLOAD DUP2 SLOAD PUSH1 0x1 PUSH1 0x1 PUSH1 0xA0 SHL SUB NOT AND PUSH1 0x1 PUSH1 0x1 PUSH1 0xA0 SHL SUB SWAP1 SWAP2 AND OR DUP2 SSTORE SWAP2 ADD MLOAD PUSH1 0x1 SWAP1 SWAP2 ADD SSTORE JUMP JUMPDEST PUSH1 0x0 PUSH2 0x653 DUP2 PUSH2 0x14AF JUMP JUMPDEST POP PUSH1 0x3 DUP1 SLOAD PUSH1 0xFF PUSH1 0xA0 SHL NOT DUP2 AND PUSH1 0x1 PUSH1 0xA0 SHL SWAP2 DUP3 SWAP1 DIV PUSH1 0xFF AND ISZERO SWAP1 SWAP2 MUL OR SWAP1 SSTORE JUMP JUMPDEST PUSH2 0x67D PUSH2 0x15A5 JUMP JUMPDEST DUP1 PUSH1 0x0 JUMPDEST DUP2 PUSH4 0xFFFFFFFF AND DUP2 PUSH4 0xFFFFFFFF AND LT ISZERO PUSH2 0xCA6 JUMPI PUSH1 0x0 DUP5 DUP5 DUP4 PUSH4 0xFFFFFFFF AND DUP2 DUP2 LT PUSH2 0x6BD JUMPI PUSH4 0x4E487B71 PUSH1 0xE0 SHL PUSH1 0x0 MSTORE PUSH1 0x32 PUSH1 0x4 MSTORE PUSH1 0x24 PUSH1 0x0 REVERT JUMPDEST SWAP1 POP PUSH1 0x20 MUL DUP2 ADD SWAP1 PUSH2 0x6CF SWAP2 SWAP1 PUSH2 0x33FE JUMP JUMPDEST PUSH2 0x6D8 SWAP1 PUSH2 0x34F6 JUMP JUMPDEST PUSH1 0x40 DUP2 DUP2 ADD MLOAD PUSH1 0x20 DUP4 ADD MLOAD SWAP2 MLOAD PUSH4 0x409E2205 PUSH1 0xE0 SHL DUP2 MSTORE PUSH1 0x4 DUP2 ADD SWAP3 SWAP1 SWAP3 MSTORE SWAP2 SWAP3 POP PUSH1 0x0 SWAP1 PUSH1 0x1 PUSH1 0x1 PUSH1 0xA0 SHL SUB DUP4 AND SWAP1 PUSH4 0x409E2205 SWAP1 PUSH1 0x24 ADD PUSH2 0x100 PUSH1 0x40 MLOAD DUP1 DUP4 SUB DUP2 DUP7 DUP1 EXTCODESIZE ISZERO DUP1 ISZERO PUSH2 0x72A JUMPI PUSH1 0x0 DUP1 REVERT JUMPDEST POP GAS STATICCALL ISZERO DUP1 ISZERO PUSH2 0x73E JUMPI RETURNDATASIZE PUSH1 0x0 DUP1 RETURNDATACOPY RETURNDATASIZE PUSH1 0x0 REVERT JUMPDEST POP POP POP POP PUSH1 0x40 MLOAD RETURNDATASIZE PUSH1 0x1F NOT PUSH1 0x1F DUP3 ADD AND DUP3 ADD DUP1 PUSH1 0x40 MSTORE POP DUP2 ADD SWAP1 PUSH2 0x762 SWAP2 SWAP1 PUSH2 0x2CE0 JUMP JUMPDEST POP POP SWAP6 POP POP POP POP POP POP PUSH1 0x0 DUP4 PUSH1 0xC0 ADD MLOAD SWAP1 POP PUSH1 0x0 PUSH20 0x0 PUSH4 0x7731B992 DUP6 PUSH1 0x1 PUSH1 0x1 PUSH1 0xA0 SHL SUB AND PUSH4 0x10082C75 PUSH1 0x40 MLOAD DUP2 PUSH4 0xFFFFFFFF AND PUSH1 0xE0 SHL DUP2 MSTORE PUSH1 0x4 ADD PUSH1 0x0 PUSH1 0x40 MLOAD DUP1 DUP4 SUB DUP2 DUP7 DUP1 EXTCODESIZE ISZERO DUP1 ISZERO PUSH2 0x7C9 JUMPI PUSH1 0x0 DUP1 REVERT JUMPDEST POP GAS STATICCALL ISZERO DUP1 ISZERO PUSH2 0x7DD JUMPI RETURNDATASIZE PUSH1 0x0 DUP1 RETURNDATACOPY RETURNDATASIZE PUSH1 0x0 REVERT JUMPDEST POP POP POP POP PUSH1 0x40 MLOAD RETURNDATASIZE PUSH1 0x0 DUP3 RETURNDATACOPY PUSH1 0x1F RETURNDATASIZE SWAP1 DUP2 ADD PUSH1 0x1F NOT AND DUP3 ADD PUSH1 0x40 MSTORE PUSH2 0x805 SWAP2 SWAP1 DUP2 ADD SWAP1 PUSH2 0x2D4C JUMP JUMPDEST PUSH1 0x20 DUP6 ADD MLOAD PUSH1 0x60 DUP10 ADD MLOAD DUP7 MLOAD PUSH1 0x1 SLOAD PUSH1 0x40 MLOAD PUSH1 0xE0 DUP8 SWAP1 SHL PUSH1 0x1 PUSH1 0x1 PUSH1 0xE0 SHL SUB NOT AND DUP2 MSTORE PUSH2 0x849 SWAP6 SWAP5 SWAP4 SWAP3 SWAP2 PUSH1 0x1 PUSH1 0x20 SHL SWAP1 DIV PUSH1 0x1 PUSH1 0x1 PUSH1 0xA0 SHL SUB AND SWAP1 PUSH1 0x4 ADD PUSH2 0x30C7 JUMP JUMPDEST PUSH1 0x20 PUSH1 0x40 MLOAD DUP1 DUP4 SUB DUP2 DUP7 DUP1 EXTCODESIZE ISZERO DUP1 ISZERO PUSH2 0x861 JUMPI PUSH1 0x0 DUP1 REVERT JUMPDEST POP GAS DELEGATECALL ISZERO DUP1 ISZERO PUSH2 0x875 JUMPI RETURNDATASIZE PUSH1 0x0 DUP1 RETURNDATACOPY RETURNDATASIZE PUSH1 0x0 REVERT JUMPDEST POP POP POP POP PUSH1 0x40 MLOAD RETURNDATASIZE PUSH1 0x1F NOT PUSH1 0x1F DUP3 ADD AND DUP3 ADD DUP1 PUSH1 0x40 MSTORE POP DUP2 ADD SWAP1 PUSH2 0x899 SWAP2 SWAP1 PUSH2 0x2C12 JUMP JUMPDEST SWAP1 POP DUP1 PUSH2 0x8D3 JUMPI PUSH1 0x0 DUP1 MLOAD PUSH1 0x20 PUSH2 0x38E9 DUP4 CODECOPY DUP2 MLOAD SWAP2 MSTORE DUP6 PUSH1 0x20 ADD MLOAD PUSH1 0x40 MLOAD PUSH2 0x8C1 SWAP2 SWAP1 PUSH2 0x33A3 JUMP JUMPDEST PUSH1 0x40 MLOAD DUP1 SWAP2 SUB SWAP1 LOG1 POP POP POP POP POP PUSH2 0xC94 JUMP JUMPDEST DUP5 MLOAD PUSH1 0x0 SWAP1 DUP2 MSTORE PUSH1 0x4 PUSH1 0x20 DUP2 DUP2 MSTORE PUSH1 0x40 DUP1 DUP5 KECCAK256 DUP2 MLOAD PUSH2 0x180 DUP2 ADD DUP4 MSTORE DUP2 SLOAD PUSH1 0x1 PUSH1 0x1 PUSH1 0xA0 SHL SUB SWAP1 DUP2 AND DUP3 MSTORE PUSH1 0x1 DUP4 ADD SLOAD SWAP5 DUP3 ADD SWAP5 SWAP1 SWAP5 MSTORE PUSH1 0x2 DUP3 ADD SLOAD SWAP3 DUP2 ADD SWAP3 SWAP1 SWAP3 MSTORE PUSH1 0x3 DUP2 ADD SLOAD SWAP1 SWAP3 AND PUSH1 0x60 DUP3 ADD MSTORE SWAP2 DUP2 ADD SLOAD PUSH1 0x80 DUP4 ADD MSTORE PUSH1 0x5 DUP2 ADD SLOAD PUSH1 0xA0 DUP4 ADD MSTORE PUSH1 0x6 DUP2 ADD SLOAD PUSH1 0xFF AND ISZERO ISZERO PUSH1 0xC0 DUP4 ADD MSTORE PUSH1 0x7 DUP2 ADD DUP1 SLOAD PUSH1 0xE0 DUP5 ADD SWAP2 SWAP1 PUSH2 0x95A SWAP1 PUSH2 0x36AD JUMP JUMPDEST DUP1 PUSH1 0x1F ADD PUSH1 0x20 DUP1 SWAP2 DIV MUL PUSH1 0x20 ADD PUSH1 0x40 MLOAD SWAP1 DUP2 ADD PUSH1 0x40 MSTORE DUP1 SWAP3 SWAP2 SWAP1 DUP2 DUP2 MSTORE PUSH1 0x20 ADD DUP3 DUP1 SLOAD PUSH2 0x986 SWAP1 PUSH2 0x36AD JUMP JUMPDEST DUP1 ISZERO PUSH2 0x9D3 JUMPI DUP1 PUSH1 0x1F LT PUSH2 0x9A8 JUMPI PUSH2 0x100 DUP1 DUP4 SLOAD DIV MUL DUP4 MSTORE SWAP2 PUSH1 0x20 ADD SWAP2 PUSH2 0x9D3 JUMP JUMPDEST DUP3 ADD SWAP2 SWAP1 PUSH1 0x0 MSTORE PUSH1 0x20 PUSH1 0x0 KECCAK256 SWAP1 JUMPDEST DUP2 SLOAD DUP2 MSTORE SWAP1 PUSH1 0x1 ADD SWAP1 PUSH1 0x20 ADD DUP1 DUP4 GT PUSH2 0x9B6 JUMPI DUP3 SWAP1 SUB PUSH1 0x1F AND DUP3 ADD SWAP2 JUMPDEST POP POP POP SWAP2 DUP4 MSTORE POP POP PUSH1 0x8 DUP3 ADD SLOAD PUSH1 0x20 DUP1 DUP4 ADD SWAP2 SWAP1 SWAP2 MSTORE PUSH1 0x9 DUP4 ADD SLOAD PUSH1 0x40 DUP1 DUP5 ADD SWAP2 SWAP1 SWAP2 MSTORE PUSH1 0xA SWAP1 SWAP4 ADD SLOAD PUSH1 0xFF DUP1 DUP3 AND ISZERO ISZERO PUSH1 0x60 DUP6 ADD MSTORE PUSH2 0x100 SWAP1 SWAP2 DIV AND ISZERO ISZERO PUSH1 0x80 SWAP1 SWAP3 ADD SWAP2 SWAP1 SWAP2 MSTORE DUP3 MLOAD PUSH1 0x1 PUSH1 0x1 PUSH1 0xA0 SHL SUB SWAP1 DUP2 AND PUSH1 0x0 SWAP1 DUP2 MSTORE PUSH1 0x7 SWAP1 SWAP3 MSTORE SWAP1 DUP3 SWAP1 KECCAK256 SLOAD SWAP2 MLOAD PUSH4 0x3DE4C181 PUSH1 0xE2 SHL DUP2 MSTORE SWAP3 SWAP4 POP PUSH20 0x0 SWAP3 PUSH4 0xF7930604 SWAP3 PUSH2 0xA76 SWAP3 DUP12 SWAP3 DUP8 SWAP3 SWAP1 SWAP2 AND SWAP1 PUSH1 0x4 ADD PUSH2 0x3113 JUMP JUMPDEST PUSH1 0x20 PUSH1 0x40 MLOAD DUP1 DUP4 SUB DUP2 DUP7 DUP1 EXTCODESIZE ISZERO DUP1 ISZERO PUSH2 0xA8E JUMPI PUSH1 0x0 DUP1 REVERT JUMPDEST POP GAS DELEGATECALL ISZERO DUP1 ISZERO PUSH2 0xAA2 JUMPI RETURNDATASIZE PUSH1 0x0 DUP1 RETURNDATACOPY RETURNDATASIZE PUSH1 0x0 REVERT JUMPDEST POP POP POP POP PUSH1 0x40 MLOAD RETURNDATASIZE PUSH1 0x1F NOT PUSH1 0x1F DUP3 ADD AND DUP3 ADD DUP1 PUSH1 0x40 MSTORE POP DUP2 ADD SWAP1 PUSH2 0xAC6 SWAP2 SWAP1 PUSH2 0x2C12 JUMP JUMPDEST PUSH2 0xAFE JUMPI PUSH1 0x0 DUP1 MLOAD PUSH1 0x20 PUSH2 0x38E9 DUP4 CODECOPY DUP2 MLOAD SWAP2 MSTORE DUP7 PUSH1 0x20 ADD MLOAD PUSH1 0x40 MLOAD PUSH2 0xAEB SWAP2 SWAP1 PUSH2 0x3365 JUMP JUMPDEST PUSH1 0x40 MLOAD DUP1 SWAP2 SUB SWAP1 LOG1 POP POP POP POP POP POP PUSH2 0xC94 JUMP JUMPDEST DUP3 PUSH1 0x20 ADD MLOAD DUP5 EQ PUSH2 0xB57 JUMPI PUSH1 0x0 DUP1 MLOAD PUSH1 0x20 PUSH2 0x38E9 DUP4 CODECOPY DUP2 MLOAD SWAP2 MSTORE DUP7 PUSH1 0x20 ADD MLOAD PUSH1 0x40 MLOAD PUSH2 0xAEB SWAP2 DUP2 MSTORE PUSH1 0x40 PUSH1 0x20 DUP3 ADD DUP2 SWAP1 MSTORE PUSH1 0x13 SWAP1 DUP3 ADD MSTORE PUSH19 0x526F757465723A2057726F6E67207072696365 PUSH1 0x68 SHL PUSH1 0x60 DUP3 ADD MSTORE PUSH1 0x80 ADD SWAP1 JUMP JUMPDEST TIMESTAMP DUP5 GT ISZERO PUSH2 0xBB4 JUMPI PUSH1 0x0 DUP1 MLOAD PUSH1 0x20 PUSH2 0x38E9 DUP4 CODECOPY DUP2 MLOAD SWAP2 MSTORE DUP7 PUSH1 0x20 ADD MLOAD PUSH1 0x40 MLOAD PUSH2 0xAEB SWAP2 DUP2 MSTORE PUSH1 0x40 PUSH1 0x20 DUP3 ADD DUP2 SWAP1 MSTORE PUSH1 0x1A SWAP1 DUP3 ADD MSTORE PUSH26 0x526F757465723A2057726F6E6720636C6F73696E672074696D65 PUSH1 0x30 SHL PUSH1 0x60 DUP3 ADD MSTORE PUSH1 0x80 ADD SWAP1 JUMP JUMPDEST PUSH1 0x20 DUP7 ADD MLOAD PUSH1 0x60 DUP8 ADD MLOAD PUSH1 0x80 DUP9 ADD MLOAD PUSH1 0x40 MLOAD PUSH4 0x5A367093 PUSH1 0xE0 SHL DUP2 MSTORE PUSH1 0x1 PUSH1 0x1 PUSH1 0xA0 SHL SUB DUP10 AND SWAP4 PUSH4 0x5A367093 SWAP4 PUSH2 0xBF3 SWAP4 SWAP2 SWAP3 SWAP1 SWAP2 DUP11 SWAP2 PUSH1 0x4 ADD PUSH2 0x33E1 JUMP JUMPDEST PUSH1 0x0 PUSH1 0x40 MLOAD DUP1 DUP4 SUB DUP2 PUSH1 0x0 DUP8 DUP1 EXTCODESIZE ISZERO DUP1 ISZERO PUSH2 0xC0D JUMPI PUSH1 0x0 DUP1 REVERT JUMPDEST POP GAS CALL SWAP3 POP POP POP DUP1 ISZERO PUSH2 0xC1E JUMPI POP PUSH1 0x1 JUMPDEST PUSH2 0xC8D JUMPI PUSH2 0xC2A PUSH2 0x3789 JUMP JUMPDEST DUP1 PUSH4 0x8C379A0 EQ ISZERO PUSH2 0xC81 JUMPI POP PUSH2 0xC3F PUSH2 0x37A1 JUMP JUMPDEST DUP1 PUSH2 0xC4A JUMPI POP PUSH2 0xC83 JUMP JUMPDEST PUSH1 0x0 DUP1 MLOAD PUSH1 0x20 PUSH2 0x38E9 DUP4 CODECOPY DUP2 MLOAD SWAP2 MSTORE DUP8 PUSH1 0x20 ADD MLOAD DUP3 PUSH1 0x40 MLOAD PUSH2 0xC6D SWAP3 SWAP2 SWAP1 PUSH2 0x334C JUMP JUMPDEST PUSH1 0x40 MLOAD DUP1 SWAP2 SUB SWAP1 LOG1 POP POP POP POP POP POP POP PUSH2 0xC94 JUMP JUMPDEST POP JUMPDEST RETURNDATASIZE PUSH1 0x0 DUP1 RETURNDATACOPY RETURNDATASIZE PUSH1 0x0 REVERT JUMPDEST POP POP POP POP POP POP JUMPDEST DUP1 PUSH2 0xC9E DUP2 PUSH2 0x3739 JUMP JUMPDEST SWAP2 POP POP PUSH2 0x681 JUMP JUMPDEST POP POP POP POP JUMP JUMPDEST PUSH1 0x0 SWAP2 DUP3 MSTORE PUSH1 0x20 DUP3 DUP2 MSTORE PUSH1 0x40 DUP1 DUP5 KECCAK256 PUSH1 0x1 PUSH1 0x1 PUSH1 0xA0 SHL SUB SWAP4 SWAP1 SWAP4 AND DUP5 MSTORE SWAP2 SWAP1 MSTORE SWAP1 KECCAK256 SLOAD PUSH1 0xFF AND SWAP1 JUMP JUMPDEST CALLER PUSH1 0x0 DUP2 DUP2 MSTORE PUSH1 0x7 PUSH1 0x20 MSTORE PUSH1 0x40 DUP1 DUP3 KECCAK256 DUP1 SLOAD PUSH1 0x1 PUSH1 0x1 PUSH1 0xA0 SHL SUB NOT AND PUSH1 0x1 PUSH1 0x1 PUSH1 0xA0 SHL SUB DUP7 AND SWAP1 DUP2 OR SWAP1 SWAP2 SSTORE SWAP1 MLOAD SWAP1 SWAP3 SWAP2 PUSH32 0x98E2A4EAF073755FDA5AABD67BE853A3C5E5BF5B7FB5569B28342CE7EB69A4B9 SWAP2 LOG3 POP JUMP JUMPDEST PUSH1 0x4 PUSH1 0x20 DUP2 SWAP1 MSTORE PUSH1 0x0 SWAP2 DUP3 MSTORE PUSH1 0x40 SWAP1 SWAP2 KECCAK256 DUP1 SLOAD PUSH1 0x1 DUP3 ADD SLOAD PUSH1 0x2 DUP4 ADD SLOAD PUSH1 0x3 DUP5 ADD SLOAD SWAP5 DUP5 ADD SLOAD PUSH1 0x5 DUP6 ADD SLOAD PUSH1 0x6 DUP7 ADD SLOAD PUSH1 0x7 DUP8 ADD DUP1 SLOAD PUSH1 0x1 PUSH1 0x1 PUSH1 0xA0 SHL SUB SWAP8 DUP9 AND SWAP10 SWAP7 SWAP9 SWAP6 SWAP8 SWAP1 SWAP7 AND SWAP6 SWAP4 SWAP5 SWAP3 SWAP4 PUSH1 0xFF SWAP1 SWAP3 AND SWAP3 SWAP2 PUSH2 0xD8A SWAP1 PUSH2 0x36AD JUMP JUMPDEST DUP1 PUSH1 0x1F ADD PUSH1 0x20 DUP1 SWAP2 DIV MUL PUSH1 0x20 ADD PUSH1 0x40 MLOAD SWAP1 DUP2 ADD PUSH1 0x40 MSTORE DUP1 SWAP3 SWAP2 SWAP1 DUP2 DUP2 MSTORE PUSH1 0x20 ADD DUP3 DUP1 SLOAD PUSH2 0xDB6 SWAP1 PUSH2 0x36AD JUMP JUMPDEST DUP1 ISZERO PUSH2 0xE03 JUMPI DUP1 PUSH1 0x1F LT PUSH2 0xDD8 JUMPI PUSH2 0x100 DUP1 DUP4 SLOAD DIV MUL DUP4 MSTORE SWAP2 PUSH1 0x20 ADD SWAP2 PUSH2 0xE03 JUMP JUMPDEST DUP3 ADD SWAP2 SWAP1 PUSH1 0x0 MSTORE PUSH1 0x20 PUSH1 0x0 KECCAK256 SWAP1 JUMPDEST DUP2 SLOAD DUP2 MSTORE SWAP1 PUSH1 0x1 ADD SWAP1 PUSH1 0x20 ADD DUP1 DUP4 GT PUSH2 0xDE6 JUMPI DUP3 SWAP1 SUB PUSH1 0x1F AND DUP3 ADD SWAP2 JUMPDEST POP POP POP POP PUSH1 0x8 DUP4 ADD SLOAD PUSH1 0x9 DUP5 ADD SLOAD PUSH1 0xA SWAP1 SWAP5 ADD SLOAD SWAP3 SWAP4 SWAP1 SWAP3 SWAP1 SWAP2 POP PUSH1 0xFF DUP1 DUP3 AND SWAP2 PUSH2 0x100 SWAP1 DIV AND DUP13 JUMP JUMPDEST PUSH1 0x0 PUSH2 0xE38 DUP2 PUSH2 0x14AF JUMP JUMPDEST POP PUSH1 0x1 PUSH1 0x1 PUSH1 0xA0 SHL SUB SWAP2 SWAP1 SWAP2 AND PUSH1 0x0 SWAP1 DUP2 MSTORE PUSH1 0x6 PUSH1 0x20 MSTORE PUSH1 0x40 SWAP1 KECCAK256 DUP1 SLOAD PUSH1 0xFF NOT AND SWAP2 ISZERO ISZERO SWAP2 SWAP1 SWAP2 OR SWAP1 SSTORE JUMP JUMPDEST PUSH2 0xE6D DUP3 PUSH2 0x3E2 JUMP JUMPDEST PUSH2 0xE76 DUP2 PUSH2 0x14AF JUMP JUMPDEST PUSH2 0x482 DUP4 DUP4 PUSH2 0x1540 JUMP JUMPDEST PUSH2 0xE88 PUSH2 0x15A5 JUMP JUMPDEST PUSH1 0x0 JUMPDEST DUP2 MLOAD DUP2 PUSH4 0xFFFFFFFF AND LT ISZERO PUSH2 0x506 JUMPI PUSH1 0x0 DUP3 DUP3 PUSH4 0xFFFFFFFF AND DUP2 MLOAD DUP2 LT PUSH2 0xEC2 JUMPI PUSH4 0x4E487B71 PUSH1 0xE0 SHL PUSH1 0x0 MSTORE PUSH1 0x32 PUSH1 0x4 MSTORE PUSH1 0x24 PUSH1 0x0 REVERT JUMPDEST PUSH1 0x20 MUL PUSH1 0x20 ADD ADD MLOAD PUSH1 0x20 ADD MLOAD SWAP1 POP PUSH1 0x0 DUP4 DUP4 PUSH4 0xFFFFFFFF AND DUP2 MLOAD DUP2 LT PUSH2 0xEF8 JUMPI PUSH4 0x4E487B71 PUSH1 0xE0 SHL PUSH1 0x0 MSTORE PUSH1 0x32 PUSH1 0x4 MSTORE PUSH1 0x24 PUSH1 0x0 REVERT JUMPDEST PUSH1 0x20 SWAP1 DUP2 MUL SWAP2 SWAP1 SWAP2 ADD DUP2 ADD MLOAD MLOAD PUSH1 0x40 DUP1 DUP3 ADD MLOAD PUSH1 0xC0 DUP1 DUP5 ADD MLOAD DUP5 MLOAD PUSH1 0x0 SWAP1 DUP2 MSTORE PUSH1 0x4 DUP1 DUP9 MSTORE DUP6 DUP3 KECCAK256 DUP7 MLOAD PUSH2 0x180 DUP2 ADD DUP9 MSTORE DUP2 SLOAD PUSH1 0x1 PUSH1 0x1 PUSH1 0xA0 SHL SUB SWAP1 DUP2 AND DUP3 MSTORE PUSH1 0x1 DUP4 ADD SLOAD SWAP11 DUP3 ADD SWAP11 SWAP1 SWAP11 MSTORE PUSH1 0x2 DUP3 ADD SLOAD SWAP8 DUP2 ADD SWAP8 SWAP1 SWAP8 MSTORE PUSH1 0x3 DUP2 ADD SLOAD SWAP1 SWAP9 AND PUSH1 0x60 DUP8 ADD MSTORE DUP8 ADD SLOAD PUSH1 0x80 DUP7 ADD MSTORE PUSH1 0x5 DUP8 ADD SLOAD PUSH1 0xA0 DUP7 ADD MSTORE PUSH1 0x6 DUP8 ADD SLOAD PUSH1 0xFF AND ISZERO ISZERO SWAP3 DUP6 ADD SWAP3 SWAP1 SWAP3 MSTORE PUSH1 0x7 DUP7 ADD DUP1 SLOAD SWAP6 SWAP8 POP SWAP3 SWAP6 SWAP1 SWAP5 SWAP2 SWAP4 SWAP3 SWAP1 SWAP2 PUSH1 0xE0 DUP5 ADD SWAP2 SWAP1 PUSH2 0xFA1 SWAP1 PUSH2 0x36AD JUMP JUMPDEST DUP1 PUSH1 0x1F ADD PUSH1 0x20 DUP1 SWAP2 DIV MUL PUSH1 0x20 ADD PUSH1 0x40 MLOAD SWAP1 DUP2 ADD PUSH1 0x40 MSTORE DUP1 SWAP3 SWAP2 SWAP1 DUP2 DUP2 MSTORE PUSH1 0x20 ADD DUP3 DUP1 SLOAD PUSH2 0xFCD SWAP1 PUSH2 0x36AD JUMP JUMPDEST DUP1 ISZERO PUSH2 0x101A JUMPI DUP1 PUSH1 0x1F LT PUSH2 0xFEF JUMPI PUSH2 0x100 DUP1 DUP4 SLOAD DIV MUL DUP4 MSTORE SWAP2 PUSH1 0x20 ADD SWAP2 PUSH2 0x101A JUMP JUMPDEST DUP3 ADD SWAP2 SWAP1 PUSH1 0x0 MSTORE PUSH1 0x20 PUSH1 0x0 KECCAK256 SWAP1 JUMPDEST DUP2 SLOAD DUP2 MSTORE SWAP1 PUSH1 0x1 ADD SWAP1 PUSH1 0x20 ADD DUP1 DUP4 GT PUSH2 0xFFD JUMPI DUP3 SWAP1 SUB PUSH1 0x1F AND DUP3 ADD SWAP2 JUMPDEST POP POP POP SWAP2 DUP4 MSTORE POP POP PUSH1 0x8 DUP3 ADD SLOAD PUSH1 0x20 DUP3 ADD MSTORE PUSH1 0x9 DUP3 ADD SLOAD PUSH1 0x40 DUP1 DUP4 ADD SWAP2 SWAP1 SWAP2 MSTORE PUSH1 0xA SWAP1 SWAP3 ADD SLOAD PUSH1 0xFF DUP1 DUP3 AND ISZERO ISZERO PUSH1 0x60 DUP5 ADD MSTORE PUSH2 0x100 SWAP1 SWAP2 DIV AND ISZERO ISZERO PUSH1 0x80 SWAP1 SWAP2 ADD MSTORE DUP1 MLOAD PUSH4 0x10082C75 PUSH1 0xE0 SHL DUP2 MSTORE SWAP1 MLOAD SWAP2 SWAP3 POP PUSH1 0x0 SWAP2 PUSH20 0x0 SWAP2 PUSH4 0x2A51FF38 SWAP2 PUSH1 0x1 PUSH1 0x1 PUSH1 0xA0 SHL SUB DUP9 AND SWAP2 PUSH4 0x10082C75 SWAP2 PUSH1 0x4 DUP1 DUP4 ADD SWAP3 DUP9 SWAP3 SWAP2 SWAP1 DUP3 SWAP1 SUB ADD DUP2 DUP7 DUP1 EXTCODESIZE ISZERO DUP1 ISZERO PUSH2 0x10BA JUMPI PUSH1 0x0 DUP1 REVERT JUMPDEST POP GAS STATICCALL ISZERO DUP1 ISZERO PUSH2 0x10CE JUMPI RETURNDATASIZE PUSH1 0x0 DUP1 RETURNDATACOPY RETURNDATASIZE PUSH1 0x0 REVERT JUMPDEST POP POP POP POP PUSH1 0x40 MLOAD RETURNDATASIZE PUSH1 0x0 DUP3 RETURNDATACOPY PUSH1 0x1F RETURNDATASIZE SWAP1 DUP2 ADD PUSH1 0x1F NOT AND DUP3 ADD PUSH1 0x40 MSTORE PUSH2 0x10F6 SWAP2 SWAP1 DUP2 ADD SWAP1 PUSH2 0x2D4C JUMP JUMPDEST PUSH1 0x20 DUP1 DUP8 ADD MLOAD DUP10 DUP3 ADD MLOAD DUP12 MLOAD DUP9 MLOAD PUSH1 0x1 PUSH1 0x1 PUSH1 0xA0 SHL SUB SWAP1 DUP2 AND PUSH1 0x0 SWAP1 DUP2 MSTORE PUSH1 0x7 SWAP1 SWAP6 MSTORE PUSH1 0x40 SWAP5 DUP6 SWAP1 KECCAK256 SLOAD SWAP5 MLOAD PUSH1 0x1 PUSH1 0x1 PUSH1 0xE0 SHL SUB NOT PUSH1 0xE0 DUP10 SWAP1 SHL AND DUP2 MSTORE PUSH2 0x1144 SWAP7 SWAP6 SWAP1 SWAP2 AND SWAP1 PUSH1 0x4 ADD PUSH2 0x30C7 JUMP JUMPDEST PUSH1 0x20 PUSH1 0x40 MLOAD DUP1 DUP4 SUB DUP2 DUP7 DUP1 EXTCODESIZE ISZERO DUP1 ISZERO PUSH2 0x115C JUMPI PUSH1 0x0 DUP1 REVERT JUMPDEST POP GAS DELEGATECALL ISZERO DUP1 ISZERO PUSH2 0x1170 JUMPI RETURNDATASIZE PUSH1 0x0 DUP1 RETURNDATACOPY RETURNDATASIZE PUSH1 0x0 REVERT JUMPDEST POP POP POP POP PUSH1 0x40 MLOAD RETURNDATASIZE PUSH1 0x1F NOT PUSH1 0x1F DUP3 ADD AND DUP3 ADD DUP1 PUSH1 0x40 MSTORE POP DUP2 ADD SWAP1 PUSH2 0x1194 SWAP2 SWAP1 PUSH2 0x2C12 JUMP JUMPDEST SWAP1 POP PUSH1 0x0 PUSH20 0x0 PUSH4 0x7731B992 DUP7 PUSH1 0x1 PUSH1 0x1 PUSH1 0xA0 SHL SUB AND PUSH4 0x10082C75 PUSH1 0x40 MLOAD DUP2 PUSH4 0xFFFFFFFF AND PUSH1 0xE0 SHL DUP2 MSTORE PUSH1 0x4 ADD PUSH1 0x0 PUSH1 0x40 MLOAD DUP1 DUP4 SUB DUP2 DUP7 DUP1 EXTCODESIZE ISZERO DUP1 ISZERO PUSH2 0x11EB JUMPI PUSH1 0x0 DUP1 REVERT JUMPDEST POP GAS STATICCALL ISZERO DUP1 ISZERO PUSH2 0x11FF JUMPI RETURNDATASIZE PUSH1 0x0 DUP1 RETURNDATACOPY RETURNDATASIZE PUSH1 0x0 REVERT JUMPDEST POP POP POP POP PUSH1 0x40 MLOAD RETURNDATASIZE PUSH1 0x0 DUP3 RETURNDATACOPY PUSH1 0x1F RETURNDATASIZE SWAP1 DUP2 ADD PUSH1 0x1F NOT AND DUP3 ADD PUSH1 0x40 MSTORE PUSH2 0x1227 SWAP2 SWAP1 DUP2 ADD SWAP1 PUSH2 0x2D4C JUMP JUMPDEST PUSH1 0x20 DUP8 ADD MLOAD PUSH1 0x60 DUP11 ADD MLOAD DUP9 MLOAD PUSH1 0x1 SLOAD PUSH1 0x40 MLOAD PUSH1 0xE0 DUP8 SWAP1 SHL PUSH1 0x1 PUSH1 0x1 PUSH1 0xE0 SHL SUB NOT AND DUP2 MSTORE PUSH2 0x126B SWAP6 SWAP5 SWAP4 SWAP3 SWAP2 PUSH1 0x1 PUSH1 0x20 SHL SWAP1 DIV PUSH1 0x1 PUSH1 0x1 PUSH1 0xA0 SHL SUB AND SWAP1 PUSH1 0x4 ADD PUSH2 0x30C7 JUMP JUMPDEST PUSH1 0x20 PUSH1 0x40 MLOAD DUP1 DUP4 SUB DUP2 DUP7 DUP1 EXTCODESIZE ISZERO DUP1 ISZERO PUSH2 0x1283 JUMPI PUSH1 0x0 DUP1 REVERT JUMPDEST POP GAS DELEGATECALL ISZERO DUP1 ISZERO PUSH2 0x1297 JUMPI RETURNDATASIZE PUSH1 0x0 DUP1 RETURNDATACOPY RETURNDATASIZE PUSH1 0x0 REVERT JUMPDEST POP POP POP POP PUSH1 0x40 MLOAD RETURNDATASIZE PUSH1 0x1F NOT PUSH1 0x1F DUP3 ADD AND DUP3 ADD DUP1 PUSH1 0x40 MSTORE POP DUP2 ADD SWAP1 PUSH2 0x12BB SWAP2 SWAP1 PUSH2 0x2C12 JUMP JUMPDEST SWAP1 POP DUP1 PUSH2 0x12F7 JUMPI PUSH1 0x0 DUP1 MLOAD PUSH1 0x20 PUSH2 0x38E9 DUP4 CODECOPY DUP2 MLOAD SWAP2 MSTORE DUP7 PUSH1 0x20 ADD MLOAD PUSH1 0x40 MLOAD PUSH2 0x12E3 SWAP2 SWAP1 PUSH2 0x33A3 JUMP JUMPDEST PUSH1 0x40 MLOAD DUP1 SWAP2 SUB SWAP1 LOG1 POP POP POP POP POP POP POP PUSH2 0x149D JUMP JUMPDEST DUP3 MLOAD PUSH1 0x1 PUSH1 0x1 PUSH1 0xA0 SHL SUB SWAP1 DUP2 AND PUSH1 0x0 SWAP1 DUP2 MSTORE PUSH1 0x7 PUSH1 0x20 MSTORE PUSH1 0x40 SWAP1 DUP2 SWAP1 KECCAK256 SLOAD SWAP1 MLOAD PUSH4 0x3DE4C181 PUSH1 0xE2 SHL DUP2 MSTORE PUSH20 0x0 SWAP3 PUSH4 0xF7930604 SWAP3 PUSH2 0x134F SWAP3 DUP12 SWAP3 DUP10 SWAP3 AND SWAP1 PUSH1 0x4 ADD PUSH2 0x3113 JUMP JUMPDEST PUSH1 0x20 PUSH1 0x40 MLOAD DUP1 DUP4 SUB DUP2 DUP7 DUP1 EXTCODESIZE ISZERO DUP1 ISZERO PUSH2 0x1367 JUMPI PUSH1 0x0 DUP1 REVERT JUMPDEST POP GAS DELEGATECALL ISZERO DUP1 ISZERO PUSH2 0x137B JUMPI RETURNDATASIZE PUSH1 0x0 DUP1 RETURNDATACOPY RETURNDATASIZE PUSH1 0x0 REVERT JUMPDEST POP POP POP POP PUSH1 0x40 MLOAD RETURNDATASIZE PUSH1 0x1F NOT PUSH1 0x1F DUP3 ADD AND DUP3 ADD DUP1 PUSH1 0x40 MSTORE POP DUP2 ADD SWAP1 PUSH2 0x139F SWAP2 SWAP1 PUSH2 0x2C12 JUMP JUMPDEST PUSH2 0x13C4 JUMPI PUSH1 0x0 DUP1 MLOAD PUSH1 0x20 PUSH2 0x38E9 DUP4 CODECOPY DUP2 MLOAD SWAP2 MSTORE DUP7 PUSH1 0x20 ADD MLOAD PUSH1 0x40 MLOAD PUSH2 0x12E3 SWAP2 SWAP1 PUSH2 0x3365 JUMP JUMPDEST DUP5 PUSH1 0x1 PUSH1 0x1 PUSH1 0xA0 SHL SUB AND PUSH4 0x5A367093 DUP8 PUSH1 0x20 ADD MLOAD DUP9 PUSH1 0x60 ADD MLOAD DUP8 PUSH1 0x20 ADD MLOAD DUP11 PUSH1 0x80 ADD MLOAD PUSH1 0x40 MLOAD DUP6 PUSH4 0xFFFFFFFF AND PUSH1 0xE0 SHL DUP2 MSTORE PUSH1 0x4 ADD PUSH2 0x1406 SWAP5 SWAP4 SWAP3 SWAP2 SWAP1 PUSH2 0x33E1 JUMP JUMPDEST PUSH1 0x0 PUSH1 0x40 MLOAD DUP1 DUP4 SUB DUP2 PUSH1 0x0 DUP8 DUP1 EXTCODESIZE ISZERO DUP1 ISZERO PUSH2 0x1420 JUMPI PUSH1 0x0 DUP1 REVERT JUMPDEST POP GAS CALL SWAP3 POP POP POP DUP1 ISZERO PUSH2 0x1431 JUMPI POP PUSH1 0x1 JUMPDEST PUSH2 0x1495 JUMPI PUSH2 0x143D PUSH2 0x3789 JUMP JUMPDEST DUP1 PUSH4 0x8C379A0 EQ ISZERO PUSH2 0xC81 JUMPI POP PUSH2 0x1452 PUSH2 0x37A1 JUMP JUMPDEST DUP1 PUSH2 0x145D JUMPI POP PUSH2 0xC83 JUMP JUMPDEST PUSH1 0x0 DUP1 MLOAD PUSH1 0x20 PUSH2 0x38E9 DUP4 CODECOPY DUP2 MLOAD SWAP2 MSTORE DUP8 PUSH1 0x20 ADD MLOAD DUP3 PUSH1 0x40 MLOAD PUSH2 0x1480 SWAP3 SWAP2 SWAP1 PUSH2 0x334C JUMP JUMPDEST PUSH1 0x40 MLOAD DUP1 SWAP2 SUB SWAP1 LOG1 POP POP POP POP POP POP POP POP PUSH2 0x149D JUMP JUMPDEST POP POP POP POP POP POP POP JUMPDEST DUP1 PUSH2 0x14A7 DUP2 PUSH2 0x3739 JUMP JUMPDEST SWAP2 POP POP PUSH2 0xE8B JUMP JUMPDEST PUSH2 0x14B9 DUP2 CALLER PUSH2 0x22FB JUMP JUMPDEST POP JUMP JUMPDEST PUSH2 0x14C6 DUP3 DUP3 PUSH2 0xCAC JUMP JUMPDEST PUSH2 0x506 JUMPI PUSH1 0x0 DUP3 DUP2 MSTORE PUSH1 0x20 DUP2 DUP2 MSTORE PUSH1 0x40 DUP1 DUP4 KECCAK256 PUSH1 0x1 PUSH1 0x1 PUSH1 0xA0 SHL SUB DUP6 AND DUP5 MSTORE SWAP1 SWAP2 MSTORE SWAP1 KECCAK256 DUP1 SLOAD PUSH1 0xFF NOT AND PUSH1 0x1 OR SWAP1 SSTORE PUSH2 0x14FC CALLER SWAP1 JUMP JUMPDEST PUSH1 0x1 PUSH1 0x1 PUSH1 0xA0 SHL SUB AND DUP2 PUSH1 0x1 PUSH1 0x1 PUSH1 0xA0 SHL SUB AND DUP4 PUSH32 0x2F8788117E7EFF1D82E926EC794901D17C78024A50270940304540A733656F0D PUSH1 0x40 MLOAD PUSH1 0x40 MLOAD DUP1 SWAP2 SUB SWAP1 LOG4 POP POP JUMP JUMPDEST PUSH2 0x154A DUP3 DUP3 PUSH2 0xCAC JUMP JUMPDEST ISZERO PUSH2 0x506 JUMPI PUSH1 0x0 DUP3 DUP2 MSTORE PUSH1 0x20 DUP2 DUP2 MSTORE PUSH1 0x40 DUP1 DUP4 KECCAK256 PUSH1 0x1 PUSH1 0x1 PUSH1 0xA0 SHL SUB DUP6 AND DUP1 DUP6 MSTORE SWAP3 MSTORE DUP1 DUP4 KECCAK256 DUP1 SLOAD PUSH1 0xFF NOT AND SWAP1 SSTORE MLOAD CALLER SWAP3 DUP6 SWAP2 PUSH32 0xF6391F5C32D9C69D2A47EA670B442974B53935D1EDC7FD64EB21E047A839171B SWAP2 SWAP1 LOG4 POP POP JUMP JUMPDEST PUSH1 0x3 SLOAD PUSH1 0x1 PUSH1 0xA0 SHL SWAP1 DIV PUSH1 0xFF AND ISZERO DUP1 PUSH2 0x15CD JUMPI POP CALLER PUSH1 0x0 SWAP1 DUP2 MSTORE PUSH1 0x6 PUSH1 0x20 MSTORE PUSH1 0x40 SWAP1 KECCAK256 SLOAD PUSH1 0xFF AND JUMPDEST PUSH2 0x160D JUMPI PUSH1 0x40 MLOAD PUSH3 0x461BCD PUSH1 0xE5 SHL DUP2 MSTORE PUSH1 0x20 PUSH1 0x4 DUP3 ADD MSTORE PUSH1 0x11 PUSH1 0x24 DUP3 ADD MSTORE PUSH17 0x25B2B2B832B91D103337B93134B23232B7 PUSH1 0x79 SHL PUSH1 0x44 DUP3 ADD MSTORE PUSH1 0x64 ADD PUSH2 0x4F3 JUMP JUMPDEST JUMP JUMPDEST PUSH1 0x80 DUP2 ADD MLOAD PUSH2 0x1C0 DUP3 ADD MLOAD PUSH2 0x200 DUP4 ADD MLOAD PUSH2 0x1E0 DUP5 ADD MLOAD PUSH1 0x1 PUSH1 0x1 PUSH1 0xA0 SHL SUB DUP5 AND PUSH1 0x0 SWAP1 DUP2 MSTORE PUSH1 0x5 PUSH1 0x20 MSTORE PUSH1 0x40 DUP2 KECCAK256 SLOAD SWAP1 SWAP5 PUSH1 0x60 SWAP5 SWAP1 SWAP4 SWAP1 SWAP3 SWAP1 SWAP2 PUSH1 0xFF AND PUSH2 0x1696 JUMPI PUSH1 0x0 PUSH1 0x40 MLOAD DUP1 PUSH1 0x40 ADD PUSH1 0x40 MSTORE DUP1 PUSH1 0x1D DUP2 MSTORE PUSH1 0x20 ADD PUSH32 0x526F757465723A20556E617574686F72697A656420636F6E7472616374000000 DUP2 MSTORE POP SWAP6 POP SWAP6 POP POP POP POP POP SWAP2 POP SWAP2 JUMP JUMPDEST DUP7 MLOAD PUSH1 0x0 SWAP1 DUP2 MSTORE PUSH1 0x4 PUSH1 0x20 MSTORE PUSH1 0x40 SWAP1 KECCAK256 PUSH1 0xA ADD SLOAD PUSH2 0x100 SWAP1 DIV PUSH1 0xFF AND ISZERO PUSH2 0x16DF JUMPI PUSH1 0x0 PUSH1 0x40 MLOAD DUP1 PUSH1 0x60 ADD PUSH1 0x40 MSTORE DUP1 PUSH1 0x25 DUP2 MSTORE PUSH1 0x20 ADD PUSH2 0x38C4 PUSH1 0x25 SWAP2 CODECOPY SWAP6 POP SWAP6 POP POP POP POP POP SWAP2 POP SWAP2 JUMP JUMPDEST DUP1 MLOAD PUSH1 0x40 MLOAD PUSH1 0x8 SWAP2 PUSH2 0x16F0 SWAP2 PUSH2 0x2FAB JUMP JUMPDEST SWAP1 DUP2 MSTORE PUSH1 0x40 MLOAD SWAP1 DUP2 SWAP1 SUB PUSH1 0x20 ADD SWAP1 KECCAK256 SLOAD PUSH1 0xFF AND ISZERO PUSH2 0x174D JUMPI PUSH1 0x0 PUSH1 0x40 MLOAD DUP1 PUSH1 0x40 ADD PUSH1 0x40 MSTORE DUP1 PUSH1 0x1E DUP2 MSTORE PUSH1 0x20 ADD PUSH32 0x526F757465723A205369676E617475726520616C726561647920757365640000 DUP2 MSTORE POP SWAP6 POP SWAP6 POP POP POP POP POP SWAP2 POP SWAP2 JUMP JUMPDEST PUSH1 0x20 DUP1 DUP9 ADD MLOAD PUSH1 0x1 PUSH1 0x1 PUSH1 0xA0 SHL SUB SWAP1 DUP2 AND PUSH1 0x0 SWAP1 DUP2 MSTORE PUSH1 0x7 SWAP1 SWAP3 MSTORE PUSH1 0x40 SWAP2 DUP3 SWAP1 KECCAK256 SLOAD SWAP2 MLOAD PUSH4 0x25FF5297 PUSH1 0xE1 SHL DUP2 MSTORE PUSH20 0x0 SWAP3 PUSH4 0x4BFEA52E SWAP3 PUSH2 0x17A9 SWAP3 DUP13 SWAP3 SWAP1 SWAP2 AND SWAP1 PUSH1 0x4 ADD PUSH2 0x31F7 JUMP JUMPDEST PUSH1 0x20 PUSH1 0x40 MLOAD DUP1 DUP4 SUB DUP2 DUP7 DUP1 EXTCODESIZE ISZERO DUP1 ISZERO PUSH2 0x17C1 JUMPI PUSH1 0x0 DUP1 REVERT JUMPDEST POP GAS DELEGATECALL ISZERO DUP1 ISZERO PUSH2 0x17D5 JUMPI RETURNDATASIZE PUSH1 0x0 DUP1 RETURNDATACOPY RETURNDATASIZE PUSH1 0x0 REVERT JUMPDEST POP POP POP POP PUSH1 0x40 MLOAD RETURNDATASIZE PUSH1 0x1F NOT PUSH1 0x1F DUP3 ADD AND DUP3 ADD DUP1 PUSH1 0x40 MSTORE POP DUP2 ADD SWAP1 PUSH2 0x17F9 SWAP2 SWAP1 PUSH2 0x2C12 JUMP JUMPDEST PUSH2 0x1825 JUMPI PUSH1 0x0 PUSH1 0x40 MLOAD DUP1 PUSH1 0x60 ADD PUSH1 0x40 MSTORE DUP1 PUSH1 0x23 DUP2 MSTORE PUSH1 0x20 ADD PUSH2 0x3909 PUSH1 0x23 SWAP2 CODECOPY SWAP6 POP SWAP6 POP POP POP POP POP SWAP2 POP SWAP2 JUMP JUMPDEST PUSH20 0x0 PUSH4 0xB371D25D DUP6 PUSH1 0x1 PUSH1 0x1 PUSH1 0xA0 SHL SUB AND PUSH4 0x10082C75 PUSH1 0x40 MLOAD DUP2 PUSH4 0xFFFFFFFF AND PUSH1 0xE0 SHL DUP2 MSTORE PUSH1 0x4 ADD PUSH1 0x0 PUSH1 0x40 MLOAD DUP1 DUP4 SUB DUP2 DUP7 DUP1 EXTCODESIZE ISZERO DUP1 ISZERO PUSH2 0x1878 JUMPI PUSH1 0x0 DUP1 REVERT JUMPDEST POP GAS STATICCALL ISZERO DUP1 ISZERO PUSH2 0x188C JUMPI RETURNDATASIZE PUSH1 0x0 DUP1 RETURNDATACOPY RETURNDATASIZE PUSH1 0x0 REVERT JUMPDEST POP POP POP POP PUSH1 0x40 MLOAD RETURNDATASIZE PUSH1 0x0 DUP3 RETURNDATACOPY PUSH1 0x1F RETURNDATASIZE SWAP1 DUP2 ADD PUSH1 0x1F NOT AND DUP3 ADD PUSH1 0x40 MSTORE PUSH2 0x18B4 SWAP2 SWAP1 DUP2 ADD SWAP1 PUSH2 0x2D4C JUMP JUMPDEST PUSH2 0x160 DUP11 ADD MLOAD PUSH1 0x20 DUP8 ADD MLOAD DUP8 MLOAD PUSH1 0x2 SLOAD PUSH1 0x40 MLOAD PUSH1 0x1 PUSH1 0x1 PUSH1 0xE0 SHL SUB NOT PUSH1 0xE0 DUP9 SWAP1 SHL AND DUP2 MSTORE PUSH2 0x18F2 SWAP6 SWAP5 SWAP4 SWAP3 SWAP2 PUSH1 0x1 PUSH1 0x1 PUSH1 0xA0 SHL SUB AND SWAP1 PUSH1 0x4 ADD PUSH2 0x30C7 JUMP JUMPDEST PUSH1 0x20 PUSH1 0x40 MLOAD DUP1 DUP4 SUB DUP2 DUP7 DUP1 EXTCODESIZE ISZERO DUP1 ISZERO PUSH2 0x190A JUMPI PUSH1 0x0 DUP1 REVERT JUMPDEST POP GAS DELEGATECALL ISZERO DUP1 ISZERO PUSH2 0x191E JUMPI RETURNDATASIZE PUSH1 0x0 DUP1 RETURNDATACOPY RETURNDATASIZE PUSH1 0x0 REVERT JUMPDEST POP POP POP POP PUSH1 0x40 MLOAD RETURNDATASIZE PUSH1 0x1F NOT PUSH1 0x1F DUP3 ADD AND DUP3 ADD DUP1 PUSH1 0x40 MSTORE POP DUP2 ADD SWAP1 PUSH2 0x1942 SWAP2 SWAP1 PUSH2 0x2C12 JUMP JUMPDEST PUSH2 0x198A JUMPI PUSH1 0x0 PUSH1 0x40 MLOAD DUP1 PUSH1 0x40 ADD PUSH1 0x40 MSTORE DUP1 PUSH1 0x1C DUP2 MSTORE PUSH1 0x20 ADD PUSH28 0x526F757465723A2057726F6E6720736574746C656D656E7420666565 PUSH1 0x20 SHL DUP2 MSTORE POP SWAP6 POP SWAP6 POP POP POP POP POP SWAP2 POP SWAP2 JUMP JUMPDEST PUSH20 0x0 PUSH4 0x7731B992 DUP6 PUSH1 0x1 PUSH1 0x1 PUSH1 0xA0 SHL SUB AND PUSH4 0x10082C75 PUSH1 0x40 MLOAD DUP2 PUSH4 0xFFFFFFFF AND PUSH1 0xE0 SHL DUP2 MSTORE PUSH1 0x4 ADD PUSH1 0x0 PUSH1 0x40 MLOAD DUP1 DUP4 SUB DUP2 DUP7 DUP1 EXTCODESIZE ISZERO DUP1 ISZERO PUSH2 0x19DD JUMPI PUSH1 0x0 DUP1 REVERT JUMPDEST POP GAS STATICCALL ISZERO DUP1 ISZERO PUSH2 0x19F1 JUMPI RETURNDATASIZE PUSH1 0x0 DUP1 RETURNDATACOPY RETURNDATASIZE PUSH1 0x0 REVERT JUMPDEST POP POP POP POP PUSH1 0x40 MLOAD RETURNDATASIZE PUSH1 0x0 DUP3 RETURNDATACOPY PUSH1 0x1F RETURNDATASIZE SWAP1 DUP2 ADD PUSH1 0x1F NOT AND DUP3 ADD PUSH1 0x40 MSTORE PUSH2 0x1A19 SWAP2 SWAP1 DUP2 ADD SWAP1 PUSH2 0x2D4C JUMP JUMPDEST PUSH1 0x20 DUP6 ADD MLOAD PUSH2 0x140 DUP12 ADD MLOAD DUP7 MLOAD PUSH1 0x1 SLOAD PUSH1 0x40 MLOAD PUSH1 0xE0 DUP8 SWAP1 SHL PUSH1 0x1 PUSH1 0x1 PUSH1 0xE0 SHL SUB NOT AND DUP2 MSTORE PUSH2 0x1A5E SWAP6 SWAP5 SWAP4 SWAP3 SWAP2 PUSH1 0x1 PUSH1 0x20 SHL SWAP1 DIV PUSH1 0x1 PUSH1 0x1 PUSH1 0xA0 SHL SUB AND SWAP1 PUSH1 0x4 ADD PUSH2 0x30C7 JUMP JUMPDEST PUSH1 0x20 PUSH1 0x40 MLOAD DUP1 DUP4 SUB DUP2 DUP7 DUP1 EXTCODESIZE ISZERO DUP1 ISZERO PUSH2 0x1A76 JUMPI PUSH1 0x0 DUP1 REVERT JUMPDEST POP GAS DELEGATECALL ISZERO DUP1 ISZERO PUSH2 0x1A8A JUMPI RETURNDATASIZE PUSH1 0x0 DUP1 RETURNDATACOPY RETURNDATASIZE PUSH1 0x0 REVERT JUMPDEST POP POP POP POP PUSH1 0x40 MLOAD RETURNDATASIZE PUSH1 0x1F NOT PUSH1 0x1F DUP3 ADD AND DUP3 ADD DUP1 PUSH1 0x40 MSTORE POP DUP2 ADD SWAP1 PUSH2 0x1AAE SWAP2 SWAP1 PUSH2 0x2C12 JUMP JUMPDEST PUSH2 0x1ADA JUMPI PUSH1 0x0 PUSH1 0x40 MLOAD DUP1 PUSH1 0x60 ADD PUSH1 0x40 MSTORE DUP1 PUSH1 0x28 DUP2 MSTORE PUSH1 0x20 ADD PUSH2 0x392C PUSH1 0x28 SWAP2 CODECOPY SWAP6 POP SWAP6 POP POP POP POP POP SWAP2 POP SWAP2 JUMP JUMPDEST TIMESTAMP DUP4 PUSH1 0x20 ADD MLOAD LT ISZERO PUSH2 0x1B0E JUMPI PUSH1 0x0 PUSH1 0x40 MLOAD DUP1 PUSH1 0x60 ADD PUSH1 0x40 MSTORE DUP1 PUSH1 0x22 DUP2 MSTORE PUSH1 0x20 ADD PUSH2 0x3875 PUSH1 0x22 SWAP2 CODECOPY SWAP6 POP SWAP6 POP POP POP POP POP SWAP2 POP SWAP2 JUMP JUMPDEST DUP7 PUSH2 0x180 ADD MLOAD PUSH2 0x1B64 JUMPI PUSH1 0x1 SLOAD PUSH1 0x20 DUP3 ADD MLOAD PUSH2 0xFFFF SWAP1 SWAP2 AND SWAP1 PUSH2 0x1B31 SWAP1 TIMESTAMP PUSH2 0x34DF JUMP JUMPDEST GT ISZERO PUSH2 0x1B5F JUMPI PUSH1 0x0 PUSH1 0x40 MLOAD DUP1 PUSH1 0x60 ADD PUSH1 0x40 MSTORE DUP1 PUSH1 0x28 DUP2 MSTORE PUSH1 0x20 ADD PUSH2 0x3954 PUSH1 0x28 SWAP2 CODECOPY SWAP6 POP SWAP6 POP POP POP POP POP SWAP2 POP SWAP2 JUMP JUMPDEST PUSH2 0x1B99 JUMP JUMPDEST DUP7 PUSH2 0x1A0 ADD MLOAD TIMESTAMP GT ISZERO PUSH2 0x1B99 JUMPI PUSH1 0x0 PUSH1 0x40 MLOAD DUP1 PUSH1 0x60 ADD PUSH1 0x40 MSTORE DUP1 PUSH1 0x27 DUP2 MSTORE PUSH1 0x20 ADD PUSH2 0x384E PUSH1 0x27 SWAP2 CODECOPY SWAP6 POP SWAP6 POP POP POP POP POP SWAP2 POP SWAP2 JUMP JUMPDEST PUSH1 0x1 SLOAD PUSH1 0x20 DUP4 ADD MLOAD PUSH3 0x10000 SWAP1 SWAP2 DIV PUSH2 0xFFFF AND SWAP1 PUSH2 0x1BB7 SWAP1 TIMESTAMP PUSH2 0x34DF JUMP JUMPDEST GT ISZERO PUSH2 0x1BE5 JUMPI PUSH1 0x0 PUSH1 0x40 MLOAD DUP1 PUSH1 0x60 ADD PUSH1 0x40 MSTORE DUP1 PUSH1 0x2D DUP2 MSTORE PUSH1 0x20 ADD PUSH2 0x3897 PUSH1 0x2D SWAP2 CODECOPY SWAP6 POP SWAP6 POP POP POP POP POP SWAP2 POP SWAP2 JUMP JUMPDEST PUSH1 0xC0 DUP8 ADD MLOAD PUSH2 0x140 DUP9 ADD MLOAD PUSH1 0xA0 DUP10 ADD MLOAD PUSH1 0x40 MLOAD PUSH4 0x1E4C9F77 PUSH1 0xE1 SHL DUP2 MSTORE PUSH1 0x4 DUP2 ADD SWAP4 SWAP1 SWAP4 MSTORE PUSH1 0x24 DUP4 ADD SWAP2 SWAP1 SWAP2 MSTORE PUSH1 0x44 DUP3 ADD MSTORE PUSH1 0x1 PUSH1 0x1 PUSH1 0xA0 SHL SUB DUP6 AND SWAP1 PUSH4 0x3C993EEE SWAP1 PUSH1 0x64 ADD PUSH1 0x20 PUSH1 0x40 MLOAD DUP1 DUP4 SUB DUP2 DUP7 DUP1 EXTCODESIZE ISZERO DUP1 ISZERO PUSH2 0x1C43 JUMPI PUSH1 0x0 DUP1 REVERT JUMPDEST POP GAS STATICCALL ISZERO DUP1 ISZERO PUSH2 0x1C57 JUMPI RETURNDATASIZE PUSH1 0x0 DUP1 RETURNDATACOPY RETURNDATASIZE PUSH1 0x0 REVERT JUMPDEST POP POP POP POP PUSH1 0x40 MLOAD RETURNDATASIZE PUSH1 0x1F NOT PUSH1 0x1F DUP3 ADD AND DUP3 ADD DUP1 PUSH1 0x40 MSTORE POP DUP2 ADD SWAP1 PUSH2 0x1C7B SWAP2 SWAP1 PUSH2 0x2C12 JUMP JUMPDEST PUSH2 0x1CC4 JUMPI PUSH1 0x0 PUSH1 0x40 MLOAD DUP1 PUSH1 0x40 ADD PUSH1 0x40 MSTORE DUP1 PUSH1 0x1E DUP2 MSTORE PUSH1 0x20 ADD PUSH32 0x526F757465723A20536C697070616765206C696D697420657863656564730000 DUP2 MSTORE POP SWAP6 POP SWAP6 POP POP POP POP POP SWAP2 POP SWAP2 JUMP JUMPDEST PUSH1 0x1 PUSH1 0x40 MLOAD DUP1 PUSH1 0x20 ADD PUSH1 0x40 MSTORE DUP1 PUSH1 0x0 DUP2 MSTORE POP SWAP6 POP SWAP6 POP POP POP POP POP SWAP2 POP SWAP2 JUMP JUMPDEST PUSH1 0x80 DUP2 ADD MLOAD PUSH2 0x200 DUP3 ADD MLOAD PUSH2 0x1E0 DUP4 ADD MLOAD PUSH1 0x40 DUP1 MLOAD PUSH4 0x79502C55 PUSH1 0xE0 SHL DUP2 MSTORE SWAP1 MLOAD PUSH1 0x0 SWAP2 PUSH1 0x1 PUSH1 0x1 PUSH1 0xA0 SHL SUB DUP7 AND SWAP2 PUSH4 0x79502C55 SWAP2 PUSH1 0x4 DUP1 DUP3 ADD SWAP3 PUSH1 0x20 SWAP3 SWAP1 SWAP2 SWAP1 DUP3 SWAP1 SUB ADD DUP2 DUP7 DUP1 EXTCODESIZE ISZERO DUP1 ISZERO PUSH2 0x1D38 JUMPI PUSH1 0x0 DUP1 REVERT JUMPDEST POP GAS STATICCALL ISZERO DUP1 ISZERO PUSH2 0x1D4C JUMPI RETURNDATASIZE PUSH1 0x0 DUP1 RETURNDATACOPY RETURNDATASIZE PUSH1 0x0 REVERT JUMPDEST POP POP POP POP PUSH1 0x40 MLOAD RETURNDATASIZE PUSH1 0x1F NOT PUSH1 0x1F DUP3 ADD AND DUP3 ADD DUP1 PUSH1 0x40 MSTORE POP DUP2 ADD SWAP1 PUSH2 0x1D70 SWAP2 SWAP1 PUSH2 0x2CC4 JUMP JUMPDEST PUSH1 0x1 PUSH1 0x1 PUSH1 0xA0 SHL SUB AND PUSH4 0x26232A2E PUSH1 0x40 MLOAD DUP2 PUSH4 0xFFFFFFFF AND PUSH1 0xE0 SHL DUP2 MSTORE PUSH1 0x4 ADD PUSH1 0x20 PUSH1 0x40 MLOAD DUP1 DUP4 SUB DUP2 DUP7 DUP1 EXTCODESIZE ISZERO DUP1 ISZERO PUSH2 0x1DA8 JUMPI PUSH1 0x0 DUP1 REVERT JUMPDEST POP GAS STATICCALL ISZERO DUP1 ISZERO PUSH2 0x1DBC JUMPI RETURNDATASIZE PUSH1 0x0 DUP1 RETURNDATACOPY RETURNDATASIZE PUSH1 0x0 REVERT JUMPDEST POP POP POP POP PUSH1 0x40 MLOAD RETURNDATASIZE PUSH1 0x1F NOT PUSH1 0x1F DUP3 ADD AND DUP3 ADD DUP1 PUSH1 0x40 MSTORE POP DUP2 ADD SWAP1 PUSH2 0x1DE0 SWAP2 SWAP1 PUSH2 0x2DC9 JUMP JUMPDEST SWAP1 POP PUSH1 0x0 DUP1 PUSH1 0x0 DUP1 PUSH1 0x40 MLOAD DUP1 PUSH2 0x120 ADD PUSH1 0x40 MSTORE DUP1 DUP11 PUSH1 0xA0 ADD MLOAD DUP2 MSTORE PUSH1 0x20 ADD PUSH1 0x0 DUP2 MSTORE PUSH1 0x20 ADD DUP11 PUSH1 0x60 ADD MLOAD DUP2 MSTORE PUSH1 0x20 ADD DUP11 PUSH1 0xE0 ADD MLOAD ISZERO ISZERO DUP2 MSTORE PUSH1 0x20 ADD DUP7 DUP12 PUSH1 0x40 ADD MLOAD PUSH2 0x1E2B SWAP2 SWAP1 PUSH2 0x34DF JUMP JUMPDEST DUP2 MSTORE PUSH1 0x20 ADD DUP11 PUSH1 0x20 ADD MLOAD PUSH1 0x1 PUSH1 0x1 PUSH1 0xA0 SHL SUB AND DUP2 MSTORE PUSH1 0x20 ADD DUP11 PUSH2 0x100 ADD MLOAD DUP2 MSTORE PUSH1 0x20 ADD DUP11 PUSH2 0x120 ADD MLOAD DUP2 MSTORE PUSH1 0x20 ADD DUP11 PUSH2 0x160 ADD MLOAD DUP2 MSTORE POP SWAP1 POP DUP8 PUSH1 0x1 PUSH1 0x1 PUSH1 0xA0 SHL SUB AND PUSH4 0xFB11147 DUP3 DUP12 PUSH1 0xC0 ADD MLOAD PUSH1 0x40 MLOAD DUP4 PUSH4 0xFFFFFFFF AND PUSH1 0xE0 SHL DUP2 MSTORE PUSH1 0x4 ADD PUSH2 0x1E96 SWAP3 SWAP2 SWAP1 PUSH2 0x31D5 JUMP JUMPDEST PUSH1 0x60 PUSH1 0x40 MLOAD DUP1 DUP4 SUB DUP2 PUSH1 0x0 DUP8 DUP1 EXTCODESIZE ISZERO DUP1 ISZERO PUSH2 0x1EB0 JUMPI PUSH1 0x0 DUP1 REVERT JUMPDEST POP GAS CALL SWAP3 POP POP POP DUP1 ISZERO PUSH2 0x1EE0 JUMPI POP PUSH1 0x40 DUP1 MLOAD PUSH1 0x1F RETURNDATASIZE SWAP1 DUP2 ADD PUSH1 0x1F NOT AND DUP3 ADD SWAP1 SWAP3 MSTORE PUSH2 0x1EDD SWAP2 DUP2 ADD SWAP1 PUSH2 0x2DE1 JUMP JUMPDEST PUSH1 0x1 JUMPDEST PUSH2 0x1F63 JUMPI PUSH2 0x1EEC PUSH2 0x3789 JUMP JUMPDEST DUP1 PUSH4 0x8C379A0 EQ ISZERO PUSH2 0xC81 JUMPI POP PUSH2 0x1F01 PUSH2 0x37A1 JUMP JUMPDEST DUP1 PUSH2 0x1F0C JUMPI POP PUSH2 0xC83 JUMP JUMPDEST DUP10 PUSH1 0x20 ADD MLOAD PUSH1 0x1 PUSH1 0x1 PUSH1 0xA0 SHL SUB AND PUSH32 0xC804E178CB25D48CFFFF5DE67DD01D385E72784CE35BBC52AFFAD3E13DFA269A DUP12 PUSH1 0x0 ADD MLOAD DUP4 PUSH1 0x40 MLOAD PUSH2 0x1F4F SWAP3 SWAP2 SWAP1 PUSH2 0x334C JUMP JUMPDEST PUSH1 0x40 MLOAD DUP1 SWAP2 SUB SWAP1 LOG2 POP POP POP POP POP POP POP POP POP POP JUMP JUMPDEST SWAP2 SWAP6 POP SWAP4 POP SWAP2 POP PUSH1 0x0 DUP9 PUSH1 0x1 PUSH1 0x1 PUSH1 0xA0 SHL SUB AND PUSH4 0x16DC165B PUSH1 0x40 MLOAD DUP2 PUSH4 0xFFFFFFFF AND PUSH1 0xE0 SHL DUP2 MSTORE PUSH1 0x4 ADD PUSH1 0x20 PUSH1 0x40 MLOAD DUP1 DUP4 SUB DUP2 DUP7 DUP1 EXTCODESIZE ISZERO DUP1 ISZERO PUSH2 0x1FA5 JUMPI PUSH1 0x0 DUP1 REVERT JUMPDEST POP GAS STATICCALL ISZERO DUP1 ISZERO PUSH2 0x1FB9 JUMPI RETURNDATASIZE PUSH1 0x0 DUP1 RETURNDATACOPY RETURNDATASIZE PUSH1 0x0 REVERT JUMPDEST POP POP POP POP PUSH1 0x40 MLOAD RETURNDATASIZE PUSH1 0x1F NOT PUSH1 0x1F DUP3 ADD AND DUP3 ADD DUP1 PUSH1 0x40 MSTORE POP DUP2 ADD SWAP1 PUSH2 0x1FDD SWAP2 SWAP1 PUSH2 0x2CC4 JUMP JUMPDEST PUSH1 0x20 DUP12 ADD MLOAD PUSH1 0x3 SLOAD SWAP2 SWAP3 POP PUSH2 0x2000 SWAP2 PUSH1 0x1 PUSH1 0x1 PUSH1 0xA0 SHL SUB DUP1 DUP6 AND SWAP3 SWAP2 AND DUP10 PUSH2 0x235F JUMP JUMPDEST PUSH1 0x20 DUP11 ADD MLOAD PUSH1 0x80 DUP12 ADD MLOAD PUSH2 0x201F SWAP2 PUSH1 0x1 PUSH1 0x1 PUSH1 0xA0 SHL SUB DUP5 AND SWAP2 DUP8 PUSH2 0x235F JUMP JUMPDEST PUSH2 0x140 DUP11 ADD MLOAD DUP3 MSTORE PUSH1 0x20 DUP1 DUP4 ADD DUP7 SWAP1 MSTORE DUP9 ADD MLOAD PUSH1 0x40 MLOAD PUSH4 0x450AACAB PUSH1 0xE1 SHL DUP2 MSTORE PUSH1 0x0 SWAP2 PUSH1 0x1 PUSH1 0x1 PUSH1 0xA0 SHL SUB DUP13 AND SWAP2 PUSH4 0x8A155956 SWAP2 PUSH2 0x2063 SWAP2 DUP8 SWAP2 DUP10 SWAP2 PUSH1 0x4 ADD PUSH2 0x31B0 JUMP JUMPDEST PUSH1 0x20 PUSH1 0x40 MLOAD DUP1 DUP4 SUB DUP2 PUSH1 0x0 DUP8 DUP1 EXTCODESIZE ISZERO DUP1 ISZERO PUSH2 0x207D JUMPI PUSH1 0x0 DUP1 REVERT JUMPDEST POP GAS CALL ISZERO DUP1 ISZERO PUSH2 0x2091 JUMPI RETURNDATASIZE PUSH1 0x0 DUP1 RETURNDATACOPY RETURNDATASIZE PUSH1 0x0 REVERT JUMPDEST POP POP POP POP PUSH1 0x40 MLOAD RETURNDATASIZE PUSH1 0x1F NOT PUSH1 0x1F DUP3 ADD AND DUP3 ADD DUP1 PUSH1 0x40 MSTORE POP DUP2 ADD SWAP1 PUSH2 0x20B5 SWAP2 SWAP1 PUSH2 0x2DC9 JUMP JUMPDEST SWAP1 POP PUSH1 0x40 MLOAD DUP1 PUSH2 0x180 ADD PUSH1 0x40 MSTORE DUP1 DUP13 PUSH1 0x20 ADD MLOAD PUSH1 0x1 PUSH1 0x1 PUSH1 0xA0 SHL SUB AND DUP2 MSTORE PUSH1 0x20 ADD DUP13 PUSH1 0x40 ADD MLOAD DUP2 MSTORE PUSH1 0x20 ADD DUP13 PUSH1 0x60 ADD MLOAD DUP2 MSTORE PUSH1 0x20 ADD DUP13 PUSH1 0x80 ADD MLOAD PUSH1 0x1 PUSH1 0x1 PUSH1 0xA0 SHL SUB AND DUP2 MSTORE PUSH1 0x20 ADD DUP13 PUSH1 0xA0 ADD MLOAD DUP2 MSTORE PUSH1 0x20 ADD DUP13 PUSH1 0xC0 ADD MLOAD DUP2 MSTORE PUSH1 0x20 ADD DUP13 PUSH1 0xE0 ADD MLOAD ISZERO ISZERO DUP2 MSTORE PUSH1 0x20 ADD DUP13 PUSH2 0x100 ADD MLOAD DUP2 MSTORE PUSH1 0x20 ADD DUP13 PUSH2 0x120 ADD MLOAD DUP2 MSTORE PUSH1 0x20 ADD DUP13 PUSH2 0x160 ADD MLOAD DUP2 MSTORE PUSH1 0x20 ADD DUP13 PUSH2 0x180 ADD MLOAD ISZERO ISZERO DUP2 MSTORE PUSH1 0x20 ADD PUSH1 0x1 ISZERO ISZERO DUP2 MSTORE POP PUSH1 0x4 PUSH1 0x0 DUP14 PUSH1 0x0 ADD MLOAD DUP2 MSTORE PUSH1 0x20 ADD SWAP1 DUP2 MSTORE PUSH1 0x20 ADD PUSH1 0x0 KECCAK256 PUSH1 0x0 DUP3 ADD MLOAD DUP2 PUSH1 0x0 ADD PUSH1 0x0 PUSH2 0x100 EXP DUP2 SLOAD DUP2 PUSH1 0x1 PUSH1 0x1 PUSH1 0xA0 SHL SUB MUL NOT AND SWAP1 DUP4 PUSH1 0x1 PUSH1 0x1 PUSH1 0xA0 SHL SUB AND MUL OR SWAP1 SSTORE POP PUSH1 0x20 DUP3 ADD MLOAD DUP2 PUSH1 0x1 ADD SSTORE PUSH1 0x40 DUP3 ADD MLOAD DUP2 PUSH1 0x2 ADD SSTORE PUSH1 0x60 DUP3 ADD MLOAD DUP2 PUSH1 0x3 ADD PUSH1 0x0 PUSH2 0x100 EXP DUP2 SLOAD DUP2 PUSH1 0x1 PUSH1 0x1 PUSH1 0xA0 SHL SUB MUL NOT AND SWAP1 DUP4 PUSH1 0x1 PUSH1 0x1 PUSH1 0xA0 SHL SUB AND MUL OR SWAP1 SSTORE POP PUSH1 0x80 DUP3 ADD MLOAD DUP2 PUSH1 0x4 ADD SSTORE PUSH1 0xA0 DUP3 ADD MLOAD DUP2 PUSH1 0x5 ADD SSTORE PUSH1 0xC0 DUP3 ADD MLOAD DUP2 PUSH1 0x6 ADD PUSH1 0x0 PUSH2 0x100 EXP DUP2 SLOAD DUP2 PUSH1 0xFF MUL NOT AND SWAP1 DUP4 ISZERO ISZERO MUL OR SWAP1 SSTORE POP PUSH1 0xE0 DUP3 ADD MLOAD DUP2 PUSH1 0x7 ADD SWAP1 DUP1 MLOAD SWAP1 PUSH1 0x20 ADD SWAP1 PUSH2 0x2227 SWAP3 SWAP2 SWAP1 PUSH2 0x27F4 JUMP JUMPDEST POP PUSH2 0x100 DUP3 DUP2 ADD MLOAD PUSH1 0x8 DUP4 DUP2 ADD SWAP2 SWAP1 SWAP2 SSTORE PUSH2 0x120 DUP5 ADD MLOAD PUSH1 0x9 DUP5 ADD SSTORE PUSH2 0x140 DUP5 ADD MLOAD PUSH1 0xA SWAP1 SWAP4 ADD DUP1 SLOAD PUSH2 0x160 SWAP1 SWAP6 ADD MLOAD PUSH2 0xFFFF NOT SWAP1 SWAP6 AND SWAP4 ISZERO ISZERO PUSH2 0xFF00 NOT AND SWAP4 SWAP1 SWAP4 OR SWAP4 ISZERO ISZERO SWAP1 SWAP2 MUL SWAP3 SWAP1 SWAP3 OR SWAP1 SSTORE DUP9 MLOAD PUSH1 0x40 MLOAD PUSH1 0x1 SWAP3 SWAP2 PUSH2 0x2288 SWAP2 PUSH2 0x2FAB JUMP JUMPDEST SWAP1 DUP2 MSTORE PUSH1 0x40 DUP1 MLOAD PUSH1 0x20 SWAP3 DUP2 SWAP1 SUB DUP4 ADD DUP2 KECCAK256 DUP1 SLOAD PUSH1 0xFF NOT AND SWAP5 ISZERO ISZERO SWAP5 SWAP1 SWAP5 OR SWAP1 SWAP4 SSTORE DUP14 DUP3 ADD MLOAD DUP15 MLOAD DUP5 MSTORE SWAP2 DUP4 ADD DUP5 SWAP1 MSTORE PUSH1 0x1 PUSH1 0x1 PUSH1 0xA0 SHL SUB SWAP1 SWAP2 AND SWAP2 PUSH32 0x46961A5320EAFC3FB71B3051774237104D4CEC1687A31EED0C32262F0BE47902 SWAP2 ADD PUSH1 0x40 MLOAD DUP1 SWAP2 SUB SWAP1 LOG2 POP POP POP POP POP POP POP POP POP POP POP JUMP JUMPDEST PUSH2 0x2305 DUP3 DUP3 PUSH2 0xCAC JUMP JUMPDEST PUSH2 0x506 JUMPI PUSH2 0x231D DUP2 PUSH1 0x1 PUSH1 0x1 PUSH1 0xA0 SHL SUB AND PUSH1 0x14 PUSH2 0x23B9 JUMP JUMPDEST PUSH2 0x2328 DUP4 PUSH1 0x20 PUSH2 0x23B9 JUMP JUMPDEST PUSH1 0x40 MLOAD PUSH1 0x20 ADD PUSH2 0x2339 SWAP3 SWAP2 SWAP1 PUSH2 0x2FC7 JUMP JUMPDEST PUSH1 0x40 DUP1 MLOAD PUSH1 0x1F NOT DUP2 DUP5 SUB ADD DUP2 MSTORE SWAP1 DUP3 SWAP1 MSTORE PUSH3 0x461BCD PUSH1 0xE5 SHL DUP3 MSTORE PUSH2 0x4F3 SWAP2 PUSH1 0x4 ADD PUSH2 0x30B4 JUMP JUMPDEST PUSH1 0x40 DUP1 MLOAD PUSH1 0x1 PUSH1 0x1 PUSH1 0xA0 SHL SUB DUP6 DUP2 AND PUSH1 0x24 DUP4 ADD MSTORE DUP5 AND PUSH1 0x44 DUP3 ADD MSTORE PUSH1 0x64 DUP1 DUP3 ADD DUP5 SWAP1 MSTORE DUP3 MLOAD DUP1 DUP4 SUB SWAP1 SWAP2 ADD DUP2 MSTORE PUSH1 0x84 SWAP1 SWAP2 ADD SWAP1 SWAP2 MSTORE PUSH1 0x20 DUP2 ADD DUP1 MLOAD PUSH1 0x1 PUSH1 0x1 PUSH1 0xE0 SHL SUB AND PUSH4 0x23B872DD PUSH1 0xE0 SHL OR SWAP1 MSTORE PUSH2 0xCA6 SWAP1 DUP6 SWAP1 PUSH2 0x25A1 JUMP JUMPDEST PUSH1 0x60 PUSH1 0x0 PUSH2 0x23C8 DUP4 PUSH1 0x2 PUSH2 0x34C0 JUMP JUMPDEST PUSH2 0x23D3 SWAP1 PUSH1 0x2 PUSH2 0x34A8 JUMP JUMPDEST PUSH1 0x1 PUSH1 0x1 PUSH1 0x40 SHL SUB DUP2 GT ISZERO PUSH2 0x23F8 JUMPI PUSH4 0x4E487B71 PUSH1 0xE0 SHL PUSH1 0x0 MSTORE PUSH1 0x41 PUSH1 0x4 MSTORE PUSH1 0x24 PUSH1 0x0 REVERT JUMPDEST PUSH1 0x40 MLOAD SWAP1 DUP1 DUP3 MSTORE DUP1 PUSH1 0x1F ADD PUSH1 0x1F NOT AND PUSH1 0x20 ADD DUP3 ADD PUSH1 0x40 MSTORE DUP1 ISZERO PUSH2 0x2422 JUMPI PUSH1 0x20 DUP3 ADD DUP2 DUP1 CALLDATASIZE DUP4 CALLDATACOPY ADD SWAP1 POP JUMPDEST POP SWAP1 POP PUSH1 0x3 PUSH1 0xFC SHL DUP2 PUSH1 0x0 DUP2 MLOAD DUP2 LT PUSH2 0x244B JUMPI PUSH4 0x4E487B71 PUSH1 0xE0 SHL PUSH1 0x0 MSTORE PUSH1 0x32 PUSH1 0x4 MSTORE PUSH1 0x24 PUSH1 0x0 REVERT JUMPDEST PUSH1 0x20 ADD ADD SWAP1 PUSH1 0x1 PUSH1 0x1 PUSH1 0xF8 SHL SUB NOT AND SWAP1 DUP2 PUSH1 0x0 BYTE SWAP1 MSTORE8 POP PUSH1 0xF PUSH1 0xFB SHL DUP2 PUSH1 0x1 DUP2 MLOAD DUP2 LT PUSH2 0x2488 JUMPI PUSH4 0x4E487B71 PUSH1 0xE0 SHL PUSH1 0x0 MSTORE PUSH1 0x32 PUSH1 0x4 MSTORE PUSH1 0x24 PUSH1 0x0 REVERT JUMPDEST PUSH1 0x20 ADD ADD SWAP1 PUSH1 0x1 PUSH1 0x1 PUSH1 0xF8 SHL SUB NOT AND SWAP1 DUP2 PUSH1 0x0 BYTE SWAP1 MSTORE8 POP PUSH1 0x0 PUSH2 0x24AC DUP5 PUSH1 0x2 PUSH2 0x34C0 JUMP JUMPDEST PUSH2 0x24B7 SWAP1 PUSH1 0x1 PUSH2 0x34A8 JUMP JUMPDEST SWAP1 POP JUMPDEST PUSH1 0x1 DUP2 GT ISZERO PUSH2 0x254B JUMPI PUSH16 0x181899199A1A9B1B9C1CB0B131B232B3 PUSH1 0x81 SHL DUP6 PUSH1 0xF AND PUSH1 0x10 DUP2 LT PUSH2 0x24F9 JUMPI PUSH4 0x4E487B71 PUSH1 0xE0 SHL PUSH1 0x0 MSTORE PUSH1 0x32 PUSH1 0x4 MSTORE PUSH1 0x24 PUSH1 0x0 REVERT JUMPDEST BYTE PUSH1 0xF8 SHL DUP3 DUP3 DUP2 MLOAD DUP2 LT PUSH2 0x251D JUMPI PUSH4 0x4E487B71 PUSH1 0xE0 SHL PUSH1 0x0 MSTORE PUSH1 0x32 PUSH1 0x4 MSTORE PUSH1 0x24 PUSH1 0x0 REVERT JUMPDEST PUSH1 0x20 ADD ADD SWAP1 PUSH1 0x1 PUSH1 0x1 PUSH1 0xF8 SHL SUB NOT AND SWAP1 DUP2 PUSH1 0x0 BYTE SWAP1 MSTORE8 POP PUSH1 0x4 SWAP5 SWAP1 SWAP5 SHR SWAP4 PUSH2 0x2544 DUP2 PUSH2 0x3696 JUMP JUMPDEST SWAP1 POP PUSH2 0x24BA JUMP JUMPDEST POP DUP4 ISZERO PUSH2 0x259A JUMPI PUSH1 0x40 MLOAD PUSH3 0x461BCD PUSH1 0xE5 SHL DUP2 MSTORE PUSH1 0x20 PUSH1 0x4 DUP3 ADD DUP2 SWAP1 MSTORE PUSH1 0x24 DUP3 ADD MSTORE PUSH32 0x537472696E67733A20686578206C656E67746820696E73756666696369656E74 PUSH1 0x44 DUP3 ADD MSTORE PUSH1 0x64 ADD PUSH2 0x4F3 JUMP JUMPDEST SWAP4 SWAP3 POP POP POP JUMP JUMPDEST PUSH1 0x0 PUSH2 0x25F6 DUP3 PUSH1 0x40 MLOAD DUP1 PUSH1 0x40 ADD PUSH1 0x40 MSTORE DUP1 PUSH1 0x20 DUP2 MSTORE PUSH1 0x20 ADD PUSH32 0x5361666545524332303A206C6F772D6C6576656C2063616C6C206661696C6564 DUP2 MSTORE POP DUP6 PUSH1 0x1 PUSH1 0x1 PUSH1 0xA0 SHL SUB AND PUSH2 0x2673 SWAP1 SWAP3 SWAP2 SWAP1 PUSH4 0xFFFFFFFF AND JUMP JUMPDEST DUP1 MLOAD SWAP1 SWAP2 POP ISZERO PUSH2 0x482 JUMPI DUP1 DUP1 PUSH1 0x20 ADD SWAP1 MLOAD DUP2 ADD SWAP1 PUSH2 0x2614 SWAP2 SWAP1 PUSH2 0x2C12 JUMP JUMPDEST PUSH2 0x482 JUMPI PUSH1 0x40 MLOAD PUSH3 0x461BCD PUSH1 0xE5 SHL DUP2 MSTORE PUSH1 0x20 PUSH1 0x4 DUP3 ADD MSTORE PUSH1 0x2A PUSH1 0x24 DUP3 ADD MSTORE PUSH32 0x5361666545524332303A204552433230206F7065726174696F6E20646964206E PUSH1 0x44 DUP3 ADD MSTORE PUSH10 0x1BDD081CDD58D8D95959 PUSH1 0xB2 SHL PUSH1 0x64 DUP3 ADD MSTORE PUSH1 0x84 ADD PUSH2 0x4F3 JUMP JUMPDEST PUSH1 0x60 PUSH2 0x2682 DUP5 DUP5 PUSH1 0x0 DUP6 PUSH2 0x268A JUMP JUMPDEST SWAP5 SWAP4 POP POP POP POP JUMP JUMPDEST PUSH1 0x60 DUP3 SELFBALANCE LT ISZERO PUSH2 0x26EB JUMPI PUSH1 0x40 MLOAD PUSH3 0x461BCD PUSH1 0xE5 SHL DUP2 MSTORE PUSH1 0x20 PUSH1 0x4 DUP3 ADD MSTORE PUSH1 0x26 PUSH1 0x24 DUP3 ADD MSTORE PUSH32 0x416464726573733A20696E73756666696369656E742062616C616E636520666F PUSH1 0x44 DUP3 ADD MSTORE PUSH6 0x1C8818D85B1B PUSH1 0xD2 SHL PUSH1 0x64 DUP3 ADD MSTORE PUSH1 0x84 ADD PUSH2 0x4F3 JUMP JUMPDEST PUSH1 0x1 PUSH1 0x1 PUSH1 0xA0 SHL SUB DUP6 AND EXTCODESIZE PUSH2 0x2742 JUMPI PUSH1 0x40 MLOAD PUSH3 0x461BCD PUSH1 0xE5 SHL DUP2 MSTORE PUSH1 0x20 PUSH1 0x4 DUP3 ADD MSTORE PUSH1 0x1D PUSH1 0x24 DUP3 ADD MSTORE PUSH32 0x416464726573733A2063616C6C20746F206E6F6E2D636F6E7472616374000000 PUSH1 0x44 DUP3 ADD MSTORE PUSH1 0x64 ADD PUSH2 0x4F3 JUMP JUMPDEST PUSH1 0x0 DUP1 DUP7 PUSH1 0x1 PUSH1 0x1 PUSH1 0xA0 SHL SUB AND DUP6 DUP8 PUSH1 0x40 MLOAD PUSH2 0x275E SWAP2 SWAP1 PUSH2 0x2FAB JUMP JUMPDEST PUSH1 0x0 PUSH1 0x40 MLOAD DUP1 DUP4 SUB DUP2 DUP6 DUP8 GAS CALL SWAP3 POP POP POP RETURNDATASIZE DUP1 PUSH1 0x0 DUP2 EQ PUSH2 0x279B JUMPI PUSH1 0x40 MLOAD SWAP2 POP PUSH1 0x1F NOT PUSH1 0x3F RETURNDATASIZE ADD AND DUP3 ADD PUSH1 0x40 MSTORE RETURNDATASIZE DUP3 MSTORE RETURNDATASIZE PUSH1 0x0 PUSH1 0x20 DUP5 ADD RETURNDATACOPY PUSH2 0x27A0 JUMP JUMPDEST PUSH1 0x60 SWAP2 POP JUMPDEST POP SWAP2 POP SWAP2 POP PUSH2 0x27B0 DUP3 DUP3 DUP7 PUSH2 0x27BB JUMP JUMPDEST SWAP8 SWAP7 POP POP POP POP POP POP POP JUMP JUMPDEST PUSH1 0x60 DUP4 ISZERO PUSH2 0x27CA JUMPI POP DUP2 PUSH2 0x259A JUMP JUMPDEST DUP3 MLOAD ISZERO PUSH2 0x27DA JUMPI DUP3 MLOAD DUP1 DUP5 PUSH1 0x20 ADD REVERT JUMPDEST DUP2 PUSH1 0x40 MLOAD PUSH3 0x461BCD PUSH1 0xE5 SHL DUP2 MSTORE PUSH1 0x4 ADD PUSH2 0x4F3 SWAP2 SWAP1 PUSH2 0x30B4 JUMP JUMPDEST DUP3 DUP1 SLOAD PUSH2 0x2800 SWAP1 PUSH2 0x36AD JUMP JUMPDEST SWAP1 PUSH1 0x0 MSTORE PUSH1 0x20 PUSH1 0x0 KECCAK256 SWAP1 PUSH1 0x1F ADD PUSH1 0x20 SWAP1 DIV DUP2 ADD SWAP3 DUP3 PUSH2 0x2822 JUMPI PUSH1 0x0 DUP6 SSTORE PUSH2 0x2868 JUMP JUMPDEST DUP3 PUSH1 0x1F LT PUSH2 0x283B JUMPI DUP1 MLOAD PUSH1 0xFF NOT AND DUP4 DUP1 ADD OR DUP6 SSTORE PUSH2 0x2868 JUMP JUMPDEST DUP3 DUP1 ADD PUSH1 0x1 ADD DUP6 SSTORE DUP3 ISZERO PUSH2 0x2868 JUMPI SWAP2 DUP3 ADD JUMPDEST DUP3 DUP2 GT ISZERO PUSH2 0x2868 JUMPI DUP3 MLOAD DUP3 SSTORE SWAP2 PUSH1 0x20 ADD SWAP2 SWAP1 PUSH1 0x1 ADD SWAP1 PUSH2 0x284D JUMP JUMPDEST POP PUSH2 0x2874 SWAP3 SWAP2 POP PUSH2 0x2878 JUMP JUMPDEST POP SWAP1 JUMP JUMPDEST JUMPDEST DUP1 DUP3 GT ISZERO PUSH2 0x2874 JUMPI PUSH1 0x0 DUP2 SSTORE PUSH1 0x1 ADD PUSH2 0x2879 JUMP JUMPDEST DUP1 CALLDATALOAD PUSH2 0x2898 DUP2 PUSH2 0x382A JUMP JUMPDEST SWAP2 SWAP1 POP JUMP JUMPDEST PUSH1 0x0 DUP1 DUP4 PUSH1 0x1F DUP5 ADD SLT PUSH2 0x28AE JUMPI DUP2 DUP3 REVERT JUMPDEST POP DUP2 CALLDATALOAD PUSH1 0x1 PUSH1 0x1 PUSH1 0x40 SHL SUB DUP2 GT ISZERO PUSH2 0x28C4 JUMPI DUP2 DUP3 REVERT JUMPDEST PUSH1 0x20 DUP4 ADD SWAP2 POP DUP4 PUSH1 0x20 DUP3 PUSH1 0x5 SHL DUP6 ADD ADD GT ISZERO PUSH2 0x28DF JUMPI PUSH1 0x0 DUP1 REVERT JUMPDEST SWAP3 POP SWAP3 SWAP1 POP JUMP JUMPDEST DUP1 CALLDATALOAD PUSH2 0x2898 DUP2 PUSH2 0x383F JUMP JUMPDEST PUSH1 0x0 DUP3 PUSH1 0x1F DUP4 ADD SLT PUSH2 0x2901 JUMPI DUP1 DUP2 REVERT JUMPDEST DUP2 CALLDATALOAD PUSH2 0x290C DUP2 PUSH2 0x3481 JUMP JUMPDEST PUSH1 0x40 MLOAD PUSH2 0x2919 DUP3 DUP3 PUSH2 0x370D JUMP JUMPDEST DUP3 DUP2 MSTORE DUP6 PUSH1 0x20 DUP5 DUP8 ADD ADD GT ISZERO PUSH2 0x292D JUMPI DUP4 DUP5 REVERT JUMPDEST DUP3 PUSH1 0x20 DUP7 ADD PUSH1 0x20 DUP4 ADD CALLDATACOPY SWAP2 DUP3 ADD PUSH1 0x20 ADD SWAP3 SWAP1 SWAP3 MSTORE SWAP4 SWAP3 POP POP POP JUMP JUMPDEST PUSH1 0x0 PUSH1 0x40 DUP3 DUP5 SUB SLT ISZERO PUSH2 0x2959 JUMPI DUP1 DUP2 REVERT JUMPDEST PUSH1 0x40 MLOAD PUSH2 0x2965 DUP2 PUSH2 0x36E8 JUMP JUMPDEST SWAP1 POP DUP1 DUP3 CALLDATALOAD PUSH1 0x1 PUSH1 0x1 PUSH1 0x40 SHL SUB DUP1 DUP3 GT ISZERO PUSH2 0x297F JUMPI PUSH1 0x0 DUP1 REVERT JUMPDEST PUSH2 0x298B DUP7 DUP4 DUP8 ADD PUSH2 0x29BB JUMP JUMPDEST DUP4 MSTORE PUSH1 0x20 DUP6 ADD CALLDATALOAD SWAP2 POP DUP1 DUP3 GT ISZERO PUSH2 0x29A1 JUMPI PUSH1 0x0 DUP1 REVERT JUMPDEST POP PUSH2 0x29AE DUP6 DUP3 DUP7 ADD PUSH2 0x2A68 JUMP JUMPDEST PUSH1 0x20 DUP4 ADD MSTORE POP POP SWAP3 SWAP2 POP POP JUMP JUMPDEST PUSH1 0x0 PUSH1 0xE0 DUP3 DUP5 SUB SLT ISZERO PUSH2 0x29CC JUMPI DUP1 DUP2 REVERT JUMPDEST PUSH2 0x29D4 PUSH2 0x3429 JUMP JUMPDEST SWAP1 POP DUP2 CALLDATALOAD DUP2 MSTORE PUSH1 0x20 DUP3 ADD CALLDATALOAD PUSH1 0x20 DUP3 ADD MSTORE PUSH2 0x29F0 PUSH1 0x40 DUP4 ADD PUSH2 0x288D JUMP JUMPDEST PUSH1 0x40 DUP3 ADD MSTORE PUSH1 0x60 DUP3 ADD CALLDATALOAD PUSH1 0x60 DUP3 ADD MSTORE PUSH2 0x2A0B PUSH1 0x80 DUP4 ADD PUSH2 0x28E6 JUMP JUMPDEST PUSH1 0x80 DUP3 ADD MSTORE PUSH1 0xA0 DUP3 ADD CALLDATALOAD PUSH1 0x1 PUSH1 0x1 PUSH1 0x40 SHL SUB DUP1 DUP3 GT ISZERO PUSH2 0x2A2A JUMPI PUSH1 0x0 DUP1 REVERT JUMPDEST PUSH2 0x2A36 DUP6 DUP4 DUP7 ADD PUSH2 0x2A68 JUMP JUMPDEST PUSH1 0xA0 DUP5 ADD MSTORE PUSH1 0xC0 DUP5 ADD CALLDATALOAD SWAP2 POP DUP1 DUP3 GT ISZERO PUSH2 0x2A4F JUMPI PUSH1 0x0 DUP1 REVERT JUMPDEST POP PUSH2 0x2A5C DUP5 DUP3 DUP6 ADD PUSH2 0x2A68 JUMP JUMPDEST PUSH1 0xC0 DUP4 ADD MSTORE POP SWAP3 SWAP2 POP POP JUMP JUMPDEST PUSH1 0x0 PUSH1 0x40 DUP3 DUP5 SUB SLT ISZERO PUSH2 0x2A79 JUMPI DUP1 DUP2 REVERT JUMPDEST PUSH1 0x40 MLOAD PUSH2 0x2A85 DUP2 PUSH2 0x36E8 JUMP JUMPDEST SWAP1 POP DUP1 DUP3 CALLDATALOAD PUSH1 0x1 PUSH1 0x1 PUSH1 0x40 SHL SUB DUP2 GT ISZERO PUSH2 0x2A9E JUMPI PUSH1 0x0 DUP1 REVERT JUMPDEST PUSH2 0x2AAA DUP6 DUP3 DUP7 ADD PUSH2 0x28F1 JUMP JUMPDEST DUP3 MSTORE POP PUSH1 0x20 DUP4 ADD CALLDATALOAD PUSH1 0x20 DUP3 ADD MSTORE POP SWAP3 SWAP2 POP POP JUMP JUMPDEST PUSH1 0x0 PUSH1 0x20 DUP3 DUP5 SUB SLT ISZERO PUSH2 0x2ACF JUMPI DUP1 DUP2 REVERT JUMPDEST DUP2 CALLDATALOAD PUSH2 0x259A DUP2 PUSH2 0x382A JUMP JUMPDEST PUSH1 0x0 DUP1 PUSH1 0x40 DUP4 DUP6 SUB SLT ISZERO PUSH2 0x2AEC JUMPI DUP1 DUP2 REVERT JUMPDEST DUP3 CALLDATALOAD PUSH2 0x2AF7 DUP2 PUSH2 0x382A JUMP JUMPDEST SWAP2 POP PUSH1 0x20 DUP4 ADD CALLDATALOAD PUSH2 0x2B07 DUP2 PUSH2 0x383F JUMP JUMPDEST DUP1 SWAP2 POP POP SWAP3 POP SWAP3 SWAP1 POP JUMP JUMPDEST PUSH1 0x0 PUSH1 0x20 DUP1 DUP4 DUP6 SUB SLT ISZERO PUSH2 0x2B24 JUMPI DUP2 DUP3 REVERT JUMPDEST DUP3 CALLDATALOAD PUSH1 0x1 PUSH1 0x1 PUSH1 0x40 SHL SUB DUP1 DUP3 GT ISZERO PUSH2 0x2B3A JUMPI DUP4 DUP5 REVERT JUMPDEST DUP2 DUP6 ADD SWAP2 POP DUP6 PUSH1 0x1F DUP4 ADD SLT PUSH2 0x2B4D JUMPI DUP4 DUP5 REVERT JUMPDEST DUP2 CALLDATALOAD DUP2 DUP2 GT ISZERO PUSH2 0x2B5F JUMPI PUSH2 0x2B5F PUSH2 0x3773 JUMP JUMPDEST DUP1 PUSH1 0x5 SHL PUSH2 0x2B6E DUP6 DUP3 ADD PUSH2 0x3474 JUMP JUMPDEST DUP3 DUP2 MSTORE DUP6 DUP2 ADD SWAP1 DUP6 DUP8 ADD DUP4 DUP8 ADD DUP9 ADD DUP12 LT ISZERO PUSH2 0x2B88 JUMPI DUP9 DUP10 REVERT JUMPDEST DUP9 SWAP4 POP JUMPDEST DUP5 DUP5 LT ISZERO PUSH2 0x2BC5 JUMPI DUP1 CALLDATALOAD DUP7 DUP2 GT ISZERO PUSH2 0x2BA2 JUMPI DUP10 DUP11 REVERT JUMPDEST PUSH2 0x2BB0 DUP13 DUP11 DUP4 DUP12 ADD ADD PUSH2 0x2948 JUMP JUMPDEST DUP5 MSTORE POP PUSH1 0x1 SWAP4 SWAP1 SWAP4 ADD SWAP3 SWAP2 DUP8 ADD SWAP2 DUP8 ADD PUSH2 0x2B8C JUMP JUMPDEST POP SWAP10 SWAP9 POP POP POP POP POP POP POP POP POP JUMP JUMPDEST PUSH1 0x0 DUP1 PUSH1 0x20 DUP4 DUP6 SUB SLT ISZERO PUSH2 0x2BE5 JUMPI DUP2 DUP3 REVERT JUMPDEST DUP3 CALLDATALOAD PUSH1 0x1 PUSH1 0x1 PUSH1 0x40 SHL SUB DUP2 GT ISZERO PUSH2 0x2BFA JUMPI DUP3 DUP4 REVERT JUMPDEST PUSH2 0x2C06 DUP6 DUP3 DUP7 ADD PUSH2 0x289D JUMP JUMPDEST SWAP1 SWAP7 SWAP1 SWAP6 POP SWAP4 POP POP POP POP JUMP JUMPDEST PUSH1 0x0 PUSH1 0x20 DUP3 DUP5 SUB SLT ISZERO PUSH2 0x2C23 JUMPI DUP1 DUP2 REVERT JUMPDEST DUP2 MLOAD PUSH2 0x259A DUP2 PUSH2 0x383F JUMP JUMPDEST PUSH1 0x0 PUSH1 0x20 DUP3 DUP5 SUB SLT ISZERO PUSH2 0x2C3F JUMPI DUP1 DUP2 REVERT JUMPDEST POP CALLDATALOAD SWAP2 SWAP1 POP JUMP JUMPDEST PUSH1 0x0 DUP1 PUSH1 0x40 DUP4 DUP6 SUB SLT ISZERO PUSH2 0x2C58 JUMPI DUP2 DUP3 REVERT JUMPDEST DUP3 CALLDATALOAD SWAP2 POP PUSH1 0x20 DUP4 ADD CALLDATALOAD PUSH2 0x2B07 DUP2 PUSH2 0x382A JUMP JUMPDEST PUSH1 0x0 PUSH1 0x20 DUP3 DUP5 SUB SLT ISZERO PUSH2 0x2C7B JUMPI DUP1 DUP2 REVERT JUMPDEST DUP2 CALLDATALOAD PUSH1 0x1 PUSH1 0x1 PUSH1 0xE0 SHL SUB NOT DUP2 AND DUP2 EQ PUSH2 0x259A JUMPI DUP2 DUP3 REVERT JUMPDEST PUSH1 0x0 PUSH1 0x20 DUP3 DUP5 SUB SLT ISZERO PUSH2 0x2CA3 JUMPI DUP1 DUP2 REVERT JUMPDEST DUP2 CALLDATALOAD PUSH1 0x1 PUSH1 0x1 PUSH1 0x40 SHL SUB DUP2 GT ISZERO PUSH2 0x2CB8 JUMPI DUP2 DUP3 REVERT JUMPDEST PUSH2 0x2682 DUP5 DUP3 DUP6 ADD PUSH2 0x28F1 JUMP JUMPDEST PUSH1 0x0 PUSH1 0x20 DUP3 DUP5 SUB SLT ISZERO PUSH2 0x2CD5 JUMPI DUP1 DUP2 REVERT JUMPDEST DUP2 MLOAD PUSH2 0x259A DUP2 PUSH2 0x382A JUMP JUMPDEST PUSH1 0x0 DUP1 PUSH1 0x0 DUP1 PUSH1 0x0 DUP1 PUSH1 0x0 DUP1 PUSH2 0x100 DUP10 DUP12 SUB SLT ISZERO PUSH2 0x2CFC JUMPI DUP4 DUP5 REVERT JUMPDEST DUP9 MLOAD PUSH1 0x4 DUP2 LT PUSH2 0x2D0A JUMPI DUP5 DUP6 REVERT JUMPDEST DUP1 SWAP9 POP POP PUSH1 0x20 DUP10 ADD MLOAD SWAP7 POP PUSH1 0x40 DUP10 ADD MLOAD SWAP6 POP PUSH1 0x60 DUP10 ADD MLOAD SWAP5 POP PUSH1 0x80 DUP10 ADD MLOAD SWAP4 POP PUSH1 0xA0 DUP10 ADD MLOAD SWAP3 POP PUSH1 0xC0 DUP10 ADD MLOAD SWAP2 POP PUSH1 0xE0 DUP10 ADD MLOAD SWAP1 POP SWAP3 SWAP6 SWAP9 POP SWAP3 SWAP6 SWAP9 SWAP1 SWAP4 SWAP7 POP JUMP JUMPDEST PUSH1 0x0 PUSH1 0x20 DUP3 DUP5 SUB SLT ISZERO PUSH2 0x2D5D JUMPI DUP1 DUP2 REVERT JUMPDEST DUP2 MLOAD PUSH1 0x1 PUSH1 0x1 PUSH1 0x40 SHL SUB DUP2 GT ISZERO PUSH2 0x2D72 JUMPI DUP2 DUP3 REVERT JUMPDEST DUP3 ADD PUSH1 0x1F DUP2 ADD DUP5 SGT PUSH2 0x2D82 JUMPI DUP2 DUP3 REVERT JUMPDEST DUP1 MLOAD PUSH2 0x2D8D DUP2 PUSH2 0x3481 JUMP JUMPDEST PUSH1 0x40 MLOAD PUSH2 0x2D9A DUP3 DUP3 PUSH2 0x370D JUMP JUMPDEST DUP3 DUP2 MSTORE DUP7 PUSH1 0x20 DUP5 DUP7 ADD ADD GT ISZERO PUSH2 0x2DAE JUMPI DUP5 DUP6 REVERT JUMPDEST PUSH2 0x2DBF DUP4 PUSH1 0x20 DUP4 ADD PUSH1 0x20 DUP8 ADD PUSH2 0x366A JUMP JUMPDEST SWAP7 SWAP6 POP POP POP POP POP POP JUMP JUMPDEST PUSH1 0x0 PUSH1 0x20 DUP3 DUP5 SUB SLT ISZERO PUSH2 0x2DDA JUMPI DUP1 DUP2 REVERT JUMPDEST POP MLOAD SWAP2 SWAP1 POP JUMP JUMPDEST PUSH1 0x0 DUP1 PUSH1 0x0 PUSH1 0x60 DUP5 DUP7 SUB SLT ISZERO PUSH2 0x2DF5 JUMPI DUP1 DUP2 REVERT JUMPDEST DUP4 MLOAD SWAP3 POP PUSH1 0x20 DUP5 ADD MLOAD SWAP2 POP PUSH1 0x40 DUP5 ADD MLOAD PUSH2 0x2E0E DUP2 PUSH2 0x383F JUMP JUMPDEST DUP1 SWAP2 POP POP SWAP3 POP SWAP3 POP SWAP3 JUMP JUMPDEST PUSH1 0x1 PUSH1 0x1 PUSH1 0xA0 SHL SUB AND SWAP1 MSTORE JUMP JUMPDEST PUSH1 0x0 DUP2 MLOAD DUP1 DUP5 MSTORE PUSH2 0x2E3E DUP2 PUSH1 0x20 DUP7 ADD PUSH1 0x20 DUP7 ADD PUSH2 0x366A JUMP JUMPDEST PUSH1 0x1F ADD PUSH1 0x1F NOT AND SWAP3 SWAP1 SWAP3 ADD PUSH1 0x20 ADD SWAP3 SWAP2 POP POP JUMP JUMPDEST PUSH1 0x0 PUSH2 0x120 DUP3 MLOAD DUP5 MSTORE PUSH1 0x20 DUP4 ADD MLOAD PUSH1 0x20 DUP6 ADD MSTORE PUSH1 0x40 DUP4 ADD MLOAD PUSH1 0x40 DUP6 ADD MSTORE PUSH1 0x60 DUP4 ADD MLOAD ISZERO ISZERO PUSH1 0x60 DUP6 ADD MSTORE PUSH1 0x80 DUP4 ADD MLOAD PUSH1 0x80 DUP6 ADD MSTORE PUSH1 0xA0 DUP4 ADD MLOAD PUSH2 0x2E97 PUSH1 0xA0 DUP7 ADD DUP3 PUSH2 0x2E19 JUMP JUMPDEST POP PUSH1 0xC0 DUP4 ADD MLOAD DUP2 PUSH1 0xC0 DUP7 ADD MSTORE PUSH2 0x2EAF DUP3 DUP7 ADD DUP3 PUSH2 0x2E26 JUMP JUMPDEST PUSH1 0xE0 DUP6 DUP2 ADD MLOAD SWAP1 DUP8 ADD MSTORE PUSH2 0x100 SWAP5 DUP6 ADD MLOAD SWAP5 SWAP1 SWAP6 ADD SWAP4 SWAP1 SWAP4 MSTORE POP SWAP2 SWAP3 SWAP2 POP POP JUMP JUMPDEST PUSH1 0x0 PUSH2 0x180 PUSH2 0x2EE0 DUP5 DUP5 MLOAD PUSH2 0x2E19 JUMP JUMPDEST PUSH1 0x20 DUP4 ADD MLOAD PUSH1 0x20 DUP6 ADD MSTORE PUSH1 0x40 DUP4 ADD MLOAD PUSH1 0x40 DUP6 ADD MSTORE PUSH1 0x60 DUP4 ADD MLOAD PUSH2 0x2F06 PUSH1 0x60 DUP7 ADD DUP3 PUSH2 0x2E19 JUMP JUMPDEST POP PUSH1 0x80 DUP4 ADD MLOAD PUSH1 0x80 DUP6 ADD MSTORE PUSH1 0xA0 DUP4 ADD MLOAD PUSH1 0xA0 DUP6 ADD MSTORE PUSH1 0xC0 DUP4 ADD MLOAD PUSH2 0x2F2E PUSH1 0xC0 DUP7 ADD DUP3 ISZERO ISZERO SWAP1 MSTORE JUMP JUMPDEST POP PUSH1 0xE0 DUP4 ADD MLOAD DUP2 PUSH1 0xE0 DUP7 ADD MSTORE PUSH2 0x2F46 DUP3 DUP7 ADD DUP3 PUSH2 0x2E26 JUMP JUMPDEST PUSH2 0x100 DUP6 DUP2 ADD MLOAD SWAP1 DUP8 ADD MSTORE PUSH2 0x120 DUP1 DUP7 ADD MLOAD SWAP1 DUP8 ADD MSTORE PUSH2 0x140 DUP1 DUP7 ADD MLOAD ISZERO ISZERO SWAP1 DUP8 ADD MSTORE PUSH2 0x160 SWAP5 DUP6 ADD MLOAD ISZERO ISZERO SWAP5 SWAP1 SWAP6 ADD SWAP4 SWAP1 SWAP4 MSTORE POP SWAP2 SWAP3 SWAP2 POP POP JUMP JUMPDEST PUSH1 0x0 DUP2 MLOAD PUSH1 0x40 DUP5 MSTORE PUSH2 0x2F97 PUSH1 0x40 DUP6 ADD DUP3 PUSH2 0x2E26 JUMP JUMPDEST PUSH1 0x20 SWAP4 DUP5 ADD MLOAD SWAP5 SWAP1 SWAP4 ADD SWAP4 SWAP1 SWAP4 MSTORE POP SWAP2 SWAP1 POP JUMP JUMPDEST PUSH1 0x0 DUP3 MLOAD PUSH2 0x2FBD DUP2 DUP5 PUSH1 0x20 DUP8 ADD PUSH2 0x366A JUMP JUMPDEST SWAP2 SWAP1 SWAP2 ADD SWAP3 SWAP2 POP POP JUMP JUMPDEST PUSH23 0x20B1B1B2B9B9A1B7B73A3937B61D1030B1B1B7BAB73A1 PUSH1 0x4D SHL DUP2 MSTORE PUSH1 0x0 DUP4 MLOAD PUSH2 0x2FF9 DUP2 PUSH1 0x17 DUP6 ADD PUSH1 0x20 DUP9 ADD PUSH2 0x366A JUMP JUMPDEST PUSH17 0x1034B99036B4B9B9B4B733903937B6329 PUSH1 0x7D SHL PUSH1 0x17 SWAP2 DUP5 ADD SWAP2 DUP3 ADD MSTORE DUP4 MLOAD PUSH2 0x302A DUP2 PUSH1 0x28 DUP5 ADD PUSH1 0x20 DUP9 ADD PUSH2 0x366A JUMP JUMPDEST ADD PUSH1 0x28 ADD SWAP5 SWAP4 POP POP POP POP JUMP JUMPDEST PUSH1 0x0 PUSH1 0x1 DUP1 PUSH1 0xA0 SHL SUB DUP1 DUP16 AND DUP4 MSTORE DUP14 PUSH1 0x20 DUP5 ADD MSTORE DUP13 PUSH1 0x40 DUP5 ADD MSTORE DUP1 DUP13 AND PUSH1 0x60 DUP5 ADD MSTORE POP DUP10 PUSH1 0x80 DUP4 ADD MSTORE DUP9 PUSH1 0xA0 DUP4 ADD MSTORE DUP8 ISZERO ISZERO PUSH1 0xC0 DUP4 ADD MSTORE PUSH2 0x180 PUSH1 0xE0 DUP4 ADD MSTORE PUSH2 0x3083 PUSH2 0x180 DUP4 ADD DUP9 PUSH2 0x2E26 JUMP JUMPDEST PUSH2 0x100 DUP4 ADD SWAP7 SWAP1 SWAP7 MSTORE POP PUSH2 0x120 DUP2 ADD SWAP4 SWAP1 SWAP4 MSTORE SWAP1 ISZERO ISZERO PUSH2 0x140 DUP4 ADD MSTORE ISZERO ISZERO PUSH2 0x160 SWAP1 SWAP2 ADD MSTORE SWAP9 SWAP8 POP POP POP POP POP POP POP POP JUMP JUMPDEST PUSH1 0x20 DUP2 MSTORE PUSH1 0x0 PUSH2 0x259A PUSH1 0x20 DUP4 ADD DUP5 PUSH2 0x2E26 JUMP JUMPDEST PUSH1 0xA0 DUP2 MSTORE PUSH1 0x0 PUSH2 0x30DA PUSH1 0xA0 DUP4 ADD DUP9 PUSH2 0x2E26 JUMP JUMPDEST DUP7 PUSH1 0x20 DUP5 ADD MSTORE DUP6 PUSH1 0x40 DUP5 ADD MSTORE DUP3 DUP2 SUB PUSH1 0x60 DUP5 ADD MSTORE PUSH2 0x30F8 DUP2 DUP7 PUSH2 0x2E26 JUMP JUMPDEST SWAP2 POP POP PUSH1 0x1 DUP1 PUSH1 0xA0 SHL SUB DUP4 AND PUSH1 0x80 DUP4 ADD MSTORE SWAP7 SWAP6 POP POP POP POP POP POP JUMP JUMPDEST PUSH1 0x60 DUP2 MSTORE DUP4 MLOAD PUSH1 0x60 DUP3 ADD MSTORE PUSH1 0x20 DUP5 ADD MLOAD PUSH1 0x80 DUP3 ADD MSTORE PUSH1 0x1 DUP1 PUSH1 0xA0 SHL SUB PUSH1 0x40 DUP6 ADD MLOAD AND PUSH1 0xA0 DUP3 ADD MSTORE PUSH1 0x60 DUP5 ADD MLOAD PUSH1 0xC0 DUP3 ADD MSTORE PUSH1 0x80 DUP5 ADD MLOAD ISZERO ISZERO PUSH1 0xE0 DUP3 ADD MSTORE PUSH1 0x0 PUSH1 0xA0 DUP6 ADD MLOAD PUSH1 0xE0 PUSH2 0x100 DUP5 ADD MSTORE PUSH2 0x316D PUSH2 0x140 DUP5 ADD DUP3 PUSH2 0x2F82 JUMP JUMPDEST SWAP1 POP PUSH1 0xC0 DUP7 ADD MLOAD PUSH1 0x5F NOT DUP5 DUP4 SUB ADD PUSH2 0x120 DUP6 ADD MSTORE PUSH2 0x318B DUP3 DUP3 PUSH2 0x2F82 JUMP JUMPDEST SWAP2 POP POP DUP3 DUP2 SUB PUSH1 0x20 DUP5 ADD MSTORE PUSH2 0x31A0 DUP2 DUP7 PUSH2 0x2ED0 JUMP JUMPDEST SWAP2 POP POP PUSH2 0x2682 PUSH1 0x40 DUP4 ADD DUP5 PUSH2 0x2E19 JUMP JUMPDEST PUSH1 0x60 DUP2 MSTORE PUSH1 0x0 PUSH2 0x31C3 PUSH1 0x60 DUP4 ADD DUP7 PUSH2 0x2E52 JUMP JUMPDEST SWAP4 ISZERO ISZERO PUSH1 0x20 DUP4 ADD MSTORE POP PUSH1 0x40 ADD MSTORE SWAP2 SWAP1 POP JUMP JUMPDEST PUSH1 0x40 DUP2 MSTORE PUSH1 0x0 PUSH2 0x31E8 PUSH1 0x40 DUP4 ADD DUP6 PUSH2 0x2E52 JUMP JUMPDEST SWAP1 POP DUP3 PUSH1 0x20 DUP4 ADD MSTORE SWAP4 SWAP3 POP POP POP JUMP JUMPDEST PUSH1 0x40 DUP2 MSTORE DUP3 MLOAD PUSH1 0x40 DUP3 ADD MSTORE PUSH1 0x0 PUSH1 0x20 DUP5 ADD MLOAD PUSH2 0x3216 PUSH1 0x60 DUP5 ADD DUP3 PUSH2 0x2E19 JUMP JUMPDEST POP PUSH1 0x40 DUP5 ADD MLOAD PUSH1 0x80 DUP4 ADD MSTORE PUSH1 0x60 DUP5 ADD MLOAD PUSH1 0xA0 DUP4 ADD MSTORE PUSH1 0x80 DUP5 ADD MLOAD PUSH2 0x323D PUSH1 0xC0 DUP5 ADD DUP3 PUSH2 0x2E19 JUMP JUMPDEST POP PUSH1 0xA0 DUP5 ADD MLOAD PUSH1 0xE0 DUP4 ADD MSTORE PUSH1 0xC0 DUP5 ADD MLOAD PUSH2 0x100 DUP2 DUP2 DUP6 ADD MSTORE PUSH1 0xE0 DUP7 ADD MLOAD SWAP2 POP PUSH2 0x120 PUSH2 0x326C DUP2 DUP7 ADD DUP5 ISZERO ISZERO SWAP1 MSTORE JUMP JUMPDEST DUP2 DUP8 ADD MLOAD SWAP3 POP PUSH2 0x220 SWAP2 POP PUSH2 0x140 DUP3 DUP2 DUP8 ADD MSTORE PUSH2 0x328D PUSH2 0x260 DUP8 ADD DUP6 PUSH2 0x2E26 JUMP JUMPDEST SWAP2 DUP9 ADD MLOAD PUSH2 0x160 DUP8 DUP2 ADD SWAP2 SWAP1 SWAP2 MSTORE SWAP1 DUP9 ADD MLOAD PUSH2 0x180 DUP1 DUP9 ADD SWAP2 SWAP1 SWAP2 MSTORE SWAP1 DUP9 ADD MLOAD PUSH2 0x1A0 DUP1 DUP9 ADD SWAP2 SWAP1 SWAP2 MSTORE SWAP1 DUP9 ADD MLOAD SWAP2 SWAP4 POP PUSH2 0x1C0 SWAP1 PUSH2 0x32CF DUP3 DUP9 ADD DUP5 ISZERO ISZERO SWAP1 MSTORE JUMP JUMPDEST DUP1 DUP10 ADD MLOAD SWAP3 POP POP PUSH2 0x1E0 DUP3 DUP2 DUP9 ADD MSTORE DUP2 DUP10 ADD MLOAD SWAP3 POP PUSH1 0x3F NOT SWAP2 POP PUSH2 0x200 DUP3 DUP9 DUP8 SUB ADD DUP2 DUP10 ADD MSTORE PUSH2 0x32FF DUP7 DUP6 PUSH2 0x2F82 JUMP JUMPDEST SWAP6 POP DUP2 DUP11 ADD MLOAD SWAP4 POP DUP3 DUP9 DUP8 SUB ADD DUP6 DUP10 ADD MSTORE PUSH2 0x331A DUP7 DUP6 PUSH2 0x2F82 JUMP JUMPDEST SWAP6 POP DUP1 DUP11 ADD MLOAD SWAP5 POP POP POP DUP1 DUP7 DUP6 SUB ADD PUSH2 0x240 DUP8 ADD MSTORE POP POP PUSH2 0x333B DUP3 DUP3 PUSH2 0x2F82 JUMP JUMPDEST SWAP3 POP POP POP PUSH2 0x259A PUSH1 0x20 DUP4 ADD DUP5 PUSH2 0x2E19 JUMP JUMPDEST DUP3 DUP2 MSTORE PUSH1 0x40 PUSH1 0x20 DUP3 ADD MSTORE PUSH1 0x0 PUSH2 0x2682 PUSH1 0x40 DUP4 ADD DUP5 PUSH2 0x2E26 JUMP JUMPDEST SWAP1 DUP2 MSTORE PUSH1 0x40 PUSH1 0x20 DUP3 ADD DUP2 SWAP1 MSTORE PUSH1 0x1E SWAP1 DUP3 ADD MSTORE PUSH32 0x526F757465723A2057726F6E67206D61726B657420646972656374696F6E0000 PUSH1 0x60 DUP3 ADD MSTORE PUSH1 0x80 ADD SWAP1 JUMP JUMPDEST SWAP1 DUP2 MSTORE PUSH1 0x40 PUSH1 0x20 DUP3 ADD DUP2 SWAP1 MSTORE PUSH1 0x1E SWAP1 DUP3 ADD MSTORE PUSH32 0x526F757465723A205369676E6174757265206469646E2774206D617463680000 PUSH1 0x60 DUP3 ADD MSTORE PUSH1 0x80 ADD SWAP1 JUMP JUMPDEST SWAP4 DUP5 MSTORE PUSH1 0x20 DUP5 ADD SWAP3 SWAP1 SWAP3 MSTORE PUSH1 0x40 DUP4 ADD MSTORE ISZERO ISZERO PUSH1 0x60 DUP3 ADD MSTORE PUSH1 0x80 ADD SWAP1 JUMP JUMPDEST PUSH1 0x0 DUP3 CALLDATALOAD PUSH1 0xDE NOT DUP4 CALLDATASIZE SUB ADD DUP2 SLT PUSH2 0x2FBD JUMPI DUP2 DUP3 REVERT JUMPDEST PUSH1 0x0 DUP3 CALLDATALOAD PUSH2 0x21E NOT DUP4 CALLDATASIZE SUB ADD DUP2 SLT PUSH2 0x2FBD JUMPI DUP2 DUP3 REVERT JUMPDEST PUSH1 0x40 MLOAD PUSH1 0xE0 DUP2 ADD PUSH1 0x1 PUSH1 0x1 PUSH1 0x40 SHL SUB DUP2 GT DUP3 DUP3 LT OR ISZERO PUSH2 0x344B JUMPI PUSH2 0x344B PUSH2 0x3773 JUMP JUMPDEST PUSH1 0x40 MSTORE SWAP1 JUMP JUMPDEST PUSH1 0x40 MLOAD PUSH2 0x220 DUP2 ADD PUSH1 0x1 PUSH1 0x1 PUSH1 0x40 SHL SUB DUP2 GT DUP3 DUP3 LT OR ISZERO PUSH2 0x344B JUMPI PUSH2 0x344B PUSH2 0x3773 JUMP JUMPDEST PUSH1 0x40 MLOAD PUSH2 0x2898 DUP3 DUP3 PUSH2 0x370D JUMP JUMPDEST PUSH1 0x0 PUSH1 0x1 PUSH1 0x1 PUSH1 0x40 SHL SUB DUP3 GT ISZERO PUSH2 0x349A JUMPI PUSH2 0x349A PUSH2 0x3773 JUMP JUMPDEST POP PUSH1 0x1F ADD PUSH1 0x1F NOT AND PUSH1 0x20 ADD SWAP1 JUMP JUMPDEST PUSH1 0x0 DUP3 NOT DUP3 GT ISZERO PUSH2 0x34BB JUMPI PUSH2 0x34BB PUSH2 0x375D JUMP JUMPDEST POP ADD SWAP1 JUMP JUMPDEST PUSH1 0x0 DUP2 PUSH1 0x0 NOT DIV DUP4 GT DUP3 ISZERO ISZERO AND ISZERO PUSH2 0x34DA JUMPI PUSH2 0x34DA PUSH2 0x375D JUMP JUMPDEST POP MUL SWAP1 JUMP JUMPDEST PUSH1 0x0 DUP3 DUP3 LT ISZERO PUSH2 0x34F1 JUMPI PUSH2 0x34F1 PUSH2 0x375D JUMP JUMPDEST POP SUB SWAP1 JUMP JUMPDEST PUSH1 0x0 PUSH2 0x3DC CALLDATASIZE DUP4 PUSH2 0x29BB JUMP JUMPDEST PUSH1 0x0 PUSH2 0x220 DUP3 CALLDATASIZE SUB SLT ISZERO PUSH2 0x3514 JUMPI DUP1 DUP2 REVERT JUMPDEST PUSH2 0x351C PUSH2 0x3451 JUMP JUMPDEST DUP3 CALLDATALOAD DUP2 MSTORE PUSH2 0x352C PUSH1 0x20 DUP5 ADD PUSH2 0x288D JUMP JUMPDEST PUSH1 0x20 DUP3 ADD MSTORE PUSH1 0x40 DUP4 ADD CALLDATALOAD PUSH1 0x40 DUP3 ADD MSTORE PUSH1 0x60 DUP4 ADD CALLDATALOAD PUSH1 0x60 DUP3 ADD MSTORE PUSH2 0x3551 PUSH1 0x80 DUP5 ADD PUSH2 0x288D JUMP JUMPDEST PUSH1 0x80 DUP3 ADD MSTORE PUSH1 0xA0 DUP4 ADD CALLDATALOAD PUSH1 0xA0 DUP3 ADD MSTORE PUSH1 0xC0 DUP4 ADD CALLDATALOAD PUSH1 0xC0 DUP3 ADD MSTORE PUSH2 0x3576 PUSH1 0xE0 DUP5 ADD PUSH2 0x28E6 JUMP JUMPDEST PUSH1 0xE0 DUP3 ADD MSTORE PUSH2 0x100 DUP4 DUP2 ADD CALLDATALOAD PUSH1 0x1 PUSH1 0x1 PUSH1 0x40 SHL SUB DUP1 DUP3 GT ISZERO PUSH2 0x3596 JUMPI DUP5 DUP6 REVERT JUMPDEST PUSH2 0x35A2 CALLDATASIZE DUP4 DUP9 ADD PUSH2 0x28F1 JUMP JUMPDEST SWAP3 DUP5 ADD SWAP3 SWAP1 SWAP3 MSTORE PUSH2 0x120 DUP6 DUP2 ADD CALLDATALOAD SWAP1 DUP5 ADD MSTORE PUSH2 0x140 DUP1 DUP7 ADD CALLDATALOAD SWAP1 DUP5 ADD MSTORE PUSH2 0x160 DUP1 DUP7 ADD CALLDATALOAD SWAP1 DUP5 ADD MSTORE PUSH2 0x180 SWAP2 PUSH2 0x35D9 DUP4 DUP8 ADD PUSH2 0x28E6 JUMP JUMPDEST DUP4 DUP6 ADD MSTORE PUSH2 0x1A0 SWAP3 POP DUP3 DUP7 ADD CALLDATALOAD DUP4 DUP6 ADD MSTORE PUSH2 0x1C0 SWAP3 POP DUP3 DUP7 ADD CALLDATALOAD SWAP2 POP DUP1 DUP3 GT ISZERO PUSH2 0x3601 JUMPI DUP5 DUP6 REVERT JUMPDEST PUSH2 0x360D CALLDATASIZE DUP4 DUP9 ADD PUSH2 0x2A68 JUMP JUMPDEST DUP4 DUP6 ADD MSTORE PUSH2 0x1E0 SWAP3 POP DUP3 DUP7 ADD CALLDATALOAD SWAP2 POP DUP1 DUP3 GT ISZERO PUSH2 0x3628 JUMPI DUP5 DUP6 REVERT JUMPDEST PUSH2 0x3634 CALLDATASIZE DUP4 DUP9 ADD PUSH2 0x2A68 JUMP JUMPDEST DUP4 DUP6 ADD MSTORE PUSH2 0x200 SWAP3 POP DUP3 DUP7 ADD CALLDATALOAD SWAP2 POP DUP1 DUP3 GT ISZERO PUSH2 0x364F JUMPI DUP5 DUP6 REVERT JUMPDEST POP PUSH2 0x365C CALLDATASIZE DUP3 DUP8 ADD PUSH2 0x2A68 JUMP JUMPDEST SWAP2 DUP4 ADD SWAP2 SWAP1 SWAP2 MSTORE POP SWAP3 SWAP2 POP POP JUMP JUMPDEST PUSH1 0x0 JUMPDEST DUP4 DUP2 LT ISZERO PUSH2 0x3685 JUMPI DUP2 DUP2 ADD MLOAD DUP4 DUP3 ADD MSTORE PUSH1 0x20 ADD PUSH2 0x366D JUMP JUMPDEST DUP4 DUP2 GT ISZERO PUSH2 0xCA6 JUMPI POP POP PUSH1 0x0 SWAP2 ADD MSTORE JUMP JUMPDEST PUSH1 0x0 DUP2 PUSH2 0x36A5 JUMPI PUSH2 0x36A5 PUSH2 0x375D JUMP JUMPDEST POP PUSH1 0x0 NOT ADD SWAP1 JUMP JUMPDEST PUSH1 0x1 DUP2 DUP2 SHR SWAP1 DUP3 AND DUP1 PUSH2 0x36C1 JUMPI PUSH1 0x7F DUP3 AND SWAP2 POP JUMPDEST PUSH1 0x20 DUP3 LT DUP2 EQ ISZERO PUSH2 0x36E2 JUMPI PUSH4 0x4E487B71 PUSH1 0xE0 SHL PUSH1 0x0 MSTORE PUSH1 0x22 PUSH1 0x4 MSTORE PUSH1 0x24 PUSH1 0x0 REVERT JUMPDEST POP SWAP2 SWAP1 POP JUMP JUMPDEST PUSH1 0x40 DUP2 ADD PUSH1 0x1 PUSH1 0x1 PUSH1 0x40 SHL SUB DUP2 GT DUP3 DUP3 LT OR ISZERO PUSH2 0x3707 JUMPI PUSH2 0x3707 PUSH2 0x3773 JUMP JUMPDEST PUSH1 0x40 MSTORE POP JUMP JUMPDEST PUSH1 0x1F DUP3 ADD PUSH1 0x1F NOT AND DUP2 ADD PUSH1 0x1 PUSH1 0x1 PUSH1 0x40 SHL SUB DUP2 GT DUP3 DUP3 LT OR ISZERO PUSH2 0x3732 JUMPI PUSH2 0x3732 PUSH2 0x3773 JUMP JUMPDEST PUSH1 0x40 MSTORE POP POP JUMP JUMPDEST PUSH1 0x0 PUSH4 0xFFFFFFFF DUP1 DUP4 AND DUP2 DUP2 EQ ISZERO PUSH2 0x3753 JUMPI PUSH2 0x3753 PUSH2 0x375D JUMP JUMPDEST PUSH1 0x1 ADD SWAP4 SWAP3 POP POP POP JUMP JUMPDEST PUSH4 0x4E487B71 PUSH1 0xE0 SHL PUSH1 0x0 MSTORE PUSH1 0x11 PUSH1 0x4 MSTORE PUSH1 0x24 PUSH1 0x0 REVERT JUMPDEST PUSH4 0x4E487B71 PUSH1 0xE0 SHL PUSH1 0x0 MSTORE PUSH1 0x41 PUSH1 0x4 MSTORE PUSH1 0x24 PUSH1 0x0 REVERT JUMPDEST PUSH1 0x0 PUSH1 0x3 RETURNDATASIZE GT ISZERO PUSH2 0x379E JUMPI PUSH1 0x4 DUP2 DUP3 RETURNDATACOPY MLOAD PUSH1 0xE0 SHR JUMPDEST SWAP1 JUMP JUMPDEST PUSH1 0x0 PUSH1 0x44 RETURNDATASIZE LT ISZERO PUSH2 0x37AF JUMPI SWAP1 JUMP JUMPDEST PUSH1 0x40 MLOAD PUSH1 0x3 NOT RETURNDATASIZE DUP2 ADD PUSH1 0x4 DUP4 RETURNDATACOPY DUP2 MLOAD RETURNDATASIZE PUSH1 0x1 PUSH1 0x1 PUSH1 0x40 SHL SUB DUP1 DUP4 GT PUSH1 0x24 DUP5 ADD DUP4 LT OR ISZERO PUSH2 0x37DE JUMPI POP POP POP POP POP SWAP1 JUMP JUMPDEST DUP3 DUP6 ADD SWAP2 POP DUP2 MLOAD DUP2 DUP2 GT ISZERO PUSH2 0x37F6 JUMPI POP POP POP POP POP POP SWAP1 JUMP JUMPDEST DUP5 RETURNDATASIZE DUP8 ADD ADD PUSH1 0x20 DUP3 DUP6 ADD ADD GT ISZERO PUSH2 0x3810 JUMPI POP POP POP POP POP POP SWAP1 JUMP JUMPDEST PUSH2 0x381F PUSH1 0x20 DUP3 DUP7 ADD ADD DUP8 PUSH2 0x370D JUMP JUMPDEST POP SWAP1 SWAP6 SWAP5 POP POP POP POP POP JUMP JUMPDEST PUSH1 0x1 PUSH1 0x1 PUSH1 0xA0 SHL SUB DUP2 AND DUP2 EQ PUSH2 0x14B9 JUMPI PUSH1 0x0 DUP1 REVERT JUMPDEST DUP1 ISZERO ISZERO DUP2 EQ PUSH2 0x14B9 JUMPI PUSH1 0x0 DUP1 REVERT INVALID MSTORE PUSH16 0x757465723A204C696D6974206F726465 PUSH19 0x2068617320616C726561647920657870697265 PUSH5 0x526F757465 PUSH19 0x3A20536574746C656D656E7420666565206861 PUSH20 0x2065787069726564526F757465723A20496E7661 PUSH13 0x6964207075626C697368657220 PUSH20 0x69676E61747572652074696D657374616D70526F PUSH22 0x7465723A2054726164652068617320616C7265616479 KECCAK256 PUSH3 0x65656E KECCAK256 PUSH16 0x70656E6564312FFA36DDA8CECA985BF8 0xD5 0xCA SLOAD 0x5C 0x4F 0xB7 PUSH5 0xDDCA604F4B 0xA5 ADDMOD DUP2 MULMOD 0xDA SIGNEXTEND SWAP5 PUSH6 0xF3526F757465 PUSH19 0x3A2055736572207369676E6174757265206469 PUSH5 0x6E2774206D PUSH2 0x7463 PUSH9 0x526F757465723A2050 PUSH22 0x626C6973686572207369676E6174757265206469646E 0x27 PUSH21 0x206D61746368526F757465723A20496E76616C6964 KECCAK256 PUSH22 0x736572207369676E61747572652074696D657374616D PUSH17 0xA26469706673582212208881B8CD32D25B PC 0xD0 0xDE SWAP14 0xBB LOG4 INVALID 0xD2 DUP7 0xC3 RETURN PUSH3 0x8CEC01 CALL SMOD DIV 0xCD PUSH8 0x80FB709E5F64736F PUSH13 0x63430008040033000000000000 ",
  "sha1": "e6b96d12c42d12b373648862037a6b994ec2b5c0",
  "source": "// SPDX-License-Identifier: BUSL-1.1\n\npragma solidity 0.8.4;\n\nimport \"@openzeppelin/contracts/security/ReentrancyGuard.sol\";\nimport \"@openzeppelin/contracts/access/AccessControl.sol\";\nimport \"@openzeppelin/contracts/token/ERC20/utils/SafeERC20.sol\";\nimport \"../interfaces/Interfaces.sol\";\nimport \"@openzeppelin/contracts/utils/cryptography/ECDSA.sol\";\nimport \"../Libraries/Validator.sol\";\n\n/**\n * @author Heisenberg\n * @notice Buffer Options Router Contract\n */\ncontract BufferRouter is AccessControl, IBufferRouter {\n    using SafeERC20 for ERC20;\n    uint16 MAX_DELAY_FOR_OPEN_TRADE = 1 minutes;\n    uint16 MAX_DELAY_FOR_ASSET_PRICE = 1 minutes;\n\n    address public publisher;\n    address public sfPublisher;\n    address public admin;\n    bool public isInPrivateKeeperMode = true;\n\n    mapping(uint256 => QueuedTrade) public queuedTrades;\n    mapping(address => bool) public contractRegistry;\n    mapping(address => bool) public isKeeper;\n    mapping(address => AccountMapping) public accountMapping;\n    mapping(bytes => bool) public prevSignature;\n\n    constructor(address _publisher, address _sfPublisher, address _admin) {\n        publisher = _publisher;\n        sfPublisher = _sfPublisher;\n        admin = _admin;\n        _setupRole(DEFAULT_ADMIN_ROLE, msg.sender);\n    }\n\n    /************************************************\n     *  ADMIN ONLY FUNCTIONS\n     ***********************************************/\n\n    function setContractRegistry(\n        address targetContract,\n        bool register\n    ) external onlyRole(DEFAULT_ADMIN_ROLE) {\n        contractRegistry[targetContract] = register;\n\n        emit ContractRegistryUpdated(targetContract, register);\n    }\n\n    function setKeeper(\n        address _keeper,\n        bool _isActive\n    ) external onlyRole(DEFAULT_ADMIN_ROLE) {\n        isKeeper[_keeper] = _isActive;\n    }\n\n    function setInPrivateKeeperMode() external onlyRole(DEFAULT_ADMIN_ROLE) {\n        isInPrivateKeeperMode = !isInPrivateKeeperMode;\n    }\n\n    /************************************************\n     *  USER WRITE FUNCTIONS\n     ***********************************************/\n\n    function registerAccount(address oneCT) external {\n        accountMapping[msg.sender].oneCT = oneCT;\n        emit RegisterAccount(msg.sender, oneCT);\n    }\n\n    function deregisterAccount() external {\n        accountMapping[msg.sender] = AccountMapping({\n            nonce: accountMapping[msg.sender].nonce + 1,\n            oneCT: address(0)\n        });\n    }\n\n    /************************************************\n     *  KEEPER ONLY FUNCTIONS\n     ***********************************************/\n\n    function openTrades(TradeParams[] calldata params) external {\n        _validateKeeper();\n        for (uint32 index = 0; index < params.length; index++) {\n            TradeParams memory currentParams = params[index];\n            (bool isValid, string memory errorResaon) = _verifyTrade(\n                currentParams\n            );\n            if (!isValid) {\n                emit FailResolve(currentParams.queueId, errorResaon);\n                continue;\n            }\n            _openTrade(currentParams);\n        }\n    }\n\n    function closeAnytime(CloseAnytimeParams[] memory closeParams) external {\n        _validateKeeper();\n        // TODO: add validation to check if the user signed this\n        for (uint32 index = 0; index < closeParams.length; index++) {\n            SignInfo memory userSignInfo = closeParams[index].userSignInfo;\n            CloseTradeParams memory params = closeParams[index]\n                .closeTradeParams;\n\n            IBufferBinaryOptions optionsContract = IBufferBinaryOptions(\n                params.targetContract\n            );\n            IBufferRouter.SignInfo memory publisherSignInfo = params\n                .publisherSignInfo;\n            QueuedTrade memory queuedTrade = queuedTrades[params.queueId];\n\n            bool isUserSignValid = Validator.verifyCloseAnytime(\n                optionsContract.assetPair(),\n                publisherSignInfo.timestamp,\n                params.optionId,\n                userSignInfo.signature,\n                accountMapping[queuedTrade.user].oneCT\n            );\n\n            bool isSignerVerifed = Validator.verifyPublisher(\n                optionsContract.assetPair(),\n                publisherSignInfo.timestamp,\n                params.closingPrice,\n                publisherSignInfo.signature,\n                publisher\n            );\n\n            // Silently fail if the signature doesn't match\n            if (!isSignerVerifed) {\n                emit FailUnlock(\n                    params.optionId,\n                    \"Router: Signature didn't match\"\n                );\n                continue;\n            }\n\n            if (\n                !Validator.verifyMarketDirection(\n                    params,\n                    queuedTrade,\n                    accountMapping[queuedTrade.user].oneCT\n                )\n            ) {\n                emit FailUnlock(\n                    params.optionId,\n                    \"Router: Wrong market direction\"\n                );\n                continue;\n            }\n\n            try\n                optionsContract.unlock(\n                    params.optionId,\n                    params.closingPrice,\n                    publisherSignInfo.timestamp,\n                    params.isAbove\n                )\n            {} catch Error(string memory reason) {\n                emit FailUnlock(params.optionId, reason);\n                continue;\n            }\n        }\n    }\n\n    function executeOptions(CloseTradeParams[] calldata optionData) external {\n        _validateKeeper();\n\n        uint32 arrayLength = uint32(optionData.length);\n        for (uint32 i = 0; i < arrayLength; i++) {\n            CloseTradeParams memory params = optionData[i];\n            IBufferBinaryOptions optionsContract = IBufferBinaryOptions(\n                params.targetContract\n            );\n            (, , , , , uint256 expiration, , ) = optionsContract.options(\n                params.optionId\n            );\n            IBufferRouter.SignInfo memory signInfo = params.publisherSignInfo;\n\n            bool isSignerVerifed = Validator.verifyPublisher(\n                optionsContract.assetPair(),\n                signInfo.timestamp,\n                params.closingPrice,\n                signInfo.signature,\n                publisher\n            );\n\n            // Silently fail if the signature doesn't match\n            if (!isSignerVerifed) {\n                emit FailUnlock(\n                    params.optionId,\n                    \"Router: Signature didn't match\"\n                );\n                continue;\n            }\n\n            QueuedTrade memory queuedTrade = queuedTrades[params.queueId];\n\n            if (\n                !Validator.verifyMarketDirection(\n                    params,\n                    queuedTrade,\n                    accountMapping[queuedTrade.user].oneCT\n                )\n            ) {\n                emit FailUnlock(\n                    params.optionId,\n                    \"Router: Wrong market direction\"\n                );\n                continue;\n            }\n\n            // Silently fail if the timestamp of the signature is wrong\n            if (expiration != signInfo.timestamp) {\n                emit FailUnlock(params.optionId, \"Router: Wrong price\");\n                continue;\n            } else if (expiration > block.timestamp) {\n                emit FailUnlock(params.optionId, \"Router: Wrong closing time\");\n                continue;\n            }\n\n            try\n                optionsContract.unlock(\n                    params.optionId,\n                    params.closingPrice,\n                    expiration,\n                    params.isAbove\n                )\n            {} catch Error(string memory reason) {\n                emit FailUnlock(params.optionId, reason);\n                continue;\n            }\n        }\n    }\n\n    /************************************************\n     *  INTERNAL FUNCTIONS\n     ***********************************************/\n    function _validateKeeper() private view {\n        require(\n            !isInPrivateKeeperMode || isKeeper[msg.sender],\n            \"Keeper: forbidden\"\n        );\n    }\n\n    function _verifyTrade(\n        TradeParams memory params\n    ) internal view returns (bool, string memory) {\n        IBufferBinaryOptions optionsContract = IBufferBinaryOptions(\n            params.targetContract\n        );\n        SignInfo memory settlementFeeSignInfo = params.settlementFeeSignInfo;\n        SignInfo memory publisherSignInfo = params.publisherSignInfo;\n        SignInfo memory userSignInfo = params.userSignInfo;\n\n        if (!contractRegistry[params.targetContract]) {\n            return (false, \"Router: Unauthorized contract\");\n        }\n        if (queuedTrades[params.queueId].isTradeResolved) {\n            return (false, \"Router: Trade has already been opened\");\n        }\n        if (prevSignature[userSignInfo.signature]) {\n            return (false, \"Router: Signature already used\");\n        }\n        if (\n            !Validator.verifyUserTradeParams(\n                params,\n                accountMapping[params.user].oneCT\n            )\n        ) {\n            return (false, \"Router: User signature didn't match\");\n        }\n        if (\n            !Validator.verifySettlementFee(\n                optionsContract.assetPair(),\n                params.settlementFee,\n                settlementFeeSignInfo.timestamp,\n                settlementFeeSignInfo.signature,\n                sfPublisher\n            )\n        ) {\n            return (false, \"Router: Wrong settlement fee\");\n        }\n        if (\n            !Validator.verifyPublisher(\n                optionsContract.assetPair(),\n                publisherSignInfo.timestamp,\n                params.price,\n                publisherSignInfo.signature,\n                publisher\n            )\n        ) {\n            return (false, \"Router: Publisher signature didn't match\");\n        }\n        if (settlementFeeSignInfo.timestamp < block.timestamp) {\n            return (false, \"Router: Settlement fee has expired\");\n        }\n        if (!params.isLimitOrder) {\n            if (\n                block.timestamp - userSignInfo.timestamp >\n                MAX_DELAY_FOR_OPEN_TRADE\n            ) {\n                return (false, \"Router: Invalid user signature timestamp\");\n            }\n        } else {\n            if (block.timestamp > params.limitOrderExpiry) {\n                return (false, \"Router: Limit order has already expired\");\n            }\n        }\n        if (\n            block.timestamp - publisherSignInfo.timestamp >\n            MAX_DELAY_FOR_ASSET_PRICE\n        ) {\n            return (false, \"Router: Invalid publisher signature timestamp\");\n        }\n        if (\n            !optionsContract.isStrikeValid(\n                params.slippage,\n                params.price,\n                params.strike\n            )\n        ) {\n            return (false, \"Router: Slippage limit exceeds\");\n        }\n        return (true, \"\");\n    }\n\n    function _openTrade(TradeParams memory params) internal {\n        IBufferBinaryOptions optionsContract = IBufferBinaryOptions(\n            params.targetContract\n        );\n        SignInfo memory publisherSignInfo = params.publisherSignInfo;\n        SignInfo memory userSignInfo = params.userSignInfo;\n        uint256 platformFee = IOptionsConfig(optionsContract.config())\n            .platformFee();\n\n        // Check all the parameters and compute the amount and revised fee\n        uint256 amount;\n        uint256 revisedFee;\n        bool isReferralValid;\n        IBufferBinaryOptions.OptionParams\n            memory optionParams = IBufferBinaryOptions.OptionParams(\n                params.strike,\n                0,\n                params.period,\n                params.allowPartialFill,\n                params.totalFee - platformFee,\n                params.user,\n                params.referralCode,\n                params.traderNFTId,\n                params.settlementFee\n            );\n\n        try\n            optionsContract.evaluateParams(optionParams, params.slippage)\n        returns (uint256 _amount, uint256 _revisedFee, bool _isReferralValid) {\n            (amount, revisedFee, isReferralValid) = (\n                _amount,\n                _revisedFee,\n                _isReferralValid\n            );\n        } catch Error(string memory reason) {\n            emit CancelTrade(params.user, params.queueId, reason);\n            return;\n        }\n\n        // Transfer the fee specified from the user to options contract.\n        // User has to approve first inorder to execute this function\n        ERC20 tokenX = ERC20(optionsContract.tokenX());\n\n        tokenX.safeTransferFrom(params.user, admin, platformFee);\n        tokenX.safeTransferFrom(params.user, params.targetContract, revisedFee);\n\n        optionParams.strike = params.price;\n        optionParams.amount = amount;\n\n        uint256 optionId = optionsContract.createFromRouter(\n            optionParams,\n            isReferralValid,\n            publisherSignInfo.timestamp\n        );\n        queuedTrades[params.queueId] = QueuedTrade({\n            user: params.user,\n            targetContract: params.targetContract,\n            strike: params.strike,\n            slippage: params.slippage,\n            period: params.period,\n            allowPartialFill: params.allowPartialFill,\n            totalFee: params.totalFee,\n            referralCode: params.referralCode,\n            traderNFTId: params.traderNFTId,\n            settlementFee: params.settlementFee,\n            isLimitOrder: params.isLimitOrder,\n            isTradeResolved: true\n        });\n        prevSignature[userSignInfo.signature] = true;\n\n        emit OpenTrade(params.user, params.queueId, optionId);\n    }\n}\n",
  "sourcePath": "contracts/core/BufferRouter.sol",
  "type": "contract"
}